{
  "_format": "hh-sol-artifact-1",
  "contractName": "ReferralPool",
  "sourceName": "src/ReferralPool.sol",
  "abi": [
    {
      "inputs": [],
      "stateMutability": "nonpayable",
      "type": "constructor"
    },
    {
      "inputs": [],
      "name": "EnforcedPause",
      "type": "error"
    },
    {
      "inputs": [],
      "name": "ExpectedPause",
      "type": "error"
    },
    {
      "inputs": [
        {
          "internalType": "address",
          "name": "owner",
          "type": "address"
        }
      ],
      "name": "OwnableInvalidOwner",
      "type": "error"
    },
    {
      "inputs": [
        {
          "internalType": "address",
          "name": "account",
          "type": "address"
        }
      ],
      "name": "OwnableUnauthorizedAccount",
      "type": "error"
    },
    {
      "inputs": [],
      "name": "ReentrancyGuardReentrantCall",
      "type": "error"
    },
    {
      "anonymous": false,
      "inputs": [
        {
          "indexed": false,
          "internalType": "uint256",
          "name": "amount",
          "type": "uint256"
        },
        {
          "indexed": true,
          "internalType": "address",
          "name": "to",
          "type": "address"
        }
      ],
      "name": "EmergencyWithdraw",
      "type": "event"
    },
    {
      "anonymous": false,
      "inputs": [
        {
          "indexed": false,
          "internalType": "uint256",
          "name": "oldMin",
          "type": "uint256"
        },
        {
          "indexed": false,
          "internalType": "uint256",
          "name": "newMin",
          "type": "uint256"
        }
      ],
      "name": "MinClaimAmountUpdated",
      "type": "event"
    },
    {
      "anonymous": false,
      "inputs": [
        {
          "indexed": true,
          "internalType": "address",
          "name": "previousOwner",
          "type": "address"
        },
        {
          "indexed": true,
          "internalType": "address",
          "name": "newOwner",
          "type": "address"
        }
      ],
      "name": "OwnershipTransferred",
      "type": "event"
    },
    {
      "anonymous": false,
      "inputs": [
        {
          "indexed": false,
          "internalType": "address",
          "name": "account",
          "type": "address"
        }
      ],
      "name": "Paused",
      "type": "event"
    },
    {
      "anonymous": false,
      "inputs": [
        {
          "indexed": true,
          "internalType": "address",
          "name": "from",
          "type": "address"
        },
        {
          "indexed": false,
          "internalType": "uint256",
          "name": "amount",
          "type": "uint256"
        }
      ],
      "name": "Received",
      "type": "event"
    },
    {
      "anonymous": false,
      "inputs": [
        {
          "indexed": true,
          "internalType": "address",
          "name": "referrer",
          "type": "address"
        },
        {
          "indexed": false,
          "internalType": "bytes32",
          "name": "code",
          "type": "bytes32"
        }
      ],
      "name": "ReferralCodeRegistered",
      "type": "event"
    },
    {
      "anonymous": false,
      "inputs": [
        {
          "indexed": true,
          "internalType": "address",
          "name": "referrer",
          "type": "address"
        },
        {
          "indexed": false,
          "internalType": "uint256",
          "name": "amount",
          "type": "uint256"
        }
      ],
      "name": "RewardsAllocated",
      "type": "event"
    },
    {
      "anonymous": false,
      "inputs": [
        {
          "indexed": true,
          "internalType": "address",
          "name": "referrer",
          "type": "address"
        },
        {
          "indexed": false,
          "internalType": "uint256",
          "name": "amount",
          "type": "uint256"
        }
      ],
      "name": "RewardsClaimed",
      "type": "event"
    },
    {
      "anonymous": false,
      "inputs": [
        {
          "indexed": false,
          "internalType": "address",
          "name": "account",
          "type": "address"
        }
      ],
      "name": "Unpaused",
      "type": "event"
    },
    {
      "inputs": [
        {
          "internalType": "address",
          "name": "",
          "type": "address"
        }
      ],
      "name": "addressToCode",
      "outputs": [
        {
          "internalType": "bytes32",
          "name": "",
          "type": "bytes32"
        }
      ],
      "stateMutability": "view",
      "type": "function"
    },
    {
      "inputs": [
        {
          "internalType": "address",
          "name": "referrer",
          "type": "address"
        },
        {
          "internalType": "uint256",
          "name": "amount",
          "type": "uint256"
        }
      ],
      "name": "allocateRewards",
      "outputs": [],
      "stateMutability": "nonpayable",
      "type": "function"
    },
    {
      "inputs": [
        {
          "internalType": "address[]",
          "name": "referrers",
          "type": "address[]"
        },
        {
          "internalType": "uint256[]",
          "name": "amounts",
          "type": "uint256[]"
        }
      ],
      "name": "batchAllocateRewards",
      "outputs": [],
      "stateMutability": "nonpayable",
      "type": "function"
    },
    {
      "inputs": [],
      "name": "claim",
      "outputs": [],
      "stateMutability": "nonpayable",
      "type": "function"
    },
    {
      "inputs": [
        {
          "internalType": "uint256",
          "name": "amount",
          "type": "uint256"
        }
      ],
      "name": "emergencyWithdraw",
      "outputs": [],
      "stateMutability": "nonpayable",
      "type": "function"
    },
    {
      "inputs": [],
      "name": "getPoolStats",
      "outputs": [
        {
          "internalType": "uint256",
          "name": "balance",
          "type": "uint256"
        },
        {
          "internalType": "uint256",
          "name": "allocated",
          "type": "uint256"
        },
        {
          "internalType": "uint256",
          "name": "claimed",
          "type": "uint256"
        },
        {
          "internalType": "uint256",
          "name": "available",
          "type": "uint256"
        }
      ],
      "stateMutability": "view",
      "type": "function"
    },
    {
      "inputs": [
        {
          "internalType": "bytes32",
          "name": "code",
          "type": "bytes32"
        }
      ],
      "name": "getReferrerByCode",
      "outputs": [
        {
          "internalType": "address",
          "name": "",
          "type": "address"
        }
      ],
      "stateMutability": "view",
      "type": "function"
    },
    {
      "inputs": [
        {
          "internalType": "address",
          "name": "referrer",
          "type": "address"
        }
      ],
      "name": "getReferrerInfo",
      "outputs": [
        {
          "internalType": "uint256",
          "name": "pending",
          "type": "uint256"
        },
        {
          "internalType": "uint256",
          "name": "claimed",
          "type": "uint256"
        },
        {
          "internalType": "bytes32",
          "name": "code",
          "type": "bytes32"
        }
      ],
      "stateMutability": "view",
      "type": "function"
    },
    {
      "inputs": [],
      "name": "minClaimAmount",
      "outputs": [
        {
          "internalType": "uint256",
          "name": "",
          "type": "uint256"
        }
      ],
      "stateMutability": "view",
      "type": "function"
    },
    {
      "inputs": [],
      "name": "owner",
      "outputs": [
        {
          "internalType": "address",
          "name": "",
          "type": "address"
        }
      ],
      "stateMutability": "view",
      "type": "function"
    },
    {
      "inputs": [],
      "name": "pause",
      "outputs": [],
      "stateMutability": "nonpayable",
      "type": "function"
    },
    {
      "inputs": [],
      "name": "paused",
      "outputs": [
        {
          "internalType": "bool",
          "name": "",
          "type": "bool"
        }
      ],
      "stateMutability": "view",
      "type": "function"
    },
    {
      "inputs": [
        {
          "internalType": "address",
          "name": "",
          "type": "address"
        }
      ],
      "name": "pendingRewards",
      "outputs": [
        {
          "internalType": "uint256",
          "name": "",
          "type": "uint256"
        }
      ],
      "stateMutability": "view",
      "type": "function"
    },
    {
      "inputs": [
        {
          "internalType": "bytes32",
          "name": "",
          "type": "bytes32"
        }
      ],
      "name": "referralCodes",
      "outputs": [
        {
          "internalType": "address",
          "name": "",
          "type": "address"
        }
      ],
      "stateMutability": "view",
      "type": "function"
    },
    {
      "inputs": [
        {
          "internalType": "bytes32",
          "name": "code",
          "type": "bytes32"
        }
      ],
      "name": "registerReferralCode",
      "outputs": [],
      "stateMutability": "nonpayable",
      "type": "function"
    },
    {
      "inputs": [],
      "name": "renounceOwnership",
      "outputs": [],
      "stateMutability": "nonpayable",
      "type": "function"
    },
    {
      "inputs": [
        {
          "internalType": "uint256",
          "name": "_minClaimAmount",
          "type": "uint256"
        }
      ],
      "name": "setMinClaimAmount",
      "outputs": [],
      "stateMutability": "nonpayable",
      "type": "function"
    },
    {
      "inputs": [],
      "name": "totalAllocated",
      "outputs": [
        {
          "internalType": "uint256",
          "name": "",
          "type": "uint256"
        }
      ],
      "stateMutability": "view",
      "type": "function"
    },
    {
      "inputs": [
        {
          "internalType": "address",
          "name": "",
          "type": "address"
        }
      ],
      "name": "totalClaimed",
      "outputs": [
        {
          "internalType": "uint256",
          "name": "",
          "type": "uint256"
        }
      ],
      "stateMutability": "view",
      "type": "function"
    },
    {
      "inputs": [],
      "name": "totalClaimedAmount",
      "outputs": [
        {
          "internalType": "uint256",
          "name": "",
          "type": "uint256"
        }
      ],
      "stateMutability": "view",
      "type": "function"
    },
    {
      "inputs": [
        {
          "internalType": "address",
          "name": "newOwner",
          "type": "address"
        }
      ],
      "name": "transferOwnership",
      "outputs": [],
      "stateMutability": "nonpayable",
      "type": "function"
    },
    {
      "inputs": [],
      "name": "unpause",
      "outputs": [],
      "stateMutability": "nonpayable",
      "type": "function"
    },
    {
      "stateMutability": "payable",
      "type": "receive"
    }
  ],
  "bytecode": "0x608060405266038d7ea4c6800060075534801561001b57600080fd5b50338061004257604051631e4fbdf760e01b81526000600482015260240160405180910390fd5b61004b81610055565b50600180556100a5565b600080546001600160a01b038381166001600160a01b0319831681178455604051919092169283917f8be0079c531659141344cd1fd0a4f28419497f9722a3daafe3b4186f6b6457e09190a35050565b61115c806100b46000396000f3fe6080604052600436106101395760003560e01c80638da5cb5b116100ab578063adc25bde1161006f578063adc25bde146103a1578063bbb85188146103b7578063c4f74631146103ec578063e918032314610419578063ef5d9ae814610481578063f2fde38b146104ae57600080fd5b80638da5cb5b146102f7578063922fc248146103155780639661cb0d14610335578063a5bbb7b51461034b578063ace03a0c1461038157600080fd5b80635312ea8e116100fd5780635312ea8e1461021c5780635c975abb1461023c578063715018a61461025f5780637e644547146102745780638456cb59146102c25780638c502b9f146102d757600080fd5b80631aa7e5771461017a57806331d7a2621461019c5780633f4ba83a146101dc57806345f7f249146101f15780634e71d92d1461020757600080fd5b366101755760405134815233907f88a5966d370b9919b20f3e2c13ff65706f196a4e32cc2c12bf57088f885258749060200160405180910390a2005b600080fd5b34801561018657600080fd5b5061019a610195366004610f6a565b6104ce565b005b3480156101a857600080fd5b506101c96101b7366004610f94565b60036020526000908152604090205481565b6040519081526020015b60405180910390f35b3480156101e857600080fd5b5061019a610634565b3480156101fd57600080fd5b506101c960055481565b34801561021357600080fd5b5061019a610646565b34801561022857600080fd5b5061019a610237366004610fb6565b6107c3565b34801561024857600080fd5b5060025460ff1660405190151581526020016101d3565b34801561026b57600080fd5b5061019a6108a7565b34801561028057600080fd5b506102aa61028f366004610fb6565b6008602052600090815260409020546001600160a01b031681565b6040516001600160a01b0390911681526020016101d3565b3480156102ce57600080fd5b5061019a6108b9565b3480156102e357600080fd5b5061019a6102f236600461101b565b6108c9565b34801561030357600080fd5b506000546001600160a01b03166102aa565b34801561032157600080fd5b5061019a610330366004610fb6565b610ba1565b34801561034157600080fd5b506101c960065481565b34801561035757600080fd5b506102aa610366366004610fb6565b6000908152600860205260409020546001600160a01b031690565b34801561038d57600080fd5b5061019a61039c366004610fb6565b610bee565b3480156103ad57600080fd5b506101c960075481565b3480156103c357600080fd5b506103cc610d45565b6040805194855260208501939093529183015260608201526080016101d3565b3480156103f857600080fd5b506101c9610407366004610f94565b60096020526000908152604090205481565b34801561042557600080fd5b50610466610434366004610f94565b6001600160a01b0316600090815260036020908152604080832054600483528184205460099093529220549192909190565b604080519384526020840192909252908201526060016101d3565b34801561048d57600080fd5b506101c961049c366004610f94565b60046020526000908152604090205481565b3480156104ba57600080fd5b5061019a6104c9366004610f94565b610d93565b6104d6610dd1565b6104de610dfe565b6001600160a01b03821661052c5760405162461bcd60e51b815260206004820152601060248201526f24b73b30b634b2103932b332b93932b960811b60448201526064015b60405180910390fd5b600081116105715760405162461bcd60e51b81526020600482015260126024820152710416d6f756e74206d757374206265203e20360741b6044820152606401610523565b80600654600554610582919061109d565b61058c91906110b6565b4710156105ab5760405162461bcd60e51b8152600401610523906110c9565b6001600160a01b038216600090815260036020526040812080548392906105d39084906110b6565b9250508190555080600560008282546105ec91906110b6565b90915550506040518181526001600160a01b038316907f560ef4f9524af91c8f006852a8707c3f256c238779f8cc088bbe202bb82e632e906020015b60405180910390a25050565b61063c610dd1565b610644610e22565b565b61064e610e74565b610656610dfe565b336000908152600360205260409020546007548110156106af5760405162461bcd60e51b8152602060048201526014602482015273416d6f756e742062656c6f77206d696e696d756d60601b6044820152606401610523565b3360009081526003602090815260408083208390556004909152812080548392906106db9084906110b6565b9250508190555080600660008282546106f491906110b6565b9091555050604051600090339083908381818185875af1925050503d806000811461073b576040519150601f19603f3d011682016040523d82523d6000602084013e610740565b606091505b50509050806107835760405162461bcd60e51b815260206004820152600f60248201526e151c985b9cd9995c8819985a5b1959608a1b6044820152606401610523565b60405182815233907ffc30cddea38e2bf4d6ea7d3f9ed3b6ad7f176419f4963bd81318067a4aee73fe9060200160405180910390a2505061064460018055565b6107cb610dd1565b478111156107eb5760405162461bcd60e51b8152600401610523906110c9565b604051600090339083908381818185875af1925050503d806000811461082d576040519150601f19603f3d011682016040523d82523d6000602084013e610832565b606091505b50509050806108755760405162461bcd60e51b815260206004820152600f60248201526e151c985b9cd9995c8819985a5b1959608a1b6044820152606401610523565b60405182815233907fbb43d2e6a13f52d71a3a836cf197fa240fb4ef40914b6e13cc966fd6dfb19b6890602001610628565b6108af610dd1565b6106446000610e9e565b6108c1610dd1565b610644610eee565b6108d1610dd1565b6108d9610dfe565b82811461091a5760405162461bcd60e51b815260206004820152600f60248201526e098cadccee8d040dad2e6dac2e8c6d608b1b6044820152606401610523565b60c88311156109615760405162461bcd60e51b8152602060048201526013602482015272546f6f206d616e7920726563697069656e747360681b6044820152606401610523565b6000805b828110156109a55783838281811061097f5761097f6110f7565b905060200201358261099191906110b6565b91508061099d8161110d565b915050610965565b50806006546005546109b7919061109d565b6109c191906110b6565b4710156109e05760405162461bcd60e51b8152600401610523906110c9565b60005b84811015610b995760008686838181106109ff576109ff6110f7565b9050602002016020810190610a149190610f94565b6001600160a01b031603610a5d5760405162461bcd60e51b815260206004820152601060248201526f24b73b30b634b2103932b332b93932b960811b6044820152606401610523565b838382818110610a6f57610a6f6110f7565b9050602002013560036000888885818110610a8c57610a8c6110f7565b9050602002016020810190610aa19190610f94565b6001600160a01b03166001600160a01b031681526020019081526020016000206000828254610ad091906110b6565b909155508490508382818110610ae857610ae86110f7565b9050602002013560056000828254610b0091906110b6565b909155508690508582818110610b1857610b186110f7565b9050602002016020810190610b2d9190610f94565b6001600160a01b03167f560ef4f9524af91c8f006852a8707c3f256c238779f8cc088bbe202bb82e632e858584818110610b6957610b696110f7565b90506020020135604051610b7f91815260200190565b60405180910390a280610b918161110d565b9150506109e3565b505050505050565b610ba9610dd1565b600780549082905560408051828152602081018490527f8c8cdaee415d983ed59ea8f3813c56960cbcb5a53a45070f6f6e99bec4b31003910160405180910390a15050565b80610c2a5760405162461bcd60e51b815260206004820152600c60248201526b496e76616c696420636f646560a01b6044820152606401610523565b6000818152600860205260409020546001600160a01b031615610c8f5760405162461bcd60e51b815260206004820152601760248201527f436f646520616c726561647920726567697374657265640000000000000000006044820152606401610523565b3360009081526009602052604090205415610ce15760405162461bcd60e51b8152602060048201526012602482015271416c726561647920686173206120636f646560701b6044820152606401610523565b600081815260086020908152604080832080546001600160a01b031916339081179091558084526009835292819020849055518381527f2a805eee9f529910e307c2e6bb571997f184bde717e120b09d9a116365f2c413910160405180910390a250565b60008060008060004790506000600654600554610d62919061109d565b905081600554600654838511610d79576000610d83565b610d83848661109d565b9550955095509550505090919293565b610d9b610dd1565b6001600160a01b038116610dc557604051631e4fbdf760e01b815260006004820152602401610523565b610dce81610e9e565b50565b6000546001600160a01b031633146106445760405163118cdaa760e01b8152336004820152602401610523565b60025460ff16156106445760405163d93c066560e01b815260040160405180910390fd5b610e2a610f2b565b6002805460ff191690557f5db9ee0a495bf2e6ff9c91a7834c1ba4fdd244a5e8aa4e537bd38aeae4b073aa335b6040516001600160a01b03909116815260200160405180910390a1565b600260015403610e9757604051633ee5aeb560e01b815260040160405180910390fd5b6002600155565b600080546001600160a01b038381166001600160a01b0319831681178455604051919092169283917f8be0079c531659141344cd1fd0a4f28419497f9722a3daafe3b4186f6b6457e09190a35050565b610ef6610dfe565b6002805460ff191660011790557f62e78cea01bee320cd4e420270b5ea74000d11b0c9f74754ebdbfc544b05a258610e573390565b60025460ff1661064457604051638dfc202b60e01b815260040160405180910390fd5b80356001600160a01b0381168114610f6557600080fd5b919050565b60008060408385031215610f7d57600080fd5b610f8683610f4e565b946020939093013593505050565b600060208284031215610fa657600080fd5b610faf82610f4e565b9392505050565b600060208284031215610fc857600080fd5b5035919050565b60008083601f840112610fe157600080fd5b50813567ffffffffffffffff811115610ff957600080fd5b6020830191508360208260051b850101111561101457600080fd5b9250929050565b6000806000806040858703121561103157600080fd5b843567ffffffffffffffff8082111561104957600080fd5b61105588838901610fcf565b9096509450602087013591508082111561106e57600080fd5b5061107b87828801610fcf565b95989497509550505050565b634e487b7160e01b600052601160045260246000fd5b818103818111156110b0576110b0611087565b92915050565b808201808211156110b0576110b0611087565b602080825260149082015273496e73756666696369656e742062616c616e636560601b604082015260600190565b634e487b7160e01b600052603260045260246000fd5b60006001820161111f5761111f611087565b506001019056fea2646970667358221220167cded451dd39d861d73f64e006752fab72afeabedacd7499f14a209fd6bd7864736f6c63430008140033",
  "linkReferences": {},
  "deployedLinkReferences": {}
}