{
  "_format": "hh-sol-artifact-1",
  "contractName": "FeeCollector",
  "sourceName": "src/FeeCollector.sol",
  "abi": [
    {
      "inputs": [
        {
          "internalType": "address",
          "name": "_pilotToken",
          "type": "address"
        },
        {
          "internalType": "address",
          "name": "_treasury",
          "type": "address"
        },
        {
          "internalType": "address",
          "name": "_dexRouter",
          "type": "address"
        },
        {
          "internalType": "address",
          "name": "_wbnb",
          "type": "address"
        }
      ],
      "stateMutability": "nonpayable",
      "type": "constructor"
    },
    {
      "inputs": [
        {
          "internalType": "address",
          "name": "owner",
          "type": "address"
        }
      ],
      "name": "OwnableInvalidOwner",
      "type": "error"
    },
    {
      "inputs": [
        {
          "internalType": "address",
          "name": "account",
          "type": "address"
        }
      ],
      "name": "OwnableUnauthorizedAccount",
      "type": "error"
    },
    {
      "inputs": [],
      "name": "ReentrancyGuardReentrantCall",
      "type": "error"
    },
    {
      "inputs": [
        {
          "internalType": "address",
          "name": "token",
          "type": "address"
        }
      ],
      "name": "SafeERC20FailedOperation",
      "type": "error"
    },
    {
      "anonymous": false,
      "inputs": [
        {
          "indexed": true,
          "internalType": "address",
          "name": "token",
          "type": "address"
        },
        {
          "indexed": false,
          "internalType": "uint256",
          "name": "amount",
          "type": "uint256"
        }
      ],
      "name": "FeesCollected",
      "type": "event"
    },
    {
      "anonymous": false,
      "inputs": [
        {
          "indexed": false,
          "internalType": "uint256",
          "name": "burnAmount",
          "type": "uint256"
        },
        {
          "indexed": false,
          "internalType": "uint256",
          "name": "treasuryAmount",
          "type": "uint256"
        }
      ],
      "name": "FeesDistributed",
      "type": "event"
    },
    {
      "anonymous": false,
      "inputs": [
        {
          "indexed": true,
          "internalType": "address",
          "name": "previousOwner",
          "type": "address"
        },
        {
          "indexed": true,
          "internalType": "address",
          "name": "newOwner",
          "type": "address"
        }
      ],
      "name": "OwnershipTransferred",
      "type": "event"
    },
    {
      "anonymous": false,
      "inputs": [
        {
          "indexed": false,
          "internalType": "uint256",
          "name": "bnbSpent",
          "type": "uint256"
        },
        {
          "indexed": false,
          "internalType": "uint256",
          "name": "pilotBurned",
          "type": "uint256"
        }
      ],
      "name": "PilotBurned",
      "type": "event"
    },
    {
      "inputs": [],
      "name": "BURN_PERCENT",
      "outputs": [
        {
          "internalType": "uint256",
          "name": "",
          "type": "uint256"
        }
      ],
      "stateMutability": "view",
      "type": "function"
    },
    {
      "inputs": [],
      "name": "TREASURY_PERCENT",
      "outputs": [
        {
          "internalType": "uint256",
          "name": "",
          "type": "uint256"
        }
      ],
      "stateMutability": "view",
      "type": "function"
    },
    {
      "inputs": [
        {
          "internalType": "address",
          "name": "token",
          "type": "address"
        }
      ],
      "name": "collectTokenFees",
      "outputs": [],
      "stateMutability": "nonpayable",
      "type": "function"
    },
    {
      "inputs": [
        {
          "internalType": "address",
          "name": "token",
          "type": "address"
        },
        {
          "internalType": "uint256",
          "name": "minBnbOut",
          "type": "uint256"
        }
      ],
      "name": "convertTokenToBnb",
      "outputs": [],
      "stateMutability": "nonpayable",
      "type": "function"
    },
    {
      "inputs": [],
      "name": "dexRouter",
      "outputs": [
        {
          "internalType": "address",
          "name": "",
          "type": "address"
        }
      ],
      "stateMutability": "view",
      "type": "function"
    },
    {
      "inputs": [],
      "name": "distributeFees",
      "outputs": [],
      "stateMutability": "nonpayable",
      "type": "function"
    },
    {
      "inputs": [
        {
          "internalType": "address",
          "name": "token",
          "type": "address"
        },
        {
          "internalType": "uint256",
          "name": "amount",
          "type": "uint256"
        }
      ],
      "name": "emergencyWithdraw",
      "outputs": [],
      "stateMutability": "nonpayable",
      "type": "function"
    },
    {
      "inputs": [],
      "name": "owner",
      "outputs": [
        {
          "internalType": "address",
          "name": "",
          "type": "address"
        }
      ],
      "stateMutability": "view",
      "type": "function"
    },
    {
      "inputs": [],
      "name": "pilotToken",
      "outputs": [
        {
          "internalType": "contract IERC20",
          "name": "",
          "type": "address"
        }
      ],
      "stateMutability": "view",
      "type": "function"
    },
    {
      "inputs": [],
      "name": "renounceOwnership",
      "outputs": [],
      "stateMutability": "nonpayable",
      "type": "function"
    },
    {
      "inputs": [
        {
          "internalType": "address",
          "name": "_dexRouter",
          "type": "address"
        }
      ],
      "name": "setDexRouter",
      "outputs": [],
      "stateMutability": "nonpayable",
      "type": "function"
    },
    {
      "inputs": [
        {
          "internalType": "address",
          "name": "_treasury",
          "type": "address"
        }
      ],
      "name": "setTreasury",
      "outputs": [],
      "stateMutability": "nonpayable",
      "type": "function"
    },
    {
      "inputs": [],
      "name": "totalFeesCollected",
      "outputs": [
        {
          "internalType": "uint256",
          "name": "",
          "type": "uint256"
        }
      ],
      "stateMutability": "view",
      "type": "function"
    },
    {
      "inputs": [],
      "name": "totalPilotBurned",
      "outputs": [
        {
          "internalType": "uint256",
          "name": "",
          "type": "uint256"
        }
      ],
      "stateMutability": "view",
      "type": "function"
    },
    {
      "inputs": [
        {
          "internalType": "address",
          "name": "newOwner",
          "type": "address"
        }
      ],
      "name": "transferOwnership",
      "outputs": [],
      "stateMutability": "nonpayable",
      "type": "function"
    },
    {
      "inputs": [],
      "name": "treasury",
      "outputs": [
        {
          "internalType": "address",
          "name": "",
          "type": "address"
        }
      ],
      "stateMutability": "view",
      "type": "function"
    },
    {
      "inputs": [],
      "name": "wbnb",
      "outputs": [
        {
          "internalType": "address",
          "name": "",
          "type": "address"
        }
      ],
      "stateMutability": "view",
      "type": "function"
    },
    {
      "stateMutability": "payable",
      "type": "receive"
    }
  ],
  "bytecode": "0x60a06040523480156200001157600080fd5b50604051620014a4380380620014a48339810160408190526200003491620001d1565b33806200005c57604051631e4fbdf760e01b8152600060048201526024015b60405180910390fd5b620000678162000164565b50600180556001600160a01b038416620000c45760405162461bcd60e51b815260206004820152601560248201527f496e76616c69642050494c4f5420616464726573730000000000000000000000604482015260640162000053565b6001600160a01b0383166200011c5760405162461bcd60e51b815260206004820152601860248201527f496e76616c696420747265617375727920616464726573730000000000000000604482015260640162000053565b6001600160a01b03938416608052600280549385166001600160a01b03199485161790556003805492851692841692909217909155600480549190931691161790556200022e565b600080546001600160a01b038381166001600160a01b0319831681178455604051919092169283917f8be0079c531659141344cd1fd0a4f28419497f9722a3daafe3b4186f6b6457e09190a35050565b80516001600160a01b0381168114620001cc57600080fd5b919050565b60008060008060808587031215620001e857600080fd5b620001f385620001b4565b93506200020360208601620001b4565b92506200021360408601620001b4565b91506200022360608601620001b4565b905092959194509250565b6080516112376200026d600039600081816102100152818161048d01528181610c7e01528181610ce501528181610de60152610e7101526112376000f3fe6080604052600436106101025760003560e01c806383d5e726116100955780639c986764116100645780639c986764146102f0578063bb57ad2014610305578063f0f442601461031a578063f2fde38b1461033a578063f72f863b1461035a57600080fd5b806383d5e7261461027d5780638d72647e146102925780638da5cb5b146102b257806395ccea67146102d057600080fd5b806339c3b99c116100d157806339c3b99c146101fe57806360c6d8ae1461023257806361d027b314610248578063715018a61461026857600080fd5b806307586e921461015b5780630758d9241461017d5780630c4b1396146101ba5780632b9fcfd0146101da57600080fd5b366101565734600560008282546101199190611056565b90915550506040513481526000907f9dc46f23cfb5ddcad0ae7ea2be38d47fec07bb9382ec7e564efc69e036dd66ce9060200160405180910390a2005b600080fd5b34801561016757600080fd5b5061017b610176366004611085565b61037a565b005b34801561018957600080fd5b5060035461019d906001600160a01b031681565b6040516001600160a01b0390911681526020015b60405180910390f35b3480156101c657600080fd5b5061017b6101d53660046110a7565b610435565b3480156101e657600080fd5b506101f060065481565b6040519081526020016101b1565b34801561020a57600080fd5b5061019d7f000000000000000000000000000000000000000000000000000000000000000081565b34801561023e57600080fd5b506101f060055481565b34801561025457600080fd5b5060025461019d906001600160a01b031681565b34801561027457600080fd5b5061017b610753565b34801561028957600080fd5b506101f0605581565b34801561029e57600080fd5b5060045461019d906001600160a01b031681565b3480156102be57600080fd5b506000546001600160a01b031661019d565b3480156102dc57600080fd5b5061017b6102eb3660046110a7565b610767565b3480156102fc57600080fd5b506101f0600f81565b34801561031157600080fd5b5061017b610820565b34801561032657600080fd5b5061017b610335366004611085565b6109ab565b34801561034657600080fd5b5061017b610355366004611085565b610a1d565b34801561036657600080fd5b5061017b610375366004611085565b610a5b565b6040516370a0823160e01b81523060048201526000906001600160a01b038316906370a0823190602401602060405180830381865afa1580156103c1573d6000803e3d6000fd5b505050506040513d601f19601f820116820180604052508101906103e591906110d1565b9050801561043157816001600160a01b03167f9dc46f23cfb5ddcad0ae7ea2be38d47fec07bb9382ec7e564efc69e036dd66ce8260405161042891815260200190565b60405180910390a25b5050565b61043d610a85565b6001600160a01b03821661048b5760405162461bcd60e51b815260206004820152601060248201526f55736520424e42206469726563746c7960801b60448201526064015b60405180910390fd5b7f00000000000000000000000000000000000000000000000000000000000000006001600160a01b0316826001600160a01b0316036105035760405162461bcd60e51b815260206004820152601460248201527310d85b9b9bdd0818dbdb9d995c9d0814125313d560621b6044820152606401610482565b6003546001600160a01b03166105505760405162461bcd60e51b8152602060048201526012602482015271111156081c9bdd5d195c881b9bdd081cd95d60721b6044820152606401610482565b6040516370a0823160e01b81523060048201526000906001600160a01b038416906370a0823190602401602060405180830381865afa158015610597573d6000803e3d6000fd5b505050506040513d601f19601f820116820180604052508101906105bb91906110d1565b9050600081116106045760405162461bcd60e51b8152602060048201526014602482015273139bc81d1bdad95b9cc81d1bc818dbdb9d995c9d60621b6044820152606401610482565b60035461061e906001600160a01b03858116911683610aaf565b6040805160028082526060820183526000926020830190803683370190505090508381600081518110610653576106536110ea565b6001600160a01b039283166020918202929092010152600454825191169082906001908110610684576106846110ea565b6001600160a01b0392831660209182029290920101526003541663791ac947838584306106b34261012c611056565b6040518663ffffffff1660e01b81526004016106d3959493929190611144565b600060405180830381600087803b1580156106ed57600080fd5b505af1158015610701573d6000803e3d6000fd5b50505050836001600160a01b03167f9dc46f23cfb5ddcad0ae7ea2be38d47fec07bb9382ec7e564efc69e036dd66ce8360405161074091815260200190565b60405180910390a2505061043160018055565b61075b610b3f565b6107656000610b6c565b565b61076f610b3f565b6001600160a01b03821661080c57604051600090339083908381818185875af1925050503d80600081146107bf576040519150601f19603f3d011682016040523d82523d6000602084013e6107c4565b606091505b50509050806108075760405162461bcd60e51b815260206004820152600f60248201526e151c985b9cd9995c8819985a5b1959608a1b6044820152606401610482565b505050565b6104316001600160a01b0383163383610bbc565b610828610a85565b478061086e5760405162461bcd60e51b81526020600482015260156024820152744e6f206665657320746f206469737472696275746560581b6044820152606401610482565b6000606461087d600f84611180565b6108879190611197565b9050600061089582846111b9565b6002546040519192506000916001600160a01b039091169083908381818185875af1925050503d80600081146108e7576040519150601f19603f3d011682016040523d82523d6000602084013e6108ec565b606091505b505090508061093d5760405162461bcd60e51b815260206004820152601860248201527f5472656173757279207472616e73666572206661696c656400000000000000006044820152606401610482565b60008311801561095757506003546001600160a01b031615155b156109655761096583610c1b565b60408051848152602081018490527f771d362663b46bd788cd13fc183c9432449a2be6bcb81051bfeb484afd9c5dd8910160405180910390a15050505061076560018055565b6109b3610b3f565b6001600160a01b0381166109fb5760405162461bcd60e51b815260206004820152600f60248201526e496e76616c6964206164647265737360881b6044820152606401610482565b600280546001600160a01b0319166001600160a01b0392909216919091179055565b610a25610b3f565b6001600160a01b038116610a4f57604051631e4fbdf760e01b815260006004820152602401610482565b610a5881610b6c565b50565b610a63610b3f565b600380546001600160a01b0319166001600160a01b0392909216919091179055565b600260015403610aa857604051633ee5aeb560e01b815260040160405180910390fd5b6002600155565b604051636eb1769f60e11b81523060048201526001600160a01b0383811660248301526000919085169063dd62ed3e90604401602060405180830381865afa158015610aff573d6000803e3d6000fd5b505050506040513d601f19601f82011682018060405250810190610b2391906110d1565b9050610b398484610b348585611056565b610ef2565b50505050565b6000546001600160a01b031633146107655760405163118cdaa760e01b8152336004820152602401610482565b600080546001600160a01b038381166001600160a01b0319831681178455604051919092169283917f8be0079c531659141344cd1fd0a4f28419497f9722a3daafe3b4186f6b6457e09190a35050565b6040516001600160a01b0383811660248301526044820183905261080791859182169063a9059cbb906064015b604051602081830303815290604052915060e01b6020820180516001600160e01b038381831617835250505050610f7e565b604080516002808252606082018352600092602083019080368337505060045482519293506001600160a01b031691839150600090610c5c57610c5c6110ea565b60200260200101906001600160a01b031690816001600160a01b0316815250507f000000000000000000000000000000000000000000000000000000000000000081600181518110610cb057610cb06110ea565b6001600160a01b0392831660209182029290920101526003546040516370a0823160e01b8152306004820152908216916000917f0000000000000000000000000000000000000000000000000000000000000000909116906370a0823190602401602060405180830381865afa158015610d2e573d6000803e3d6000fd5b505050506040513d601f19601f82011682018060405250810190610d5291906110d1565b90506001600160a01b03821663b6f9de958560008630610d744261012c611056565b6040518663ffffffff1660e01b8152600401610d9394939291906111cc565b6000604051808303818588803b158015610dac57600080fd5b505af1158015610dc0573d6000803e3d6000fd5b50506040516370a0823160e01b8152306004820152600093508492506001600160a01b037f00000000000000000000000000000000000000000000000000000000000000001691506370a0823190602401602060405180830381865afa158015610e2e573d6000803e3d6000fd5b505050506040513d601f19601f82011682018060405250810190610e5291906110d1565b610e5c91906111b9565b90508015610eeb57610e9a6001600160a01b037f00000000000000000000000000000000000000000000000000000000000000001661dead83610bbc565b8060066000828254610eac9190611056565b909155505060408051868152602081018390527fa35443c918552547ba2ae4a6d6544784ddede6b26b3366d112527e973f60f90a910160405180910390a15b5050505050565b604080516001600160a01b038416602482015260448082018490528251808303909101815260649091019091526020810180516001600160e01b031663095ea7b360e01b179052610f438482610fef565b610b39576040516001600160a01b03848116602483015260006044830152610f7891869182169063095ea7b390606401610be9565b610b3984825b600080602060008451602086016000885af180610fa1576040513d6000823e3d81fd5b50506000513d91508115610fb9578060011415610fc6565b6001600160a01b0384163b155b15610b3957604051635274afe760e01b81526001600160a01b0385166004820152602401610482565b6000806000806020600086516020880160008a5af192503d91506000519050828015611034575081156110255780600114611034565b6000866001600160a01b03163b115b93505050505b92915050565b634e487b7160e01b600052601160045260246000fd5b8082018082111561103a5761103a611040565b80356001600160a01b038116811461108057600080fd5b919050565b60006020828403121561109757600080fd5b6110a082611069565b9392505050565b600080604083850312156110ba57600080fd5b6110c383611069565b946020939093013593505050565b6000602082840312156110e357600080fd5b5051919050565b634e487b7160e01b600052603260045260246000fd5b600081518084526020808501945080840160005b838110156111395781516001600160a01b031687529582019590820190600101611114565b509495945050505050565b85815284602082015260a06040820152600061116360a0830186611100565b6001600160a01b0394909416606083015250608001529392505050565b808202811582820484141761103a5761103a611040565b6000826111b457634e487b7160e01b600052601260045260246000fd5b500490565b8181038181111561103a5761103a611040565b8481526080602082015260006111e56080830186611100565b6001600160a01b0394909416604083015250606001529291505056fea26469706673582212203a437adce5d93734cf0076e8cd02e591f3040268bd54644088111304b31c88c264736f6c63430008140033",
  "linkReferences": {},
  "deployedLinkReferences": {}
}