{
  "_format": "hh-sol-artifact-1",
  "contractName": "FeeCollector",
  "sourceName": "src/FeeCollector.sol",
  "abi": [
    {
      "inputs": [
        {
          "internalType": "address",
          "name": "_pilotToken",
          "type": "address"
        },
        {
          "internalType": "address",
          "name": "_treasury",
          "type": "address"
        },
        {
          "internalType": "address",
          "name": "_referralPool",
          "type": "address"
        },
        {
          "internalType": "address",
          "name": "_dexRouter",
          "type": "address"
        },
        {
          "internalType": "address",
          "name": "_wbnb",
          "type": "address"
        }
      ],
      "stateMutability": "nonpayable",
      "type": "constructor"
    },
    {
      "inputs": [
        {
          "internalType": "address",
          "name": "owner",
          "type": "address"
        }
      ],
      "name": "OwnableInvalidOwner",
      "type": "error"
    },
    {
      "inputs": [
        {
          "internalType": "address",
          "name": "account",
          "type": "address"
        }
      ],
      "name": "OwnableUnauthorizedAccount",
      "type": "error"
    },
    {
      "inputs": [],
      "name": "ReentrancyGuardReentrantCall",
      "type": "error"
    },
    {
      "inputs": [
        {
          "internalType": "address",
          "name": "token",
          "type": "address"
        }
      ],
      "name": "SafeERC20FailedOperation",
      "type": "error"
    },
    {
      "anonymous": false,
      "inputs": [
        {
          "indexed": true,
          "internalType": "address",
          "name": "token",
          "type": "address"
        },
        {
          "indexed": false,
          "internalType": "uint256",
          "name": "amount",
          "type": "uint256"
        },
        {
          "indexed": true,
          "internalType": "address",
          "name": "to",
          "type": "address"
        }
      ],
      "name": "EmergencyWithdraw",
      "type": "event"
    },
    {
      "anonymous": false,
      "inputs": [
        {
          "indexed": true,
          "internalType": "address",
          "name": "token",
          "type": "address"
        },
        {
          "indexed": false,
          "internalType": "uint256",
          "name": "amount",
          "type": "uint256"
        }
      ],
      "name": "FeesCollected",
      "type": "event"
    },
    {
      "anonymous": false,
      "inputs": [
        {
          "indexed": false,
          "internalType": "uint256",
          "name": "burnAmount",
          "type": "uint256"
        },
        {
          "indexed": false,
          "internalType": "uint256",
          "name": "treasuryAmount",
          "type": "uint256"
        },
        {
          "indexed": false,
          "internalType": "uint256",
          "name": "referralAmount",
          "type": "uint256"
        }
      ],
      "name": "FeesDistributed",
      "type": "event"
    },
    {
      "anonymous": false,
      "inputs": [
        {
          "indexed": true,
          "internalType": "address",
          "name": "previousOwner",
          "type": "address"
        },
        {
          "indexed": true,
          "internalType": "address",
          "name": "newOwner",
          "type": "address"
        }
      ],
      "name": "OwnershipTransferred",
      "type": "event"
    },
    {
      "anonymous": false,
      "inputs": [
        {
          "indexed": false,
          "internalType": "uint256",
          "name": "bnbSpent",
          "type": "uint256"
        },
        {
          "indexed": false,
          "internalType": "uint256",
          "name": "pilotBurned",
          "type": "uint256"
        }
      ],
      "name": "PilotBurned",
      "type": "event"
    },
    {
      "inputs": [],
      "name": "BURN_PERCENT",
      "outputs": [
        {
          "internalType": "uint256",
          "name": "",
          "type": "uint256"
        }
      ],
      "stateMutability": "view",
      "type": "function"
    },
    {
      "inputs": [],
      "name": "REFERRAL_PERCENT",
      "outputs": [
        {
          "internalType": "uint256",
          "name": "",
          "type": "uint256"
        }
      ],
      "stateMutability": "view",
      "type": "function"
    },
    {
      "inputs": [],
      "name": "TREASURY_PERCENT",
      "outputs": [
        {
          "internalType": "uint256",
          "name": "",
          "type": "uint256"
        }
      ],
      "stateMutability": "view",
      "type": "function"
    },
    {
      "inputs": [
        {
          "internalType": "address",
          "name": "token",
          "type": "address"
        }
      ],
      "name": "collectTokenFees",
      "outputs": [],
      "stateMutability": "nonpayable",
      "type": "function"
    },
    {
      "inputs": [
        {
          "internalType": "address",
          "name": "token",
          "type": "address"
        },
        {
          "internalType": "uint256",
          "name": "minBnbOut",
          "type": "uint256"
        }
      ],
      "name": "convertTokenToBnb",
      "outputs": [],
      "stateMutability": "nonpayable",
      "type": "function"
    },
    {
      "inputs": [],
      "name": "dexRouter",
      "outputs": [
        {
          "internalType": "address",
          "name": "",
          "type": "address"
        }
      ],
      "stateMutability": "view",
      "type": "function"
    },
    {
      "inputs": [],
      "name": "distributeFees",
      "outputs": [],
      "stateMutability": "nonpayable",
      "type": "function"
    },
    {
      "inputs": [
        {
          "internalType": "address",
          "name": "token",
          "type": "address"
        },
        {
          "internalType": "uint256",
          "name": "amount",
          "type": "uint256"
        }
      ],
      "name": "emergencyWithdraw",
      "outputs": [],
      "stateMutability": "nonpayable",
      "type": "function"
    },
    {
      "inputs": [],
      "name": "owner",
      "outputs": [
        {
          "internalType": "address",
          "name": "",
          "type": "address"
        }
      ],
      "stateMutability": "view",
      "type": "function"
    },
    {
      "inputs": [],
      "name": "pilotToken",
      "outputs": [
        {
          "internalType": "contract IERC20",
          "name": "",
          "type": "address"
        }
      ],
      "stateMutability": "view",
      "type": "function"
    },
    {
      "inputs": [],
      "name": "referralPool",
      "outputs": [
        {
          "internalType": "address",
          "name": "",
          "type": "address"
        }
      ],
      "stateMutability": "view",
      "type": "function"
    },
    {
      "inputs": [],
      "name": "renounceOwnership",
      "outputs": [],
      "stateMutability": "nonpayable",
      "type": "function"
    },
    {
      "inputs": [
        {
          "internalType": "address",
          "name": "_dexRouter",
          "type": "address"
        }
      ],
      "name": "setDexRouter",
      "outputs": [],
      "stateMutability": "nonpayable",
      "type": "function"
    },
    {
      "inputs": [
        {
          "internalType": "address",
          "name": "_referralPool",
          "type": "address"
        }
      ],
      "name": "setReferralPool",
      "outputs": [],
      "stateMutability": "nonpayable",
      "type": "function"
    },
    {
      "inputs": [
        {
          "internalType": "address",
          "name": "_treasury",
          "type": "address"
        }
      ],
      "name": "setTreasury",
      "outputs": [],
      "stateMutability": "nonpayable",
      "type": "function"
    },
    {
      "inputs": [],
      "name": "totalFeesCollected",
      "outputs": [
        {
          "internalType": "uint256",
          "name": "",
          "type": "uint256"
        }
      ],
      "stateMutability": "view",
      "type": "function"
    },
    {
      "inputs": [],
      "name": "totalPilotBurned",
      "outputs": [
        {
          "internalType": "uint256",
          "name": "",
          "type": "uint256"
        }
      ],
      "stateMutability": "view",
      "type": "function"
    },
    {
      "inputs": [
        {
          "internalType": "address",
          "name": "newOwner",
          "type": "address"
        }
      ],
      "name": "transferOwnership",
      "outputs": [],
      "stateMutability": "nonpayable",
      "type": "function"
    },
    {
      "inputs": [],
      "name": "treasury",
      "outputs": [
        {
          "internalType": "address",
          "name": "",
          "type": "address"
        }
      ],
      "stateMutability": "view",
      "type": "function"
    },
    {
      "inputs": [],
      "name": "wbnb",
      "outputs": [
        {
          "internalType": "address",
          "name": "",
          "type": "address"
        }
      ],
      "stateMutability": "view",
      "type": "function"
    },
    {
      "stateMutability": "payable",
      "type": "receive"
    }
  ],
  "bytecode": "0x60a06040523480156200001157600080fd5b506040516200172638038062001726833981016040819052620000349162000239565b33806200005c57604051631e4fbdf760e01b8152600060048201526024015b60405180910390fd5b6200006781620001cc565b50600180556001600160a01b038516620000c45760405162461bcd60e51b815260206004820152601560248201527f496e76616c69642050494c4f5420616464726573730000000000000000000000604482015260640162000053565b6001600160a01b0384166200011c5760405162461bcd60e51b815260206004820152601860248201527f496e76616c696420747265617375727920616464726573730000000000000000604482015260640162000053565b6001600160a01b038316620001745760405162461bcd60e51b815260206004820152601d60248201527f496e76616c696420726566657272616c20706f6f6c2061646472657373000000604482015260640162000053565b6001600160a01b03948516608052600280549486166001600160a01b031995861617905560038054938616938516939093179092556004805491851691841691909117905560058054919093169116179055620002a9565b600080546001600160a01b038381166001600160a01b0319831681178455604051919092169283917f8be0079c531659141344cd1fd0a4f28419497f9722a3daafe3b4186f6b6457e09190a35050565b80516001600160a01b03811681146200023457600080fd5b919050565b600080600080600060a086880312156200025257600080fd5b6200025d866200021c565b94506200026d602087016200021c565b93506200027d604087016200021c565b92506200028d606087016200021c565b91506200029d608087016200021c565b90509295509295909350565b60805161143e620002e8600039600081816102860152818161057501528181610e8301528181610eec01528181610fed0152611078015261143e6000f3fe6080604052600436106101235760003560e01c8063715018a6116100a05780639c986764116100645780639c98676414610366578063bb57ad201461037b578063f0f4426014610390578063f2fde38b146103b0578063f72f863b146103d057600080fd5b8063715018a6146102de57806383d5e726146102f35780638d72647e146103085780638da5cb5b1461032857806395ccea671461034657600080fd5b80632b9fcfd0116100e75780632b9fcfd01461023b57806333a8915a1461025f57806339c3b99c1461027457806360c6d8ae146102a857806361d027b3146102be57600080fd5b8063050ae6601461017c57806307586e921461019e5780630758d924146101be5780630c4b1396146101fb5780631e4df9381461021b57600080fd5b3661017757346006600082825461013a919061125d565b90915550506040513481526000907f9dc46f23cfb5ddcad0ae7ea2be38d47fec07bb9382ec7e564efc69e036dd66ce9060200160405180910390a2005b600080fd5b34801561018857600080fd5b5061019c61019736600461128c565b6103f0565b005b3480156101aa57600080fd5b5061019c6101b936600461128c565b610467565b3480156101ca57600080fd5b506004546101de906001600160a01b031681565b6040516001600160a01b0390911681526020015b60405180910390f35b34801561020757600080fd5b5061019c6102163660046112ae565b610522565b34801561022757600080fd5b506003546101de906001600160a01b031681565b34801561024757600080fd5b5061025160075481565b6040519081526020016101f2565b34801561026b57600080fd5b50610251600581565b34801561028057600080fd5b506101de7f000000000000000000000000000000000000000000000000000000000000000081565b3480156102b457600080fd5b5061025160065481565b3480156102ca57600080fd5b506002546101de906001600160a01b031681565b3480156102ea57600080fd5b5061019c61083b565b3480156102ff57600080fd5b50610251605081565b34801561031457600080fd5b506005546101de906001600160a01b031681565b34801561033457600080fd5b506000546001600160a01b03166101de565b34801561035257600080fd5b5061019c6103613660046112ae565b61084f565b34801561037257600080fd5b50610251600f81565b34801561038757600080fd5b5061019c61094d565b34801561039c57600080fd5b5061019c6103ab36600461128c565b610bab565b3480156103bc57600080fd5b5061019c6103cb36600461128c565b610c1d565b3480156103dc57600080fd5b5061019c6103eb36600461128c565b610c5b565b6103f8610c85565b6001600160a01b0381166104455760405162461bcd60e51b815260206004820152600f60248201526e496e76616c6964206164647265737360881b60448201526064015b60405180910390fd5b600380546001600160a01b0319166001600160a01b0392909216919091179055565b6040516370a0823160e01b81523060048201526000906001600160a01b038316906370a0823190602401602060405180830381865afa1580156104ae573d6000803e3d6000fd5b505050506040513d601f19601f820116820180604052508101906104d291906112d8565b9050801561051e57816001600160a01b03167f9dc46f23cfb5ddcad0ae7ea2be38d47fec07bb9382ec7e564efc69e036dd66ce8260405161051591815260200190565b60405180910390a25b5050565b61052a610cb2565b6001600160a01b0382166105735760405162461bcd60e51b815260206004820152601060248201526f55736520424e42206469726563746c7960801b604482015260640161043c565b7f00000000000000000000000000000000000000000000000000000000000000006001600160a01b0316826001600160a01b0316036105eb5760405162461bcd60e51b815260206004820152601460248201527310d85b9b9bdd0818dbdb9d995c9d0814125313d560621b604482015260640161043c565b6004546001600160a01b03166106385760405162461bcd60e51b8152602060048201526012602482015271111156081c9bdd5d195c881b9bdd081cd95d60721b604482015260640161043c565b6040516370a0823160e01b81523060048201526000906001600160a01b038416906370a0823190602401602060405180830381865afa15801561067f573d6000803e3d6000fd5b505050506040513d601f19601f820116820180604052508101906106a391906112d8565b9050600081116106ec5760405162461bcd60e51b8152602060048201526014602482015273139bc81d1bdad95b9cc81d1bc818dbdb9d995c9d60621b604482015260640161043c565b600454610706906001600160a01b03858116911683610cdc565b604080516002808252606082018352600092602083019080368337019050509050838160008151811061073b5761073b6112f1565b6001600160a01b03928316602091820292909201015260055482519116908290600190811061076c5761076c6112f1565b6001600160a01b0392831660209182029290920101526004541663791ac9478385843061079b4261012c61125d565b6040518663ffffffff1660e01b81526004016107bb95949392919061134b565b600060405180830381600087803b1580156107d557600080fd5b505af11580156107e9573d6000803e3d6000fd5b50505050836001600160a01b03167f9dc46f23cfb5ddcad0ae7ea2be38d47fec07bb9382ec7e564efc69e036dd66ce8360405161082891815260200190565b60405180910390a2505061051e60018055565b610843610c85565b61084d6000610d6c565b565b610857610c85565b6001600160a01b0382166108f557604051600090339083908381818185875af1925050503d80600081146108a7576040519150601f19603f3d011682016040523d82523d6000602084013e6108ac565b606091505b50509050806108ef5760405162461bcd60e51b815260206004820152600f60248201526e151c985b9cd9995c8819985a5b1959608a1b604482015260640161043c565b50610909565b6109096001600160a01b0383163383610dbc565b60405181815233906001600160a01b038416907faaeda929aa102e867049528ec7cd2499e3a2f8846e736ae7935f234dfbf500d99060200160405180910390a35050565b610955610cb2565b478061099b5760405162461bcd60e51b81526020600482015260156024820152744e6f206665657320746f206469737472696275746560581b604482015260640161043c565b600060646109aa600f84611387565b6109b4919061139e565b9050600060646109c5605085611387565b6109cf919061139e565b90506000816109de84866113c0565b6109e891906113c0565b6002546040519192506000916001600160a01b039091169084908381818185875af1925050503d8060008114610a3a576040519150601f19603f3d011682016040523d82523d6000602084013e610a3f565b606091505b5050905080610a905760405162461bcd60e51b815260206004820152601860248201527f5472656173757279207472616e73666572206661696c65640000000000000000604482015260640161043c565b6003546040516000916001600160a01b03169084908381818185875af1925050503d8060008114610add576040519150601f19603f3d011682016040523d82523d6000602084013e610ae2565b606091505b5050905080610b335760405162461bcd60e51b815260206004820152601860248201527f526566657272616c207472616e73666572206661696c65640000000000000000604482015260640161043c565b600085118015610b4d57506004546001600160a01b031615155b15610b5b57610b5b85610e20565b60408051868152602081018690529081018490527f312c5308f42848705a866c73dec11fd0783c2d64aac6a97e94467062ad3f40589060600160405180910390a150505050505061084d60018055565b610bb3610c85565b6001600160a01b038116610bfb5760405162461bcd60e51b815260206004820152600f60248201526e496e76616c6964206164647265737360881b604482015260640161043c565b600280546001600160a01b0319166001600160a01b0392909216919091179055565b610c25610c85565b6001600160a01b038116610c4f57604051631e4fbdf760e01b81526000600482015260240161043c565b610c5881610d6c565b50565b610c63610c85565b600480546001600160a01b0319166001600160a01b0392909216919091179055565b6000546001600160a01b0316331461084d5760405163118cdaa760e01b815233600482015260240161043c565b600260015403610cd557604051633ee5aeb560e01b815260040160405180910390fd5b6002600155565b604051636eb1769f60e11b81523060048201526001600160a01b0383811660248301526000919085169063dd62ed3e90604401602060405180830381865afa158015610d2c573d6000803e3d6000fd5b505050506040513d601f19601f82011682018060405250810190610d5091906112d8565b9050610d668484610d61858561125d565b6110f9565b50505050565b600080546001600160a01b038381166001600160a01b0319831681178455604051919092169283917f8be0079c531659141344cd1fd0a4f28419497f9722a3daafe3b4186f6b6457e09190a35050565b6040516001600160a01b03838116602483015260448201839052610e1b91859182169063a9059cbb906064015b604051602081830303815290604052915060e01b6020820180516001600160e01b038381831617835250505050611185565b505050565b604080516002808252606082018352600092602083019080368337505060055482519293506001600160a01b031691839150600090610e6157610e616112f1565b60200260200101906001600160a01b031690816001600160a01b0316815250507f000000000000000000000000000000000000000000000000000000000000000081600181518110610eb557610eb56112f1565b6001600160a01b039283166020918202929092010152600480546040516370a0823160e01b815230928101929092528216916000917f0000000000000000000000000000000000000000000000000000000000000000909116906370a0823190602401602060405180830381865afa158015610f35573d6000803e3d6000fd5b505050506040513d601f19601f82011682018060405250810190610f5991906112d8565b90506001600160a01b03821663b6f9de958560008630610f7b4261012c61125d565b6040518663ffffffff1660e01b8152600401610f9a94939291906113d3565b6000604051808303818588803b158015610fb357600080fd5b505af1158015610fc7573d6000803e3d6000fd5b50506040516370a0823160e01b8152306004820152600093508492506001600160a01b037f00000000000000000000000000000000000000000000000000000000000000001691506370a0823190602401602060405180830381865afa158015611035573d6000803e3d6000fd5b505050506040513d601f19601f8201168201806040525081019061105991906112d8565b61106391906113c0565b905080156110f2576110a16001600160a01b037f00000000000000000000000000000000000000000000000000000000000000001661dead83610dbc565b80600760008282546110b3919061125d565b909155505060408051868152602081018390527fa35443c918552547ba2ae4a6d6544784ddede6b26b3366d112527e973f60f90a910160405180910390a15b5050505050565b604080516001600160a01b038416602482015260448082018490528251808303909101815260649091019091526020810180516001600160e01b031663095ea7b360e01b17905261114a84826111f6565b610d66576040516001600160a01b0384811660248301526000604483015261117f91869182169063095ea7b390606401610de9565b610d6684825b600080602060008451602086016000885af1806111a8576040513d6000823e3d81fd5b50506000513d915081156111c05780600114156111cd565b6001600160a01b0384163b155b15610d6657604051635274afe760e01b81526001600160a01b038516600482015260240161043c565b6000806000806020600086516020880160008a5af192503d9150600051905082801561123b5750811561122c578060011461123b565b6000866001600160a01b03163b115b93505050505b92915050565b634e487b7160e01b600052601160045260246000fd5b8082018082111561124157611241611247565b80356001600160a01b038116811461128757600080fd5b919050565b60006020828403121561129e57600080fd5b6112a782611270565b9392505050565b600080604083850312156112c157600080fd5b6112ca83611270565b946020939093013593505050565b6000602082840312156112ea57600080fd5b5051919050565b634e487b7160e01b600052603260045260246000fd5b600081518084526020808501945080840160005b838110156113405781516001600160a01b03168752958201959082019060010161131b565b509495945050505050565b85815284602082015260a06040820152600061136a60a0830186611307565b6001600160a01b0394909416606083015250608001529392505050565b808202811582820484141761124157611241611247565b6000826113bb57634e487b7160e01b600052601260045260246000fd5b500490565b8181038181111561124157611241611247565b8481526080602082015260006113ec6080830186611307565b6001600160a01b0394909416604083015250606001529291505056fea2646970667358221220ace0341287aa48517a2b0510a21f97c16b5cd5f1af3c3e4f1549d0c22f432f8264736f6c63430008140033",
  "linkReferences": {},
  "deployedLinkReferences": {}
}