{"src/ReferralRewards.sol":{"ReferralRewards":{"abi":[{"inputs":[{"internalType":"address","name":"_pilotToken","type":"address"}],"stateMutability":"nonpayable","type":"constructor"},{"inputs":[],"name":"EnforcedPause","type":"error"},{"inputs":[],"name":"ExpectedPause","type":"error"},{"inputs":[{"internalType":"address","name":"owner","type":"address"}],"name":"OwnableInvalidOwner","type":"error"},{"inputs":[{"internalType":"address","name":"account","type":"address"}],"name":"OwnableUnauthorizedAccount","type":"error"},{"inputs":[],"name":"ReentrancyGuardReentrantCall","type":"error"},{"inputs":[{"internalType":"address","name":"token","type":"address"}],"name":"SafeERC20FailedOperation","type":"error"},{"anonymous":false,"inputs":[{"indexed":true,"internalType":"address","name":"distributor","type":"address"},{"indexed":false,"internalType":"bool","name":"authorized","type":"bool"}],"name":"DistributorUpdated","type":"event"},{"anonymous":false,"inputs":[{"indexed":true,"internalType":"address","name":"token","type":"address"},{"indexed":false,"internalType":"uint256","name":"amount","type":"uint256"},{"indexed":true,"internalType":"address","name":"to","type":"address"}],"name":"EmergencyWithdraw","type":"event"},{"anonymous":false,"inputs":[{"indexed":false,"internalType":"uint256","name":"oldMax","type":"uint256"},{"indexed":false,"internalType":"uint256","name":"newMax","type":"uint256"}],"name":"MaxRewardPerSwapUpdated","type":"event"},{"anonymous":false,"inputs":[{"indexed":false,"internalType":"uint256","name":"oldMin","type":"uint256"},{"indexed":false,"internalType":"uint256","name":"newMin","type":"uint256"}],"name":"MinSwapVolumeUpdated","type":"event"},{"anonymous":false,"inputs":[{"indexed":true,"internalType":"address","name":"previousOwner","type":"address"},{"indexed":true,"internalType":"address","name":"newOwner","type":"address"}],"name":"OwnershipTransferred","type":"event"},{"anonymous":false,"inputs":[{"indexed":false,"internalType":"address","name":"account","type":"address"}],"name":"Paused","type":"event"},{"anonymous":false,"inputs":[{"indexed":true,"internalType":"address","name":"referrer","type":"address"},{"indexed":false,"internalType":"bytes32","name":"codeHash","type":"bytes32"}],"name":"ReferralCodeCreated","type":"event"},{"anonymous":false,"inputs":[{"indexed":true,"internalType":"address","name":"referrer","type":"address"},{"indexed":true,"internalType":"address","name":"user","type":"address"},{"indexed":false,"internalType":"uint256","name":"swapVolumeUsd","type":"uint256"},{"indexed":false,"internalType":"uint256","name":"rewardAmount","type":"uint256"}],"name":"RewardAccrued","type":"event"},{"anonymous":false,"inputs":[{"indexed":false,"internalType":"uint256","name":"oldRate","type":"uint256"},{"indexed":false,"internalType":"uint256","name":"newRate","type":"uint256"}],"name":"RewardRateUpdated","type":"event"},{"anonymous":false,"inputs":[{"indexed":true,"internalType":"address","name":"referrer","type":"address"},{"indexed":false,"internalType":"uint256","name":"amount","type":"uint256"}],"name":"RewardsClaimed","type":"event"},{"anonymous":false,"inputs":[{"indexed":false,"internalType":"address","name":"account","type":"address"}],"name":"Unpaused","type":"event"},{"anonymous":false,"inputs":[{"indexed":true,"internalType":"address","name":"user","type":"address"},{"indexed":true,"internalType":"address","name":"referrer","type":"address"}],"name":"UserReferred","type":"event"},{"inputs":[],"name":"REFERRAL_ALLOCATION","outputs":[{"internalType":"uint256","name":"","type":"uint256"}],"stateMutability":"view","type":"function"},{"inputs":[{"internalType":"address","name":"user","type":"address"},{"internalType":"uint256","name":"swapVolumeUsd","type":"uint256"}],"name":"accrueReward","outputs":[],"stateMutability":"nonpayable","type":"function"},{"inputs":[],"name":"claimRewards","outputs":[],"stateMutability":"nonpayable","type":"function"},{"inputs":[{"internalType":"bytes32","name":"","type":"bytes32"}],"name":"codeToReferrer","outputs":[{"internalType":"address","name":"","type":"address"}],"stateMutability":"view","type":"function"},{"inputs":[{"internalType":"address","name":"","type":"address"}],"name":"distributors","outputs":[{"internalType":"bool","name":"","type":"bool"}],"stateMutability":"view","type":"function"},{"inputs":[{"internalType":"address","name":"token","type":"address"},{"internalType":"uint256","name":"amount","type":"uint256"}],"name":"emergencyWithdraw","outputs":[],"stateMutability":"nonpayable","type":"function"},{"inputs":[{"internalType":"string","name":"code","type":"string"}],"name":"getReferrerFromCode","outputs":[{"internalType":"address","name":"","type":"address"}],"stateMutability":"view","type":"function"},{"inputs":[{"internalType":"address","name":"referrer","type":"address"}],"name":"getReferrerStats","outputs":[{"internalType":"uint256","name":"pending","type":"uint256"},{"internalType":"uint256","name":"totalEarnedAmount","type":"uint256"},{"internalType":"uint256","name":"volumeReferred","type":"uint256"},{"internalType":"uint256","name":"usersReferred","type":"uint256"},{"internalType":"bytes32","name":"codeHash","type":"bytes32"}],"stateMutability":"view","type":"function"},{"inputs":[],"name":"getRemainingAllocation","outputs":[{"internalType":"uint256","name":"","type":"uint256"}],"stateMutability":"view","type":"function"},{"inputs":[{"internalType":"string","name":"code","type":"string"}],"name":"isCodeAvailable","outputs":[{"internalType":"bool","name":"","type":"bool"}],"stateMutability":"view","type":"function"},{"inputs":[{"internalType":"address","name":"user","type":"address"},{"internalType":"string","name":"code","type":"string"}],"name":"linkUserToReferrer","outputs":[],"stateMutability":"nonpayable","type":"function"},{"inputs":[],"name":"maxRewardPerSwap","outputs":[{"internalType":"uint256","name":"","type":"uint256"}],"stateMutability":"view","type":"function"},{"inputs":[],"name":"minSwapVolumeUsd","outputs":[{"internalType":"uint256","name":"","type":"uint256"}],"stateMutability":"view","type":"function"},{"inputs":[],"name":"owner","outputs":[{"internalType":"address","name":"","type":"address"}],"stateMutability":"view","type":"function"},{"inputs":[],"name":"pause","outputs":[],"stateMutability":"nonpayable","type":"function"},{"inputs":[],"name":"paused","outputs":[{"internalType":"bool","name":"","type":"bool"}],"stateMutability":"view","type":"function"},{"inputs":[{"internalType":"address","name":"","type":"address"}],"name":"pendingRewards","outputs":[{"internalType":"uint256","name":"","type":"uint256"}],"stateMutability":"view","type":"function"},{"inputs":[],"name":"pilotToken","outputs":[{"internalType":"contract IERC20","name":"","type":"address"}],"stateMutability":"view","type":"function"},{"inputs":[{"internalType":"address","name":"","type":"address"}],"name":"referralCount","outputs":[{"internalType":"uint256","name":"","type":"uint256"}],"stateMutability":"view","type":"function"},{"inputs":[{"internalType":"address","name":"","type":"address"}],"name":"referredVolume","outputs":[{"internalType":"uint256","name":"","type":"uint256"}],"stateMutability":"view","type":"function"},{"inputs":[{"internalType":"address","name":"","type":"address"}],"name":"referrerCodes","outputs":[{"internalType":"bytes32","name":"","type":"bytes32"}],"stateMutability":"view","type":"function"},{"inputs":[{"internalType":"string","name":"code","type":"string"}],"name":"registerReferralCode","outputs":[],"stateMutability":"nonpayable","type":"function"},{"inputs":[],"name":"renounceOwnership","outputs":[],"stateMutability":"nonpayable","type":"function"},{"inputs":[],"name":"rewardRatePerDollar","outputs":[{"internalType":"uint256","name":"","type":"uint256"}],"stateMutability":"view","type":"function"},{"inputs":[{"internalType":"address","name":"distributor","type":"address"},{"internalType":"bool","name":"authorized","type":"bool"}],"name":"setDistributor","outputs":[],"stateMutability":"nonpayable","type":"function"},{"inputs":[{"internalType":"uint256","name":"maxReward","type":"uint256"}],"name":"setMaxRewardPerSwap","outputs":[],"stateMutability":"nonpayable","type":"function"},{"inputs":[{"internalType":"uint256","name":"minVolumeUsd","type":"uint256"}],"name":"setMinSwapVolume","outputs":[],"stateMutability":"nonpayable","type":"function"},{"inputs":[{"internalType":"uint256","name":"newRatePerDollar","type":"uint256"}],"name":"setRewardRate","outputs":[],"stateMutability":"nonpayable","type":"function"},{"inputs":[{"internalType":"address","name":"","type":"address"}],"name":"totalEarned","outputs":[{"internalType":"uint256","name":"","type":"uint256"}],"stateMutability":"view","type":"function"},{"inputs":[],"name":"totalRewardsDistributed","outputs":[{"internalType":"uint256","name":"","type":"uint256"}],"stateMutability":"view","type":"function"},{"inputs":[{"internalType":"address","name":"newOwner","type":"address"}],"name":"transferOwnership","outputs":[],"stateMutability":"nonpayable","type":"function"},{"inputs":[],"name":"unpause","outputs":[],"stateMutability":"nonpayable","type":"function"},{"inputs":[{"internalType":"address","name":"","type":"address"}],"name":"userReferrer","outputs":[{"internalType":"address","name":"","type":"address"}],"stateMutability":"view","type":"function"}],"evm":{"bytecode":{"linkReferences":{},"object":"60a060405267016345785d8a0000600355678ac7230489e80000600455683635c9adc5dea0000060055534801561003557600080fd5b50604051620016693803806200166983398101604081905261005691610142565b338061007d57604051631e4fbdf760e01b8152600060048201526024015b60405180910390fd5b610086816100f2565b50600180556001600160a01b0381166100e15760405162461bcd60e51b815260206004820152601560248201527f496e76616c69642050494c4f54206164647265737300000000000000000000006044820152606401610074565b6001600160a01b0316608052610172565b600080546001600160a01b038381166001600160a01b0319831681178455604051919092169283917f8be0079c531659141344cd1fd0a4f28419497f9722a3daafe3b4186f6b6457e09190a35050565b60006020828403121561015457600080fd5b81516001600160a01b038116811461016b57600080fd5b9392505050565b6080516114cd6200019c600039600081816102b10152818161055c01526106e201526114cd6000f3fe608060405234801561001057600080fd5b50600436106101fb5760003560e01c80637e3961101161011a578063cc642784116100ad578063db74559b1161007c578063db74559b146104e2578063dcf0975814610502578063ee1725461461050b578063eec3387214610514578063f2fde38b1461052757600080fd5b8063cc6427841461047a578063d59ba0df1461049d578063d5ab6f50146104b0578063d882be1b146104d057600080fd5b80639e447fc6116100e95780639e447fc614610438578063b24f4b8d1461044b578063bd3453ab1461045e578063bdbc24f71461046757600080fd5b80637e396110146103925780638456cb591461040c5780638da5cb5b1461041457806395ccea671461042557600080fd5b80633f4ba83a11610192578063649aca4a11610161578063649aca4a1461032e578063715018a61461034e57806378c97de4146103565780637c3fcc381461036957600080fd5b80633f4ba83a146102d357806347c30cbd146102db57806359fb7752146103045780635c975abb1461031757600080fd5b806334421a0a116101ce57806334421a0a1461026f578063372500ab1461028f578063388bdb391461029957806339c3b99c146102ac57600080fd5b80630949fd3f1461020057806328b43f2d1461021b5780632e8de1d41461024657806331d7a2621461024f575b600080fd5b61020861053a565b6040519081526020015b60405180910390f35b61022e61022936600461128e565b610616565b6040516001600160a01b039091168152602001610212565b61020860035481565b61020861025d3660046112ec565b600b6020526000908152604090205481565b61020861027d3660046112ec565b600d6020526000908152604090205481565b610297610664565b005b6102976102a736600461130e565b610752565b61022e7f000000000000000000000000000000000000000000000000000000000000000081565b610297610995565b61022e6102e9366004611361565b6009602052600090815260409020546001600160a01b031681565b61029761031236600461128e565b6109a5565b60025460ff165b6040519015158152602001610212565b61020861033c3660046112ec565b600c6020526000908152604090205481565b610297610b24565b610297610364366004611361565b610b36565b61022e6103773660046112ec565b600a602052600090815260409020546001600160a01b031681565b6103e46103a03660046112ec565b6001600160a01b03166000908152600b6020908152604080832054600c835281842054600d845282852054600e855283862054600890955292909420549094919291565b604080519586526020860194909452928401919091526060830152608082015260a001610212565b610297610b84565b6000546001600160a01b031661022e565b61029761043336600461137a565b610b94565b610297610446366004611361565b610c92565b61031e61045936600461128e565b610cd8565b61020860055481565b61029761047536600461137a565b610d25565b61031e6104883660046112ec565b60076020526000908152604090205460ff1681565b6102976104ab3660046113a4565b610f0f565b6102086104be3660046112ec565b60086020526000908152604090205481565b6102086a295be96e6406697200000081565b6102086104f03660046112ec565b600e6020526000908152604090205481565b61020860045481565b61020860065481565b610297610522366004611361565b610f76565b6102976105353660046112ec565b610fbc565b6040516370a0823160e01b815230600482015260009081906001600160a01b037f000000000000000000000000000000000000000000000000000000000000000016906370a0823190602401602060405180830381865afa1580156105a3573d6000803e3d6000fd5b505050506040513d601f19601f820116820180604052508101906105c791906113e0565b905060006006546a295be96e64066972000000116105e65760006105fe565b6006546105fe906a295be96e6406697200000061140f565b905080821061060d578061060f565b815b9250505090565b600080838360405160200161062c929190611422565b60408051601f198184030181529181528151602092830120600090815260099092529020546001600160a01b03169150505b92915050565b61066c610ffa565b610674611024565b336000908152600b6020526040902054806106cc5760405162461bcd60e51b81526020600482015260136024820152724e6f207265776172647320746f20636c61696d60681b60448201526064015b60405180910390fd5b336000818152600b6020526040812055610711907f00000000000000000000000000000000000000000000000000000000000000006001600160a01b03169083611048565b60405181815233907ffc30cddea38e2bf4d6ea7d3f9ed3b6ad7f176419f4963bd81318067a4aee73fe9060200160405180910390a25061075060018055565b565b3360009081526007602052604090205460ff168061077a57506000546001600160a01b031633145b6107b75760405162461bcd60e51b815260206004820152600e60248201526d139bdd08185d5d1a1bdc9a5e995960921b60448201526064016106c3565b6001600160a01b038381166000908152600a6020526040902054161561081f5760405162461bcd60e51b815260206004820152601960248201527f5573657220616c7265616479206861732072656665727265720000000000000060448201526064016106c3565b60008282604051602001610834929190611422565b60408051601f198184030181529181528151602092830120600081815260099093529120549091506001600160a01b0316806108aa5760405162461bcd60e51b8152602060048201526015602482015274496e76616c696420726566657272616c20636f646560581b60448201526064016106c3565b846001600160a01b0316816001600160a01b0316036109035760405162461bcd60e51b815260206004820152601560248201527421b0b73737ba103932b332b9103cb7bab939b2b63360591b60448201526064016106c3565b6001600160a01b038581166000908152600a6020908152604080832080546001600160a01b0319169486169485179055928252600e905290812080549161094983611432565b9190505550806001600160a01b0316856001600160a01b03167f9256f4918f0f4134175473b5d02d74b98988367c1c2659d052fd71e9c8fe66dd60405160405180910390a35050505050565b61099d61109f565b6107506110cc565b600381108015906109b7575060148111155b610a035760405162461bcd60e51b815260206004820152601760248201527f436f6465206d75737420626520332d323020636861727300000000000000000060448201526064016106c3565b60008282604051602001610a18929190611422565b60408051601f198184030181529181528151602092830120600081815260099093529120549091506001600160a01b031615610a8b5760405162461bcd60e51b815260206004820152601260248201527121b7b2329030b63932b0b23c903a30b5b2b760711b60448201526064016106c3565b336000908152600860205260409020548015610abe57600081815260096020526040902080546001600160a01b03191690555b336000818152600860209081526040808320869055858352600982529182902080546001600160a01b0319168417905590518481527f84d410093008674eba76b70ab072a4f33a5858f8aebca4c89a70447eccf6ffda910160405180910390a250505050565b610b2c61109f565b610750600061111e565b610b3e61109f565b600580549082905560408051828152602081018490527f3455b977d02078ed89c87ccfe8470baebfbf077746db204fe534c00b7a5e4c5c91015b60405180910390a15050565b610b8c61109f565b61075061116e565b610b9c61109f565b6001600160a01b038216610c3a57604051600090339083908381818185875af1925050503d8060008114610bec576040519150601f19603f3d011682016040523d82523d6000602084013e610bf1565b606091505b5050905080610c345760405162461bcd60e51b815260206004820152600f60248201526e151c985b9cd9995c8819985a5b1959608a1b60448201526064016106c3565b50610c4e565b610c4e6001600160a01b0383163383611048565b60405181815233906001600160a01b038416907faaeda929aa102e867049528ec7cd2499e3a2f8846e736ae7935f234dfbf500d99060200160405180910390a35050565b610c9a61109f565b600380549082905560408051828152602081018490527fc390a98ace15a7bb6bab611eedfdbb2685043b241a869420043cdfb23ccfee509101610b78565b6000808383604051602001610cee929190611422565b60408051808303601f190181529181528151602092830120600090815260099092529020546001600160a01b031615949350505050565b3360009081526007602052604090205460ff1680610d4d57506000546001600160a01b031633145b610d8a5760405162461bcd60e51b815260206004820152600e60248201526d139bdd08185d5d1a1bdc9a5e995960921b60448201526064016106c3565b610d92611024565b6001600160a01b038083166000908152600a60205260409020541680610db757505050565b600454821015610dc657505050565b6000610dd061053a565b905080600003610de05750505050565b6000670de0b6b3a764000060035485610df9919061144b565b610e039190611462565b9050600554811115610e1457506005545b81811115610e1f5750805b6001600160a01b0383166000908152600b602052604081208054839290610e47908490611484565b90915550506001600160a01b0383166000908152600c602052604081208054839290610e74908490611484565b90915550506001600160a01b0383166000908152600d602052604081208054869290610ea1908490611484565b925050819055508060066000828254610eba9190611484565b909155505060408051858152602081018390526001600160a01b0380881692908616917ffd07974d3aaf62e9d6f1492b77eba5e72f99d8367e456eaf203de8491d42c999910160405180910390a35050505050565b610f1761109f565b6001600160a01b038216600081815260076020908152604091829020805460ff191685151590811790915591519182527f19e1fee2e38695e60ad3ef8c81759c22d6d7ee56f9b8805363820a50da468a18910160405180910390a25050565b610f7e61109f565b600480549082905560408051828152602081018490527fbf3625d9c7228f84bf15fbb579ffea3d8e6cdd37ecb782d78fa5a70b89385feb9101610b78565b610fc461109f565b6001600160a01b038116610fee57604051631e4fbdf760e01b8152600060048201526024016106c3565b610ff78161111e565b50565b60026001540361101d57604051633ee5aeb560e01b815260040160405180910390fd5b6002600155565b60025460ff16156107505760405163d93c066560e01b815260040160405180910390fd5b604080516001600160a01b038416602482015260448082018490528251808303909101815260649091019091526020810180516001600160e01b031663a9059cbb60e01b17905261109a9084906111ab565b505050565b6000546001600160a01b031633146107505760405163118cdaa760e01b81523360048201526024016106c3565b6110d4611222565b6002805460ff191690557f5db9ee0a495bf2e6ff9c91a7834c1ba4fdd244a5e8aa4e537bd38aeae4b073aa335b6040516001600160a01b03909116815260200160405180910390a1565b600080546001600160a01b038381166001600160a01b0319831681178455604051919092169283917f8be0079c531659141344cd1fd0a4f28419497f9722a3daafe3b4186f6b6457e09190a35050565b611176611024565b6002805460ff191660011790557f62e78cea01bee320cd4e420270b5ea74000d11b0c9f74754ebdbfc544b05a2586111013390565b600080602060008451602086016000885af1806111ce576040513d6000823e3d81fd5b50506000513d915081156111e65780600114156111f3565b6001600160a01b0384163b155b1561121c57604051635274afe760e01b81526001600160a01b03851660048201526024016106c3565b50505050565b60025460ff1661075057604051638dfc202b60e01b815260040160405180910390fd5b60008083601f84011261125757600080fd5b50813567ffffffffffffffff81111561126f57600080fd5b60208301915083602082850101111561128757600080fd5b9250929050565b600080602083850312156112a157600080fd5b823567ffffffffffffffff8111156112b857600080fd5b6112c485828601611245565b90969095509350505050565b80356001600160a01b03811681146112e757600080fd5b919050565b6000602082840312156112fe57600080fd5b611307826112d0565b9392505050565b60008060006040848603121561132357600080fd5b61132c846112d0565b9250602084013567ffffffffffffffff81111561134857600080fd5b61135486828701611245565b9497909650939450505050565b60006020828403121561137357600080fd5b5035919050565b6000806040838503121561138d57600080fd5b611396836112d0565b946020939093013593505050565b600080604083850312156113b757600080fd5b6113c0836112d0565b9150602083013580151581146113d557600080fd5b809150509250929050565b6000602082840312156113f257600080fd5b5051919050565b634e487b7160e01b600052601160045260246000fd5b8181038181111561065e5761065e6113f9565b8183823760009101908152919050565b600060018201611444576114446113f9565b5060010190565b808202811582820484141761065e5761065e6113f9565b60008261147f57634e487b7160e01b600052601260045260246000fd5b500490565b8082018082111561065e5761065e6113f956fea26469706673582212207d01696c271bfffd48db92f988491f2a6aa2582cc4fff9dfcc66d5fd93f2c68d64736f6c63430008140033","opcodes":"PUSH1 0xA0 PUSH1 0x40 MSTORE PUSH8 0x16345785D8A0000 PUSH1 0x3 SSTORE PUSH8 0x8AC7230489E80000 PUSH1 0x4 SSTORE PUSH9 0x3635C9ADC5DEA00000 PUSH1 0x5 SSTORE CALLVALUE DUP1 ISZERO PUSH2 0x35 JUMPI PUSH1 0x0 DUP1 REVERT JUMPDEST POP PUSH1 0x40 MLOAD PUSH3 0x1669 CODESIZE SUB DUP1 PUSH3 0x1669 DUP4 CODECOPY DUP2 ADD PUSH1 0x40 DUP2 SWAP1 MSTORE PUSH2 0x56 SWAP2 PUSH2 0x142 JUMP JUMPDEST CALLER DUP1 PUSH2 0x7D JUMPI PUSH1 0x40 MLOAD PUSH4 0x1E4FBDF7 PUSH1 0xE0 SHL DUP2 MSTORE PUSH1 0x0 PUSH1 0x4 DUP3 ADD MSTORE PUSH1 0x24 ADD JUMPDEST PUSH1 0x40 MLOAD DUP1 SWAP2 SUB SWAP1 REVERT JUMPDEST PUSH2 0x86 DUP2 PUSH2 0xF2 JUMP JUMPDEST POP PUSH1 0x1 DUP1 SSTORE PUSH1 0x1 PUSH1 0x1 PUSH1 0xA0 SHL SUB DUP2 AND PUSH2 0xE1 JUMPI PUSH1 0x40 MLOAD PUSH3 0x461BCD PUSH1 0xE5 SHL DUP2 MSTORE PUSH1 0x20 PUSH1 0x4 DUP3 ADD MSTORE PUSH1 0x15 PUSH1 0x24 DUP3 ADD MSTORE PUSH32 0x496E76616C69642050494C4F5420616464726573730000000000000000000000 PUSH1 0x44 DUP3 ADD MSTORE PUSH1 0x64 ADD PUSH2 0x74 JUMP JUMPDEST PUSH1 0x1 PUSH1 0x1 PUSH1 0xA0 SHL SUB AND PUSH1 0x80 MSTORE PUSH2 0x172 JUMP JUMPDEST PUSH1 0x0 DUP1 SLOAD PUSH1 0x1 PUSH1 0x1 PUSH1 0xA0 SHL SUB DUP4 DUP2 AND PUSH1 0x1 PUSH1 0x1 PUSH1 0xA0 SHL SUB NOT DUP4 AND DUP2 OR DUP5 SSTORE PUSH1 0x40 MLOAD SWAP2 SWAP1 SWAP3 AND SWAP3 DUP4 SWAP2 PUSH32 0x8BE0079C531659141344CD1FD0A4F28419497F9722A3DAAFE3B4186F6B6457E0 SWAP2 SWAP1 LOG3 POP POP JUMP JUMPDEST PUSH1 0x0 PUSH1 0x20 DUP3 DUP5 SUB SLT ISZERO PUSH2 0x154 JUMPI PUSH1 0x0 DUP1 REVERT JUMPDEST DUP2 MLOAD PUSH1 0x1 PUSH1 0x1 PUSH1 0xA0 SHL SUB DUP2 AND DUP2 EQ PUSH2 0x16B JUMPI PUSH1 0x0 DUP1 REVERT JUMPDEST SWAP4 SWAP3 POP POP POP JUMP JUMPDEST PUSH1 0x80 MLOAD PUSH2 0x14CD PUSH3 0x19C PUSH1 0x0 CODECOPY PUSH1 0x0 DUP2 DUP2 PUSH2 0x2B1 ADD MSTORE DUP2 DUP2 PUSH2 0x55C ADD MSTORE PUSH2 0x6E2 ADD MSTORE PUSH2 0x14CD PUSH1 0x0 RETURN INVALID PUSH1 0x80 PUSH1 0x40 MSTORE CALLVALUE DUP1 ISZERO PUSH2 0x10 JUMPI PUSH1 0x0 DUP1 REVERT JUMPDEST POP PUSH1 0x4 CALLDATASIZE LT PUSH2 0x1FB JUMPI PUSH1 0x0 CALLDATALOAD PUSH1 0xE0 SHR DUP1 PUSH4 0x7E396110 GT PUSH2 0x11A JUMPI DUP1 PUSH4 0xCC642784 GT PUSH2 0xAD JUMPI DUP1 PUSH4 0xDB74559B GT PUSH2 0x7C JUMPI DUP1 PUSH4 0xDB74559B EQ PUSH2 0x4E2 JUMPI DUP1 PUSH4 0xDCF09758 EQ PUSH2 0x502 JUMPI DUP1 PUSH4 0xEE172546 EQ PUSH2 0x50B JUMPI DUP1 PUSH4 0xEEC33872 EQ PUSH2 0x514 JUMPI DUP1 PUSH4 0xF2FDE38B EQ PUSH2 0x527 JUMPI PUSH1 0x0 DUP1 REVERT JUMPDEST DUP1 PUSH4 0xCC642784 EQ PUSH2 0x47A JUMPI DUP1 PUSH4 0xD59BA0DF EQ PUSH2 0x49D JUMPI DUP1 PUSH4 0xD5AB6F50 EQ PUSH2 0x4B0 JUMPI DUP1 PUSH4 0xD882BE1B EQ PUSH2 0x4D0 JUMPI PUSH1 0x0 DUP1 REVERT JUMPDEST DUP1 PUSH4 0x9E447FC6 GT PUSH2 0xE9 JUMPI DUP1 PUSH4 0x9E447FC6 EQ PUSH2 0x438 JUMPI DUP1 PUSH4 0xB24F4B8D EQ PUSH2 0x44B JUMPI DUP1 PUSH4 0xBD3453AB EQ PUSH2 0x45E JUMPI DUP1 PUSH4 0xBDBC24F7 EQ PUSH2 0x467 JUMPI PUSH1 0x0 DUP1 REVERT JUMPDEST DUP1 PUSH4 0x7E396110 EQ PUSH2 0x392 JUMPI DUP1 PUSH4 0x8456CB59 EQ PUSH2 0x40C JUMPI DUP1 PUSH4 0x8DA5CB5B EQ PUSH2 0x414 JUMPI DUP1 PUSH4 0x95CCEA67 EQ PUSH2 0x425 JUMPI PUSH1 0x0 DUP1 REVERT JUMPDEST DUP1 PUSH4 0x3F4BA83A GT PUSH2 0x192 JUMPI DUP1 PUSH4 0x649ACA4A GT PUSH2 0x161 JUMPI DUP1 PUSH4 0x649ACA4A EQ PUSH2 0x32E JUMPI DUP1 PUSH4 0x715018A6 EQ PUSH2 0x34E JUMPI DUP1 PUSH4 0x78C97DE4 EQ PUSH2 0x356 JUMPI DUP1 PUSH4 0x7C3FCC38 EQ PUSH2 0x369 JUMPI PUSH1 0x0 DUP1 REVERT JUMPDEST DUP1 PUSH4 0x3F4BA83A EQ PUSH2 0x2D3 JUMPI DUP1 PUSH4 0x47C30CBD EQ PUSH2 0x2DB JUMPI DUP1 PUSH4 0x59FB7752 EQ PUSH2 0x304 JUMPI DUP1 PUSH4 0x5C975ABB EQ PUSH2 0x317 JUMPI PUSH1 0x0 DUP1 REVERT JUMPDEST DUP1 PUSH4 0x34421A0A GT PUSH2 0x1CE JUMPI DUP1 PUSH4 0x34421A0A EQ PUSH2 0x26F JUMPI DUP1 PUSH4 0x372500AB EQ PUSH2 0x28F JUMPI DUP1 PUSH4 0x388BDB39 EQ PUSH2 0x299 JUMPI DUP1 PUSH4 0x39C3B99C EQ PUSH2 0x2AC JUMPI PUSH1 0x0 DUP1 REVERT JUMPDEST DUP1 PUSH4 0x949FD3F EQ PUSH2 0x200 JUMPI DUP1 PUSH4 0x28B43F2D EQ PUSH2 0x21B JUMPI DUP1 PUSH4 0x2E8DE1D4 EQ PUSH2 0x246 JUMPI DUP1 PUSH4 0x31D7A262 EQ PUSH2 0x24F JUMPI JUMPDEST PUSH1 0x0 DUP1 REVERT JUMPDEST PUSH2 0x208 PUSH2 0x53A JUMP JUMPDEST PUSH1 0x40 MLOAD SWAP1 DUP2 MSTORE PUSH1 0x20 ADD JUMPDEST PUSH1 0x40 MLOAD DUP1 SWAP2 SUB SWAP1 RETURN JUMPDEST PUSH2 0x22E PUSH2 0x229 CALLDATASIZE PUSH1 0x4 PUSH2 0x128E JUMP JUMPDEST PUSH2 0x616 JUMP JUMPDEST PUSH1 0x40 MLOAD PUSH1 0x1 PUSH1 0x1 PUSH1 0xA0 SHL SUB SWAP1 SWAP2 AND DUP2 MSTORE PUSH1 0x20 ADD PUSH2 0x212 JUMP JUMPDEST PUSH2 0x208 PUSH1 0x3 SLOAD DUP2 JUMP JUMPDEST PUSH2 0x208 PUSH2 0x25D CALLDATASIZE PUSH1 0x4 PUSH2 0x12EC JUMP JUMPDEST PUSH1 0xB PUSH1 0x20 MSTORE PUSH1 0x0 SWAP1 DUP2 MSTORE PUSH1 0x40 SWAP1 KECCAK256 SLOAD DUP2 JUMP JUMPDEST PUSH2 0x208 PUSH2 0x27D CALLDATASIZE PUSH1 0x4 PUSH2 0x12EC JUMP JUMPDEST PUSH1 0xD PUSH1 0x20 MSTORE PUSH1 0x0 SWAP1 DUP2 MSTORE PUSH1 0x40 SWAP1 KECCAK256 SLOAD DUP2 JUMP JUMPDEST PUSH2 0x297 PUSH2 0x664 JUMP JUMPDEST STOP JUMPDEST PUSH2 0x297 PUSH2 0x2A7 CALLDATASIZE PUSH1 0x4 PUSH2 0x130E JUMP JUMPDEST PUSH2 0x752 JUMP JUMPDEST PUSH2 0x22E PUSH32 0x0 DUP2 JUMP JUMPDEST PUSH2 0x297 PUSH2 0x995 JUMP JUMPDEST PUSH2 0x22E PUSH2 0x2E9 CALLDATASIZE PUSH1 0x4 PUSH2 0x1361 JUMP JUMPDEST PUSH1 0x9 PUSH1 0x20 MSTORE PUSH1 0x0 SWAP1 DUP2 MSTORE PUSH1 0x40 SWAP1 KECCAK256 SLOAD PUSH1 0x1 PUSH1 0x1 PUSH1 0xA0 SHL SUB AND DUP2 JUMP JUMPDEST PUSH2 0x297 PUSH2 0x312 CALLDATASIZE PUSH1 0x4 PUSH2 0x128E JUMP JUMPDEST PUSH2 0x9A5 JUMP JUMPDEST PUSH1 0x2 SLOAD PUSH1 0xFF AND JUMPDEST PUSH1 0x40 MLOAD SWAP1 ISZERO ISZERO DUP2 MSTORE PUSH1 0x20 ADD PUSH2 0x212 JUMP JUMPDEST PUSH2 0x208 PUSH2 0x33C CALLDATASIZE PUSH1 0x4 PUSH2 0x12EC JUMP JUMPDEST PUSH1 0xC PUSH1 0x20 MSTORE PUSH1 0x0 SWAP1 DUP2 MSTORE PUSH1 0x40 SWAP1 KECCAK256 SLOAD DUP2 JUMP JUMPDEST PUSH2 0x297 PUSH2 0xB24 JUMP JUMPDEST PUSH2 0x297 PUSH2 0x364 CALLDATASIZE PUSH1 0x4 PUSH2 0x1361 JUMP JUMPDEST PUSH2 0xB36 JUMP JUMPDEST PUSH2 0x22E PUSH2 0x377 CALLDATASIZE PUSH1 0x4 PUSH2 0x12EC JUMP JUMPDEST PUSH1 0xA PUSH1 0x20 MSTORE PUSH1 0x0 SWAP1 DUP2 MSTORE PUSH1 0x40 SWAP1 KECCAK256 SLOAD PUSH1 0x1 PUSH1 0x1 PUSH1 0xA0 SHL SUB AND DUP2 JUMP JUMPDEST PUSH2 0x3E4 PUSH2 0x3A0 CALLDATASIZE PUSH1 0x4 PUSH2 0x12EC JUMP JUMPDEST PUSH1 0x1 PUSH1 0x1 PUSH1 0xA0 SHL SUB AND PUSH1 0x0 SWAP1 DUP2 MSTORE PUSH1 0xB PUSH1 0x20 SWAP1 DUP2 MSTORE PUSH1 0x40 DUP1 DUP4 KECCAK256 SLOAD PUSH1 0xC DUP4 MSTORE DUP2 DUP5 KECCAK256 SLOAD PUSH1 0xD DUP5 MSTORE DUP3 DUP6 KECCAK256 SLOAD PUSH1 0xE DUP6 MSTORE DUP4 DUP7 KECCAK256 SLOAD PUSH1 0x8 SWAP1 SWAP6 MSTORE SWAP3 SWAP1 SWAP5 KECCAK256 SLOAD SWAP1 SWAP5 SWAP2 SWAP3 SWAP2 JUMP JUMPDEST PUSH1 0x40 DUP1 MLOAD SWAP6 DUP7 MSTORE PUSH1 0x20 DUP7 ADD SWAP5 SWAP1 SWAP5 MSTORE SWAP3 DUP5 ADD SWAP2 SWAP1 SWAP2 MSTORE PUSH1 0x60 DUP4 ADD MSTORE PUSH1 0x80 DUP3 ADD MSTORE PUSH1 0xA0 ADD PUSH2 0x212 JUMP JUMPDEST PUSH2 0x297 PUSH2 0xB84 JUMP JUMPDEST PUSH1 0x0 SLOAD PUSH1 0x1 PUSH1 0x1 PUSH1 0xA0 SHL SUB AND PUSH2 0x22E JUMP JUMPDEST PUSH2 0x297 PUSH2 0x433 CALLDATASIZE PUSH1 0x4 PUSH2 0x137A JUMP JUMPDEST PUSH2 0xB94 JUMP JUMPDEST PUSH2 0x297 PUSH2 0x446 CALLDATASIZE PUSH1 0x4 PUSH2 0x1361 JUMP JUMPDEST PUSH2 0xC92 JUMP JUMPDEST PUSH2 0x31E PUSH2 0x459 CALLDATASIZE PUSH1 0x4 PUSH2 0x128E JUMP JUMPDEST PUSH2 0xCD8 JUMP JUMPDEST PUSH2 0x208 PUSH1 0x5 SLOAD DUP2 JUMP JUMPDEST PUSH2 0x297 PUSH2 0x475 CALLDATASIZE PUSH1 0x4 PUSH2 0x137A JUMP JUMPDEST PUSH2 0xD25 JUMP JUMPDEST PUSH2 0x31E PUSH2 0x488 CALLDATASIZE PUSH1 0x4 PUSH2 0x12EC JUMP JUMPDEST PUSH1 0x7 PUSH1 0x20 MSTORE PUSH1 0x0 SWAP1 DUP2 MSTORE PUSH1 0x40 SWAP1 KECCAK256 SLOAD PUSH1 0xFF AND DUP2 JUMP JUMPDEST PUSH2 0x297 PUSH2 0x4AB CALLDATASIZE PUSH1 0x4 PUSH2 0x13A4 JUMP JUMPDEST PUSH2 0xF0F JUMP JUMPDEST PUSH2 0x208 PUSH2 0x4BE CALLDATASIZE PUSH1 0x4 PUSH2 0x12EC JUMP JUMPDEST PUSH1 0x8 PUSH1 0x20 MSTORE PUSH1 0x0 SWAP1 DUP2 MSTORE PUSH1 0x40 SWAP1 KECCAK256 SLOAD DUP2 JUMP JUMPDEST PUSH2 0x208 PUSH11 0x295BE96E64066972000000 DUP2 JUMP JUMPDEST PUSH2 0x208 PUSH2 0x4F0 CALLDATASIZE PUSH1 0x4 PUSH2 0x12EC JUMP JUMPDEST PUSH1 0xE PUSH1 0x20 MSTORE PUSH1 0x0 SWAP1 DUP2 MSTORE PUSH1 0x40 SWAP1 KECCAK256 SLOAD DUP2 JUMP JUMPDEST PUSH2 0x208 PUSH1 0x4 SLOAD DUP2 JUMP JUMPDEST PUSH2 0x208 PUSH1 0x6 SLOAD DUP2 JUMP JUMPDEST PUSH2 0x297 PUSH2 0x522 CALLDATASIZE PUSH1 0x4 PUSH2 0x1361 JUMP JUMPDEST PUSH2 0xF76 JUMP JUMPDEST PUSH2 0x297 PUSH2 0x535 CALLDATASIZE PUSH1 0x4 PUSH2 0x12EC JUMP JUMPDEST PUSH2 0xFBC JUMP JUMPDEST PUSH1 0x40 MLOAD PUSH4 0x70A08231 PUSH1 0xE0 SHL DUP2 MSTORE ADDRESS PUSH1 0x4 DUP3 ADD MSTORE PUSH1 0x0 SWAP1 DUP2 SWAP1 PUSH1 0x1 PUSH1 0x1 PUSH1 0xA0 SHL SUB PUSH32 0x0 AND SWAP1 PUSH4 0x70A08231 SWAP1 PUSH1 0x24 ADD PUSH1 0x20 PUSH1 0x40 MLOAD DUP1 DUP4 SUB DUP2 DUP7 GAS STATICCALL ISZERO DUP1 ISZERO PUSH2 0x5A3 JUMPI RETURNDATASIZE PUSH1 0x0 DUP1 RETURNDATACOPY RETURNDATASIZE PUSH1 0x0 REVERT JUMPDEST POP POP POP POP PUSH1 0x40 MLOAD RETURNDATASIZE PUSH1 0x1F NOT PUSH1 0x1F DUP3 ADD AND DUP3 ADD DUP1 PUSH1 0x40 MSTORE POP DUP2 ADD SWAP1 PUSH2 0x5C7 SWAP2 SWAP1 PUSH2 0x13E0 JUMP JUMPDEST SWAP1 POP PUSH1 0x0 PUSH1 0x6 SLOAD PUSH11 0x295BE96E64066972000000 GT PUSH2 0x5E6 JUMPI PUSH1 0x0 PUSH2 0x5FE JUMP JUMPDEST PUSH1 0x6 SLOAD PUSH2 0x5FE SWAP1 PUSH11 0x295BE96E64066972000000 PUSH2 0x140F JUMP JUMPDEST SWAP1 POP DUP1 DUP3 LT PUSH2 0x60D JUMPI DUP1 PUSH2 0x60F JUMP JUMPDEST DUP2 JUMPDEST SWAP3 POP POP POP SWAP1 JUMP JUMPDEST PUSH1 0x0 DUP1 DUP4 DUP4 PUSH1 0x40 MLOAD PUSH1 0x20 ADD PUSH2 0x62C SWAP3 SWAP2 SWAP1 PUSH2 0x1422 JUMP JUMPDEST PUSH1 0x40 DUP1 MLOAD PUSH1 0x1F NOT DUP2 DUP5 SUB ADD DUP2 MSTORE SWAP2 DUP2 MSTORE DUP2 MLOAD PUSH1 0x20 SWAP3 DUP4 ADD KECCAK256 PUSH1 0x0 SWAP1 DUP2 MSTORE PUSH1 0x9 SWAP1 SWAP3 MSTORE SWAP1 KECCAK256 SLOAD PUSH1 0x1 PUSH1 0x1 PUSH1 0xA0 SHL SUB AND SWAP2 POP POP JUMPDEST SWAP3 SWAP2 POP POP JUMP JUMPDEST PUSH2 0x66C PUSH2 0xFFA JUMP JUMPDEST PUSH2 0x674 PUSH2 0x1024 JUMP JUMPDEST CALLER PUSH1 0x0 SWAP1 DUP2 MSTORE PUSH1 0xB PUSH1 0x20 MSTORE PUSH1 0x40 SWAP1 KECCAK256 SLOAD DUP1 PUSH2 0x6CC JUMPI PUSH1 0x40 MLOAD PUSH3 0x461BCD PUSH1 0xE5 SHL DUP2 MSTORE PUSH1 0x20 PUSH1 0x4 DUP3 ADD MSTORE PUSH1 0x13 PUSH1 0x24 DUP3 ADD MSTORE PUSH19 0x4E6F207265776172647320746F20636C61696D PUSH1 0x68 SHL PUSH1 0x44 DUP3 ADD MSTORE PUSH1 0x64 ADD JUMPDEST PUSH1 0x40 MLOAD DUP1 SWAP2 SUB SWAP1 REVERT JUMPDEST CALLER PUSH1 0x0 DUP2 DUP2 MSTORE PUSH1 0xB PUSH1 0x20 MSTORE PUSH1 0x40 DUP2 KECCAK256 SSTORE PUSH2 0x711 SWAP1 PUSH32 0x0 PUSH1 0x1 PUSH1 0x1 PUSH1 0xA0 SHL SUB AND SWAP1 DUP4 PUSH2 0x1048 JUMP JUMPDEST PUSH1 0x40 MLOAD DUP2 DUP2 MSTORE CALLER SWAP1 PUSH32 0xFC30CDDEA38E2BF4D6EA7D3F9ED3B6AD7F176419F4963BD81318067A4AEE73FE SWAP1 PUSH1 0x20 ADD PUSH1 0x40 MLOAD DUP1 SWAP2 SUB SWAP1 LOG2 POP PUSH2 0x750 PUSH1 0x1 DUP1 SSTORE JUMP JUMPDEST JUMP JUMPDEST CALLER PUSH1 0x0 SWAP1 DUP2 MSTORE PUSH1 0x7 PUSH1 0x20 MSTORE PUSH1 0x40 SWAP1 KECCAK256 SLOAD PUSH1 0xFF AND DUP1 PUSH2 0x77A JUMPI POP PUSH1 0x0 SLOAD PUSH1 0x1 PUSH1 0x1 PUSH1 0xA0 SHL SUB AND CALLER EQ JUMPDEST PUSH2 0x7B7 JUMPI PUSH1 0x40 MLOAD PUSH3 0x461BCD PUSH1 0xE5 SHL DUP2 MSTORE PUSH1 0x20 PUSH1 0x4 DUP3 ADD MSTORE PUSH1 0xE PUSH1 0x24 DUP3 ADD MSTORE PUSH14 0x139BDD08185D5D1A1BDC9A5E9959 PUSH1 0x92 SHL PUSH1 0x44 DUP3 ADD MSTORE PUSH1 0x64 ADD PUSH2 0x6C3 JUMP JUMPDEST PUSH1 0x1 PUSH1 0x1 PUSH1 0xA0 SHL SUB DUP4 DUP2 AND PUSH1 0x0 SWAP1 DUP2 MSTORE PUSH1 0xA PUSH1 0x20 MSTORE PUSH1 0x40 SWAP1 KECCAK256 SLOAD AND ISZERO PUSH2 0x81F JUMPI PUSH1 0x40 MLOAD PUSH3 0x461BCD PUSH1 0xE5 SHL DUP2 MSTORE PUSH1 0x20 PUSH1 0x4 DUP3 ADD MSTORE PUSH1 0x19 PUSH1 0x24 DUP3 ADD MSTORE PUSH32 0x5573657220616C72656164792068617320726566657272657200000000000000 PUSH1 0x44 DUP3 ADD MSTORE PUSH1 0x64 ADD PUSH2 0x6C3 JUMP JUMPDEST PUSH1 0x0 DUP3 DUP3 PUSH1 0x40 MLOAD PUSH1 0x20 ADD PUSH2 0x834 SWAP3 SWAP2 SWAP1 PUSH2 0x1422 JUMP JUMPDEST PUSH1 0x40 DUP1 MLOAD PUSH1 0x1F NOT DUP2 DUP5 SUB ADD DUP2 MSTORE SWAP2 DUP2 MSTORE DUP2 MLOAD PUSH1 0x20 SWAP3 DUP4 ADD KECCAK256 PUSH1 0x0 DUP2 DUP2 MSTORE PUSH1 0x9 SWAP1 SWAP4 MSTORE SWAP2 KECCAK256 SLOAD SWAP1 SWAP2 POP PUSH1 0x1 PUSH1 0x1 PUSH1 0xA0 SHL SUB AND DUP1 PUSH2 0x8AA JUMPI PUSH1 0x40 MLOAD PUSH3 0x461BCD PUSH1 0xE5 SHL DUP2 MSTORE PUSH1 0x20 PUSH1 0x4 DUP3 ADD MSTORE PUSH1 0x15 PUSH1 0x24 DUP3 ADD MSTORE PUSH21 0x496E76616C696420726566657272616C20636F6465 PUSH1 0x58 SHL PUSH1 0x44 DUP3 ADD MSTORE PUSH1 0x64 ADD PUSH2 0x6C3 JUMP JUMPDEST DUP5 PUSH1 0x1 PUSH1 0x1 PUSH1 0xA0 SHL SUB AND DUP2 PUSH1 0x1 PUSH1 0x1 PUSH1 0xA0 SHL SUB AND SUB PUSH2 0x903 JUMPI PUSH1 0x40 MLOAD PUSH3 0x461BCD PUSH1 0xE5 SHL DUP2 MSTORE PUSH1 0x20 PUSH1 0x4 DUP3 ADD MSTORE PUSH1 0x15 PUSH1 0x24 DUP3 ADD MSTORE PUSH21 0x21B0B73737BA103932B332B9103CB7BAB939B2B633 PUSH1 0x59 SHL PUSH1 0x44 DUP3 ADD MSTORE PUSH1 0x64 ADD PUSH2 0x6C3 JUMP JUMPDEST PUSH1 0x1 PUSH1 0x1 PUSH1 0xA0 SHL SUB DUP6 DUP2 AND PUSH1 0x0 SWAP1 DUP2 MSTORE PUSH1 0xA PUSH1 0x20 SWAP1 DUP2 MSTORE PUSH1 0x40 DUP1 DUP4 KECCAK256 DUP1 SLOAD PUSH1 0x1 PUSH1 0x1 PUSH1 0xA0 SHL SUB NOT AND SWAP5 DUP7 AND SWAP5 DUP6 OR SWAP1 SSTORE SWAP3 DUP3 MSTORE PUSH1 0xE SWAP1 MSTORE SWAP1 DUP2 KECCAK256 DUP1 SLOAD SWAP2 PUSH2 0x949 DUP4 PUSH2 0x1432 JUMP JUMPDEST SWAP2 SWAP1 POP SSTORE POP DUP1 PUSH1 0x1 PUSH1 0x1 PUSH1 0xA0 SHL SUB AND DUP6 PUSH1 0x1 PUSH1 0x1 PUSH1 0xA0 SHL SUB AND PUSH32 0x9256F4918F0F4134175473B5D02D74B98988367C1C2659D052FD71E9C8FE66DD PUSH1 0x40 MLOAD PUSH1 0x40 MLOAD DUP1 SWAP2 SUB SWAP1 LOG3 POP POP POP POP POP JUMP JUMPDEST PUSH2 0x99D PUSH2 0x109F JUMP JUMPDEST PUSH2 0x750 PUSH2 0x10CC JUMP JUMPDEST PUSH1 0x3 DUP2 LT DUP1 ISZERO SWAP1 PUSH2 0x9B7 JUMPI POP PUSH1 0x14 DUP2 GT ISZERO JUMPDEST PUSH2 0xA03 JUMPI PUSH1 0x40 MLOAD PUSH3 0x461BCD PUSH1 0xE5 SHL DUP2 MSTORE PUSH1 0x20 PUSH1 0x4 DUP3 ADD MSTORE PUSH1 0x17 PUSH1 0x24 DUP3 ADD MSTORE PUSH32 0x436F6465206D75737420626520332D3230206368617273000000000000000000 PUSH1 0x44 DUP3 ADD MSTORE PUSH1 0x64 ADD PUSH2 0x6C3 JUMP JUMPDEST PUSH1 0x0 DUP3 DUP3 PUSH1 0x40 MLOAD PUSH1 0x20 ADD PUSH2 0xA18 SWAP3 SWAP2 SWAP1 PUSH2 0x1422 JUMP JUMPDEST PUSH1 0x40 DUP1 MLOAD PUSH1 0x1F NOT DUP2 DUP5 SUB ADD DUP2 MSTORE SWAP2 DUP2 MSTORE DUP2 MLOAD PUSH1 0x20 SWAP3 DUP4 ADD KECCAK256 PUSH1 0x0 DUP2 DUP2 MSTORE PUSH1 0x9 SWAP1 SWAP4 MSTORE SWAP2 KECCAK256 SLOAD SWAP1 SWAP2 POP PUSH1 0x1 PUSH1 0x1 PUSH1 0xA0 SHL SUB AND ISZERO PUSH2 0xA8B JUMPI PUSH1 0x40 MLOAD PUSH3 0x461BCD PUSH1 0xE5 SHL DUP2 MSTORE PUSH1 0x20 PUSH1 0x4 DUP3 ADD MSTORE PUSH1 0x12 PUSH1 0x24 DUP3 ADD MSTORE PUSH18 0x21B7B2329030B63932B0B23C903A30B5B2B7 PUSH1 0x71 SHL PUSH1 0x44 DUP3 ADD MSTORE PUSH1 0x64 ADD PUSH2 0x6C3 JUMP JUMPDEST CALLER PUSH1 0x0 SWAP1 DUP2 MSTORE PUSH1 0x8 PUSH1 0x20 MSTORE PUSH1 0x40 SWAP1 KECCAK256 SLOAD DUP1 ISZERO PUSH2 0xABE JUMPI PUSH1 0x0 DUP2 DUP2 MSTORE PUSH1 0x9 PUSH1 0x20 MSTORE PUSH1 0x40 SWAP1 KECCAK256 DUP1 SLOAD PUSH1 0x1 PUSH1 0x1 PUSH1 0xA0 SHL SUB NOT AND SWAP1 SSTORE JUMPDEST CALLER PUSH1 0x0 DUP2 DUP2 MSTORE PUSH1 0x8 PUSH1 0x20 SWAP1 DUP2 MSTORE PUSH1 0x40 DUP1 DUP4 KECCAK256 DUP7 SWAP1 SSTORE DUP6 DUP4 MSTORE PUSH1 0x9 DUP3 MSTORE SWAP2 DUP3 SWAP1 KECCAK256 DUP1 SLOAD PUSH1 0x1 PUSH1 0x1 PUSH1 0xA0 SHL SUB NOT AND DUP5 OR SWAP1 SSTORE SWAP1 MLOAD DUP5 DUP2 MSTORE PUSH32 0x84D410093008674EBA76B70AB072A4F33A5858F8AEBCA4C89A70447ECCF6FFDA SWAP2 ADD PUSH1 0x40 MLOAD DUP1 SWAP2 SUB SWAP1 LOG2 POP POP POP POP JUMP JUMPDEST PUSH2 0xB2C PUSH2 0x109F JUMP JUMPDEST PUSH2 0x750 PUSH1 0x0 PUSH2 0x111E JUMP JUMPDEST PUSH2 0xB3E PUSH2 0x109F JUMP JUMPDEST PUSH1 0x5 DUP1 SLOAD SWAP1 DUP3 SWAP1 SSTORE PUSH1 0x40 DUP1 MLOAD DUP3 DUP2 MSTORE PUSH1 0x20 DUP2 ADD DUP5 SWAP1 MSTORE PUSH32 0x3455B977D02078ED89C87CCFE8470BAEBFBF077746DB204FE534C00B7A5E4C5C SWAP2 ADD JUMPDEST PUSH1 0x40 MLOAD DUP1 SWAP2 SUB SWAP1 LOG1 POP POP JUMP JUMPDEST PUSH2 0xB8C PUSH2 0x109F JUMP JUMPDEST PUSH2 0x750 PUSH2 0x116E JUMP JUMPDEST PUSH2 0xB9C PUSH2 0x109F JUMP JUMPDEST PUSH1 0x1 PUSH1 0x1 PUSH1 0xA0 SHL SUB DUP3 AND PUSH2 0xC3A JUMPI PUSH1 0x40 MLOAD PUSH1 0x0 SWAP1 CALLER SWAP1 DUP4 SWAP1 DUP4 DUP2 DUP2 DUP2 DUP6 DUP8 GAS CALL SWAP3 POP POP POP RETURNDATASIZE DUP1 PUSH1 0x0 DUP2 EQ PUSH2 0xBEC JUMPI PUSH1 0x40 MLOAD SWAP2 POP PUSH1 0x1F NOT PUSH1 0x3F RETURNDATASIZE ADD AND DUP3 ADD PUSH1 0x40 MSTORE RETURNDATASIZE DUP3 MSTORE RETURNDATASIZE PUSH1 0x0 PUSH1 0x20 DUP5 ADD RETURNDATACOPY PUSH2 0xBF1 JUMP JUMPDEST PUSH1 0x60 SWAP2 POP JUMPDEST POP POP SWAP1 POP DUP1 PUSH2 0xC34 JUMPI PUSH1 0x40 MLOAD PUSH3 0x461BCD PUSH1 0xE5 SHL DUP2 MSTORE PUSH1 0x20 PUSH1 0x4 DUP3 ADD MSTORE PUSH1 0xF PUSH1 0x24 DUP3 ADD MSTORE PUSH15 0x151C985B9CD9995C8819985A5B1959 PUSH1 0x8A SHL PUSH1 0x44 DUP3 ADD MSTORE PUSH1 0x64 ADD PUSH2 0x6C3 JUMP JUMPDEST POP PUSH2 0xC4E JUMP JUMPDEST PUSH2 0xC4E PUSH1 0x1 PUSH1 0x1 PUSH1 0xA0 SHL SUB DUP4 AND CALLER DUP4 PUSH2 0x1048 JUMP JUMPDEST PUSH1 0x40 MLOAD DUP2 DUP2 MSTORE CALLER SWAP1 PUSH1 0x1 PUSH1 0x1 PUSH1 0xA0 SHL SUB DUP5 AND SWAP1 PUSH32 0xAAEDA929AA102E867049528EC7CD2499E3A2F8846E736AE7935F234DFBF500D9 SWAP1 PUSH1 0x20 ADD PUSH1 0x40 MLOAD DUP1 SWAP2 SUB SWAP1 LOG3 POP POP JUMP JUMPDEST PUSH2 0xC9A PUSH2 0x109F JUMP JUMPDEST PUSH1 0x3 DUP1 SLOAD SWAP1 DUP3 SWAP1 SSTORE PUSH1 0x40 DUP1 MLOAD DUP3 DUP2 MSTORE PUSH1 0x20 DUP2 ADD DUP5 SWAP1 MSTORE PUSH32 0xC390A98ACE15A7BB6BAB611EEDFDBB2685043B241A869420043CDFB23CCFEE50 SWAP2 ADD PUSH2 0xB78 JUMP JUMPDEST PUSH1 0x0 DUP1 DUP4 DUP4 PUSH1 0x40 MLOAD PUSH1 0x20 ADD PUSH2 0xCEE SWAP3 SWAP2 SWAP1 PUSH2 0x1422 JUMP JUMPDEST PUSH1 0x40 DUP1 MLOAD DUP1 DUP4 SUB PUSH1 0x1F NOT ADD DUP2 MSTORE SWAP2 DUP2 MSTORE DUP2 MLOAD PUSH1 0x20 SWAP3 DUP4 ADD KECCAK256 PUSH1 0x0 SWAP1 DUP2 MSTORE PUSH1 0x9 SWAP1 SWAP3 MSTORE SWAP1 KECCAK256 SLOAD PUSH1 0x1 PUSH1 0x1 PUSH1 0xA0 SHL SUB AND ISZERO SWAP5 SWAP4 POP POP POP POP JUMP JUMPDEST CALLER PUSH1 0x0 SWAP1 DUP2 MSTORE PUSH1 0x7 PUSH1 0x20 MSTORE PUSH1 0x40 SWAP1 KECCAK256 SLOAD PUSH1 0xFF AND DUP1 PUSH2 0xD4D JUMPI POP PUSH1 0x0 SLOAD PUSH1 0x1 PUSH1 0x1 PUSH1 0xA0 SHL SUB AND CALLER EQ JUMPDEST PUSH2 0xD8A JUMPI PUSH1 0x40 MLOAD PUSH3 0x461BCD PUSH1 0xE5 SHL DUP2 MSTORE PUSH1 0x20 PUSH1 0x4 DUP3 ADD MSTORE PUSH1 0xE PUSH1 0x24 DUP3 ADD MSTORE PUSH14 0x139BDD08185D5D1A1BDC9A5E9959 PUSH1 0x92 SHL PUSH1 0x44 DUP3 ADD MSTORE PUSH1 0x64 ADD PUSH2 0x6C3 JUMP JUMPDEST PUSH2 0xD92 PUSH2 0x1024 JUMP JUMPDEST PUSH1 0x1 PUSH1 0x1 PUSH1 0xA0 SHL SUB DUP1 DUP4 AND PUSH1 0x0 SWAP1 DUP2 MSTORE PUSH1 0xA PUSH1 0x20 MSTORE PUSH1 0x40 SWAP1 KECCAK256 SLOAD AND DUP1 PUSH2 0xDB7 JUMPI POP POP POP JUMP JUMPDEST PUSH1 0x4 SLOAD DUP3 LT ISZERO PUSH2 0xDC6 JUMPI POP POP POP JUMP JUMPDEST PUSH1 0x0 PUSH2 0xDD0 PUSH2 0x53A JUMP JUMPDEST SWAP1 POP DUP1 PUSH1 0x0 SUB PUSH2 0xDE0 JUMPI POP POP POP POP JUMP JUMPDEST PUSH1 0x0 PUSH8 0xDE0B6B3A7640000 PUSH1 0x3 SLOAD DUP6 PUSH2 0xDF9 SWAP2 SWAP1 PUSH2 0x144B JUMP JUMPDEST PUSH2 0xE03 SWAP2 SWAP1 PUSH2 0x1462 JUMP JUMPDEST SWAP1 POP PUSH1 0x5 SLOAD DUP2 GT ISZERO PUSH2 0xE14 JUMPI POP PUSH1 0x5 SLOAD JUMPDEST DUP2 DUP2 GT ISZERO PUSH2 0xE1F JUMPI POP DUP1 JUMPDEST PUSH1 0x1 PUSH1 0x1 PUSH1 0xA0 SHL SUB DUP4 AND PUSH1 0x0 SWAP1 DUP2 MSTORE PUSH1 0xB PUSH1 0x20 MSTORE PUSH1 0x40 DUP2 KECCAK256 DUP1 SLOAD DUP4 SWAP3 SWAP1 PUSH2 0xE47 SWAP1 DUP5 SWAP1 PUSH2 0x1484 JUMP JUMPDEST SWAP1 SWAP2 SSTORE POP POP PUSH1 0x1 PUSH1 0x1 PUSH1 0xA0 SHL SUB DUP4 AND PUSH1 0x0 SWAP1 DUP2 MSTORE PUSH1 0xC PUSH1 0x20 MSTORE PUSH1 0x40 DUP2 KECCAK256 DUP1 SLOAD DUP4 SWAP3 SWAP1 PUSH2 0xE74 SWAP1 DUP5 SWAP1 PUSH2 0x1484 JUMP JUMPDEST SWAP1 SWAP2 SSTORE POP POP PUSH1 0x1 PUSH1 0x1 PUSH1 0xA0 SHL SUB DUP4 AND PUSH1 0x0 SWAP1 DUP2 MSTORE PUSH1 0xD PUSH1 0x20 MSTORE PUSH1 0x40 DUP2 KECCAK256 DUP1 SLOAD DUP7 SWAP3 SWAP1 PUSH2 0xEA1 SWAP1 DUP5 SWAP1 PUSH2 0x1484 JUMP JUMPDEST SWAP3 POP POP DUP2 SWAP1 SSTORE POP DUP1 PUSH1 0x6 PUSH1 0x0 DUP3 DUP3 SLOAD PUSH2 0xEBA SWAP2 SWAP1 PUSH2 0x1484 JUMP JUMPDEST SWAP1 SWAP2 SSTORE POP POP PUSH1 0x40 DUP1 MLOAD DUP6 DUP2 MSTORE PUSH1 0x20 DUP2 ADD DUP4 SWAP1 MSTORE PUSH1 0x1 PUSH1 0x1 PUSH1 0xA0 SHL SUB DUP1 DUP9 AND SWAP3 SWAP1 DUP7 AND SWAP2 PUSH32 0xFD07974D3AAF62E9D6F1492B77EBA5E72F99D8367E456EAF203DE8491D42C999 SWAP2 ADD PUSH1 0x40 MLOAD DUP1 SWAP2 SUB SWAP1 LOG3 POP POP POP POP POP JUMP JUMPDEST PUSH2 0xF17 PUSH2 0x109F JUMP JUMPDEST PUSH1 0x1 PUSH1 0x1 PUSH1 0xA0 SHL SUB DUP3 AND PUSH1 0x0 DUP2 DUP2 MSTORE PUSH1 0x7 PUSH1 0x20 SWAP1 DUP2 MSTORE PUSH1 0x40 SWAP2 DUP3 SWAP1 KECCAK256 DUP1 SLOAD PUSH1 0xFF NOT AND DUP6 ISZERO ISZERO SWAP1 DUP2 OR SWAP1 SWAP2 SSTORE SWAP2 MLOAD SWAP2 DUP3 MSTORE PUSH32 0x19E1FEE2E38695E60AD3EF8C81759C22D6D7EE56F9B8805363820A50DA468A18 SWAP2 ADD PUSH1 0x40 MLOAD DUP1 SWAP2 SUB SWAP1 LOG2 POP POP JUMP JUMPDEST PUSH2 0xF7E PUSH2 0x109F JUMP JUMPDEST PUSH1 0x4 DUP1 SLOAD SWAP1 DUP3 SWAP1 SSTORE PUSH1 0x40 DUP1 MLOAD DUP3 DUP2 MSTORE PUSH1 0x20 DUP2 ADD DUP5 SWAP1 MSTORE PUSH32 0xBF3625D9C7228F84BF15FBB579FFEA3D8E6CDD37ECB782D78FA5A70B89385FEB SWAP2 ADD PUSH2 0xB78 JUMP JUMPDEST PUSH2 0xFC4 PUSH2 0x109F JUMP JUMPDEST PUSH1 0x1 PUSH1 0x1 PUSH1 0xA0 SHL SUB DUP2 AND PUSH2 0xFEE JUMPI PUSH1 0x40 MLOAD PUSH4 0x1E4FBDF7 PUSH1 0xE0 SHL DUP2 MSTORE PUSH1 0x0 PUSH1 0x4 DUP3 ADD MSTORE PUSH1 0x24 ADD PUSH2 0x6C3 JUMP JUMPDEST PUSH2 0xFF7 DUP2 PUSH2 0x111E JUMP JUMPDEST POP JUMP JUMPDEST PUSH1 0x2 PUSH1 0x1 SLOAD SUB PUSH2 0x101D JUMPI PUSH1 0x40 MLOAD PUSH4 0x3EE5AEB5 PUSH1 0xE0 SHL DUP2 MSTORE PUSH1 0x4 ADD PUSH1 0x40 MLOAD DUP1 SWAP2 SUB SWAP1 REVERT JUMPDEST PUSH1 0x2 PUSH1 0x1 SSTORE JUMP JUMPDEST PUSH1 0x2 SLOAD PUSH1 0xFF AND ISZERO PUSH2 0x750 JUMPI PUSH1 0x40 MLOAD PUSH4 0xD93C0665 PUSH1 0xE0 SHL DUP2 MSTORE PUSH1 0x4 ADD PUSH1 0x40 MLOAD DUP1 SWAP2 SUB SWAP1 REVERT JUMPDEST PUSH1 0x40 DUP1 MLOAD PUSH1 0x1 PUSH1 0x1 PUSH1 0xA0 SHL SUB DUP5 AND PUSH1 0x24 DUP3 ADD MSTORE PUSH1 0x44 DUP1 DUP3 ADD DUP5 SWAP1 MSTORE DUP3 MLOAD DUP1 DUP4 SUB SWAP1 SWAP2 ADD DUP2 MSTORE PUSH1 0x64 SWAP1 SWAP2 ADD SWAP1 SWAP2 MSTORE PUSH1 0x20 DUP2 ADD DUP1 MLOAD PUSH1 0x1 PUSH1 0x1 PUSH1 0xE0 SHL SUB AND PUSH4 0xA9059CBB PUSH1 0xE0 SHL OR SWAP1 MSTORE PUSH2 0x109A SWAP1 DUP5 SWAP1 PUSH2 0x11AB JUMP JUMPDEST POP POP POP JUMP JUMPDEST PUSH1 0x0 SLOAD PUSH1 0x1 PUSH1 0x1 PUSH1 0xA0 SHL SUB AND CALLER EQ PUSH2 0x750 JUMPI PUSH1 0x40 MLOAD PUSH4 0x118CDAA7 PUSH1 0xE0 SHL DUP2 MSTORE CALLER PUSH1 0x4 DUP3 ADD MSTORE PUSH1 0x24 ADD PUSH2 0x6C3 JUMP JUMPDEST PUSH2 0x10D4 PUSH2 0x1222 JUMP JUMPDEST PUSH1 0x2 DUP1 SLOAD PUSH1 0xFF NOT AND SWAP1 SSTORE PUSH32 0x5DB9EE0A495BF2E6FF9C91A7834C1BA4FDD244A5E8AA4E537BD38AEAE4B073AA CALLER JUMPDEST PUSH1 0x40 MLOAD PUSH1 0x1 PUSH1 0x1 PUSH1 0xA0 SHL SUB SWAP1 SWAP2 AND DUP2 MSTORE PUSH1 0x20 ADD PUSH1 0x40 MLOAD DUP1 SWAP2 SUB SWAP1 LOG1 JUMP JUMPDEST PUSH1 0x0 DUP1 SLOAD PUSH1 0x1 PUSH1 0x1 PUSH1 0xA0 SHL SUB DUP4 DUP2 AND PUSH1 0x1 PUSH1 0x1 PUSH1 0xA0 SHL SUB NOT DUP4 AND DUP2 OR DUP5 SSTORE PUSH1 0x40 MLOAD SWAP2 SWAP1 SWAP3 AND SWAP3 DUP4 SWAP2 PUSH32 0x8BE0079C531659141344CD1FD0A4F28419497F9722A3DAAFE3B4186F6B6457E0 SWAP2 SWAP1 LOG3 POP POP JUMP JUMPDEST PUSH2 0x1176 PUSH2 0x1024 JUMP JUMPDEST PUSH1 0x2 DUP1 SLOAD PUSH1 0xFF NOT AND PUSH1 0x1 OR SWAP1 SSTORE PUSH32 0x62E78CEA01BEE320CD4E420270B5EA74000D11B0C9F74754EBDBFC544B05A258 PUSH2 0x1101 CALLER SWAP1 JUMP JUMPDEST PUSH1 0x0 DUP1 PUSH1 0x20 PUSH1 0x0 DUP5 MLOAD PUSH1 0x20 DUP7 ADD PUSH1 0x0 DUP9 GAS CALL DUP1 PUSH2 0x11CE JUMPI PUSH1 0x40 MLOAD RETURNDATASIZE PUSH1 0x0 DUP3 RETURNDATACOPY RETURNDATASIZE DUP2 REVERT JUMPDEST POP POP PUSH1 0x0 MLOAD RETURNDATASIZE SWAP2 POP DUP2 ISZERO PUSH2 0x11E6 JUMPI DUP1 PUSH1 0x1 EQ ISZERO PUSH2 0x11F3 JUMP JUMPDEST PUSH1 0x1 PUSH1 0x1 PUSH1 0xA0 SHL SUB DUP5 AND EXTCODESIZE ISZERO JUMPDEST ISZERO PUSH2 0x121C JUMPI PUSH1 0x40 MLOAD PUSH4 0x5274AFE7 PUSH1 0xE0 SHL DUP2 MSTORE PUSH1 0x1 PUSH1 0x1 PUSH1 0xA0 SHL SUB DUP6 AND PUSH1 0x4 DUP3 ADD MSTORE PUSH1 0x24 ADD PUSH2 0x6C3 JUMP JUMPDEST POP POP POP POP JUMP JUMPDEST PUSH1 0x2 SLOAD PUSH1 0xFF AND PUSH2 0x750 JUMPI PUSH1 0x40 MLOAD PUSH4 0x8DFC202B PUSH1 0xE0 SHL DUP2 MSTORE PUSH1 0x4 ADD PUSH1 0x40 MLOAD DUP1 SWAP2 SUB SWAP1 REVERT JUMPDEST PUSH1 0x0 DUP1 DUP4 PUSH1 0x1F DUP5 ADD SLT PUSH2 0x1257 JUMPI PUSH1 0x0 DUP1 REVERT JUMPDEST POP DUP2 CALLDATALOAD PUSH8 0xFFFFFFFFFFFFFFFF DUP2 GT ISZERO PUSH2 0x126F JUMPI PUSH1 0x0 DUP1 REVERT JUMPDEST PUSH1 0x20 DUP4 ADD SWAP2 POP DUP4 PUSH1 0x20 DUP3 DUP6 ADD ADD GT ISZERO PUSH2 0x1287 JUMPI PUSH1 0x0 DUP1 REVERT JUMPDEST SWAP3 POP SWAP3 SWAP1 POP JUMP JUMPDEST PUSH1 0x0 DUP1 PUSH1 0x20 DUP4 DUP6 SUB SLT ISZERO PUSH2 0x12A1 JUMPI PUSH1 0x0 DUP1 REVERT JUMPDEST DUP3 CALLDATALOAD PUSH8 0xFFFFFFFFFFFFFFFF DUP2 GT ISZERO PUSH2 0x12B8 JUMPI PUSH1 0x0 DUP1 REVERT JUMPDEST PUSH2 0x12C4 DUP6 DUP3 DUP7 ADD PUSH2 0x1245 JUMP JUMPDEST SWAP1 SWAP7 SWAP1 SWAP6 POP SWAP4 POP POP POP POP JUMP JUMPDEST DUP1 CALLDATALOAD PUSH1 0x1 PUSH1 0x1 PUSH1 0xA0 SHL SUB DUP2 AND DUP2 EQ PUSH2 0x12E7 JUMPI PUSH1 0x0 DUP1 REVERT JUMPDEST SWAP2 SWAP1 POP JUMP JUMPDEST PUSH1 0x0 PUSH1 0x20 DUP3 DUP5 SUB SLT ISZERO PUSH2 0x12FE JUMPI PUSH1 0x0 DUP1 REVERT JUMPDEST PUSH2 0x1307 DUP3 PUSH2 0x12D0 JUMP JUMPDEST SWAP4 SWAP3 POP POP POP JUMP JUMPDEST PUSH1 0x0 DUP1 PUSH1 0x0 PUSH1 0x40 DUP5 DUP7 SUB SLT ISZERO PUSH2 0x1323 JUMPI PUSH1 0x0 DUP1 REVERT JUMPDEST PUSH2 0x132C DUP5 PUSH2 0x12D0 JUMP JUMPDEST SWAP3 POP PUSH1 0x20 DUP5 ADD CALLDATALOAD PUSH8 0xFFFFFFFFFFFFFFFF DUP2 GT ISZERO PUSH2 0x1348 JUMPI PUSH1 0x0 DUP1 REVERT JUMPDEST PUSH2 0x1354 DUP7 DUP3 DUP8 ADD PUSH2 0x1245 JUMP JUMPDEST SWAP5 SWAP8 SWAP1 SWAP7 POP SWAP4 SWAP5 POP POP POP POP JUMP JUMPDEST PUSH1 0x0 PUSH1 0x20 DUP3 DUP5 SUB SLT ISZERO PUSH2 0x1373 JUMPI PUSH1 0x0 DUP1 REVERT JUMPDEST POP CALLDATALOAD SWAP2 SWAP1 POP JUMP JUMPDEST PUSH1 0x0 DUP1 PUSH1 0x40 DUP4 DUP6 SUB SLT ISZERO PUSH2 0x138D JUMPI PUSH1 0x0 DUP1 REVERT JUMPDEST PUSH2 0x1396 DUP4 PUSH2 0x12D0 JUMP JUMPDEST SWAP5 PUSH1 0x20 SWAP4 SWAP1 SWAP4 ADD CALLDATALOAD SWAP4 POP POP POP JUMP JUMPDEST PUSH1 0x0 DUP1 PUSH1 0x40 DUP4 DUP6 SUB SLT ISZERO PUSH2 0x13B7 JUMPI PUSH1 0x0 DUP1 REVERT JUMPDEST PUSH2 0x13C0 DUP4 PUSH2 0x12D0 JUMP JUMPDEST SWAP2 POP PUSH1 0x20 DUP4 ADD CALLDATALOAD DUP1 ISZERO ISZERO DUP2 EQ PUSH2 0x13D5 JUMPI PUSH1 0x0 DUP1 REVERT JUMPDEST DUP1 SWAP2 POP POP SWAP3 POP SWAP3 SWAP1 POP JUMP JUMPDEST PUSH1 0x0 PUSH1 0x20 DUP3 DUP5 SUB SLT ISZERO PUSH2 0x13F2 JUMPI PUSH1 0x0 DUP1 REVERT JUMPDEST POP MLOAD SWAP2 SWAP1 POP JUMP JUMPDEST PUSH4 0x4E487B71 PUSH1 0xE0 SHL PUSH1 0x0 MSTORE PUSH1 0x11 PUSH1 0x4 MSTORE PUSH1 0x24 PUSH1 0x0 REVERT JUMPDEST DUP2 DUP2 SUB DUP2 DUP2 GT ISZERO PUSH2 0x65E JUMPI PUSH2 0x65E PUSH2 0x13F9 JUMP JUMPDEST DUP2 DUP4 DUP3 CALLDATACOPY PUSH1 0x0 SWAP2 ADD SWAP1 DUP2 MSTORE SWAP2 SWAP1 POP JUMP JUMPDEST PUSH1 0x0 PUSH1 0x1 DUP3 ADD PUSH2 0x1444 JUMPI PUSH2 0x1444 PUSH2 0x13F9 JUMP JUMPDEST POP PUSH1 0x1 ADD SWAP1 JUMP JUMPDEST DUP1 DUP3 MUL DUP2 ISZERO DUP3 DUP3 DIV DUP5 EQ OR PUSH2 0x65E JUMPI PUSH2 0x65E PUSH2 0x13F9 JUMP JUMPDEST PUSH1 0x0 DUP3 PUSH2 0x147F JUMPI PUSH4 0x4E487B71 PUSH1 0xE0 SHL PUSH1 0x0 MSTORE PUSH1 0x12 PUSH1 0x4 MSTORE PUSH1 0x24 PUSH1 0x0 REVERT JUMPDEST POP DIV SWAP1 JUMP JUMPDEST DUP1 DUP3 ADD DUP1 DUP3 GT ISZERO PUSH2 0x65E JUMPI PUSH2 0x65E PUSH2 0x13F9 JUMP INVALID LOG2 PUSH5 0x6970667358 0x22 SLT KECCAK256 PUSH30 0x1696C271BFFFD48DB92F988491F2A6AA2582CC4FFF9DFCC66D5FD93F2C6 DUP14 PUSH5 0x736F6C6343 STOP ADDMOD EQ STOP CALLER "},"methodIdentifiers":{"REFERRAL_ALLOCATION()":"d882be1b","accrueReward(address,uint256)":"bdbc24f7","claimRewards()":"372500ab","codeToReferrer(bytes32)":"47c30cbd","distributors(address)":"cc642784","emergencyWithdraw(address,uint256)":"95ccea67","getReferrerFromCode(string)":"28b43f2d","getReferrerStats(address)":"7e396110","getRemainingAllocation()":"0949fd3f","isCodeAvailable(string)":"b24f4b8d","linkUserToReferrer(address,string)":"388bdb39","maxRewardPerSwap()":"bd3453ab","minSwapVolumeUsd()":"dcf09758","owner()":"8da5cb5b","pause()":"8456cb59","paused()":"5c975abb","pendingRewards(address)":"31d7a262","pilotToken()":"39c3b99c","referralCount(address)":"db74559b","referredVolume(address)":"34421a0a","referrerCodes(address)":"d5ab6f50","registerReferralCode(string)":"59fb7752","renounceOwnership()":"715018a6","rewardRatePerDollar()":"2e8de1d4","setDistributor(address,bool)":"d59ba0df","setMaxRewardPerSwap(uint256)":"78c97de4","setMinSwapVolume(uint256)":"eec33872","setRewardRate(uint256)":"9e447fc6","totalEarned(address)":"649aca4a","totalRewardsDistributed()":"ee172546","transferOwnership(address)":"f2fde38b","unpause()":"3f4ba83a","userReferrer(address)":"7c3fcc38"}}}}}