{"src/FeeCollectorV2.sol":{"FeeCollectorV2":{"abi":[{"inputs":[{"internalType":"address","name":"_pilotToken","type":"address"},{"internalType":"address","name":"_treasury","type":"address"},{"internalType":"address","name":"_referralPool","type":"address"},{"internalType":"address","name":"_dexRouter","type":"address"},{"internalType":"address","name":"_wbnb","type":"address"}],"stateMutability":"nonpayable","type":"constructor"},{"inputs":[],"name":"EnforcedPause","type":"error"},{"inputs":[],"name":"ExpectedPause","type":"error"},{"inputs":[{"internalType":"address","name":"owner","type":"address"}],"name":"OwnableInvalidOwner","type":"error"},{"inputs":[{"internalType":"address","name":"account","type":"address"}],"name":"OwnableUnauthorizedAccount","type":"error"},{"inputs":[],"name":"ReentrancyGuardReentrantCall","type":"error"},{"inputs":[{"internalType":"address","name":"token","type":"address"}],"name":"SafeERC20FailedOperation","type":"error"},{"anonymous":false,"inputs":[{"indexed":true,"internalType":"address","name":"oldRouter","type":"address"},{"indexed":true,"internalType":"address","name":"newRouter","type":"address"}],"name":"DexRouterUpdated","type":"event"},{"anonymous":false,"inputs":[{"indexed":true,"internalType":"address","name":"token","type":"address"},{"indexed":false,"internalType":"uint256","name":"amount","type":"uint256"}],"name":"FeesCollected","type":"event"},{"anonymous":false,"inputs":[{"indexed":false,"internalType":"uint256","name":"burnAmount","type":"uint256"},{"indexed":false,"internalType":"uint256","name":"treasuryAmount","type":"uint256"},{"indexed":false,"internalType":"uint256","name":"referralAmount","type":"uint256"}],"name":"FeesDistributed","type":"event"},{"anonymous":false,"inputs":[{"indexed":false,"internalType":"uint256","name":"oldAmount","type":"uint256"},{"indexed":false,"internalType":"uint256","name":"newAmount","type":"uint256"}],"name":"MinDistributionAmountUpdated","type":"event"},{"anonymous":false,"inputs":[{"indexed":true,"internalType":"address","name":"previousOwner","type":"address"},{"indexed":true,"internalType":"address","name":"newOwner","type":"address"}],"name":"OwnershipTransferred","type":"event"},{"anonymous":false,"inputs":[{"indexed":false,"internalType":"address","name":"account","type":"address"}],"name":"Paused","type":"event"},{"anonymous":false,"inputs":[{"indexed":false,"internalType":"uint256","name":"bnbSpent","type":"uint256"},{"indexed":false,"internalType":"uint256","name":"pilotBurned","type":"uint256"}],"name":"PilotBurned","type":"event"},{"anonymous":false,"inputs":[{"indexed":true,"internalType":"address","name":"oldPool","type":"address"},{"indexed":true,"internalType":"address","name":"newPool","type":"address"}],"name":"ReferralPoolUpdated","type":"event"},{"anonymous":false,"inputs":[{"indexed":true,"internalType":"address","name":"oldTreasury","type":"address"},{"indexed":true,"internalType":"address","name":"newTreasury","type":"address"}],"name":"TreasuryUpdated","type":"event"},{"anonymous":false,"inputs":[{"indexed":false,"internalType":"address","name":"account","type":"address"}],"name":"Unpaused","type":"event"},{"inputs":[],"name":"BURN_PERCENT","outputs":[{"internalType":"uint256","name":"","type":"uint256"}],"stateMutability":"view","type":"function"},{"inputs":[],"name":"REFERRAL_PERCENT","outputs":[{"internalType":"uint256","name":"","type":"uint256"}],"stateMutability":"view","type":"function"},{"inputs":[],"name":"TREASURY_PERCENT","outputs":[{"internalType":"uint256","name":"","type":"uint256"}],"stateMutability":"view","type":"function"},{"inputs":[{"internalType":"address","name":"token","type":"address"},{"internalType":"uint256","name":"minBnbOut","type":"uint256"}],"name":"convertTokenToBnb","outputs":[],"stateMutability":"nonpayable","type":"function"},{"inputs":[],"name":"dexRouter","outputs":[{"internalType":"address","name":"","type":"address"}],"stateMutability":"view","type":"function"},{"inputs":[{"internalType":"uint256","name":"minPilotOut","type":"uint256"}],"name":"distributeFees","outputs":[],"stateMutability":"nonpayable","type":"function"},{"inputs":[{"internalType":"address","name":"token","type":"address"},{"internalType":"uint256","name":"amount","type":"uint256"}],"name":"emergencyWithdraw","outputs":[],"stateMutability":"nonpayable","type":"function"},{"inputs":[],"name":"minDistributionAmount","outputs":[{"internalType":"uint256","name":"","type":"uint256"}],"stateMutability":"view","type":"function"},{"inputs":[],"name":"owner","outputs":[{"internalType":"address","name":"","type":"address"}],"stateMutability":"view","type":"function"},{"inputs":[],"name":"pause","outputs":[],"stateMutability":"nonpayable","type":"function"},{"inputs":[],"name":"paused","outputs":[{"internalType":"bool","name":"","type":"bool"}],"stateMutability":"view","type":"function"},{"inputs":[],"name":"pilotToken","outputs":[{"internalType":"contract IERC20","name":"","type":"address"}],"stateMutability":"view","type":"function"},{"inputs":[],"name":"referralPool","outputs":[{"internalType":"address","name":"","type":"address"}],"stateMutability":"view","type":"function"},{"inputs":[],"name":"renounceOwnership","outputs":[],"stateMutability":"nonpayable","type":"function"},{"inputs":[{"internalType":"address","name":"_dexRouter","type":"address"}],"name":"setDexRouter","outputs":[],"stateMutability":"nonpayable","type":"function"},{"inputs":[{"internalType":"uint256","name":"_minAmount","type":"uint256"}],"name":"setMinDistributionAmount","outputs":[],"stateMutability":"nonpayable","type":"function"},{"inputs":[{"internalType":"address","name":"_referralPool","type":"address"}],"name":"setReferralPool","outputs":[],"stateMutability":"nonpayable","type":"function"},{"inputs":[{"internalType":"address","name":"_treasury","type":"address"}],"name":"setTreasury","outputs":[],"stateMutability":"nonpayable","type":"function"},{"inputs":[],"name":"totalFeesCollected","outputs":[{"internalType":"uint256","name":"","type":"uint256"}],"stateMutability":"view","type":"function"},{"inputs":[],"name":"totalPilotBurned","outputs":[{"internalType":"uint256","name":"","type":"uint256"}],"stateMutability":"view","type":"function"},{"inputs":[{"internalType":"address","name":"newOwner","type":"address"}],"name":"transferOwnership","outputs":[],"stateMutability":"nonpayable","type":"function"},{"inputs":[],"name":"treasury","outputs":[{"internalType":"address","name":"","type":"address"}],"stateMutability":"view","type":"function"},{"inputs":[],"name":"unpause","outputs":[],"stateMutability":"nonpayable","type":"function"},{"inputs":[],"name":"wbnb","outputs":[{"internalType":"address","name":"","type":"address"}],"stateMutability":"view","type":"function"},{"stateMutability":"payable","type":"receive"}],"evm":{"bytecode":{"linkReferences":{},"object":"60a060405267016345785d8a00006006553480156200001d57600080fd5b5060405162001a9e38038062001a9e833981016040819052620000409162000253565b33806200006857604051631e4fbdf760e01b8152600060048201526024015b60405180910390fd5b6200007381620001e6565b50600180556001600160a01b038516620000d05760405162461bcd60e51b815260206004820152601560248201527f496e76616c69642050494c4f542061646472657373000000000000000000000060448201526064016200005f565b6001600160a01b038416620001285760405162461bcd60e51b815260206004820152601860248201527f496e76616c69642074726561737572792061646472657373000000000000000060448201526064016200005f565b6001600160a01b038316620001805760405162461bcd60e51b815260206004820152601d60248201527f496e76616c696420726566657272616c20706f6f6c206164647265737300000060448201526064016200005f565b6001600160a01b039485166080526002805494861661010002610100600160a81b031990951694909417909355600380549285166001600160a01b03199384161790556004805491851691831691909117905560058054929093169116179055620002c3565b600080546001600160a01b038381166001600160a01b0319831681178455604051919092169283917f8be0079c531659141344cd1fd0a4f28419497f9722a3daafe3b4186f6b6457e09190a35050565b80516001600160a01b03811681146200024e57600080fd5b919050565b600080600080600060a086880312156200026c57600080fd5b620002778662000236565b9450620002876020870162000236565b9350620002976040870162000236565b9250620002a76060870162000236565b9150620002b76080870162000236565b90509295509295909350565b6080516117a3620002fb600039600081816102b0015281816105d201528181610ff60152818161113a01526111b901526117a36000f3fe60806040526004361061014f5760003560e01c806361d027b3116100b657806395ccea671161006f57806395ccea67146103e25780639c98676414610402578063a42f765b14610417578063f0f4426014610437578063f2fde38b14610457578063f72f863b1461047757600080fd5b806361d027b314610340578063715018a61461036557806383d5e7261461037a5780638456cb591461038f5780638d72647e146103a45780638da5cb5b146103c457600080fd5b806333a8915a1161010857806333a8915a1461028957806339c3b99c1461029e5780633f4ba83a146102d25780635c975abb146102e75780636029bf9f1461030a57806360c6d8ae1461032a57600080fd5b8063050ae660146101b05780630758d924146101d25780630a65fb211461020f5780630c4b1396146102335780631e4df938146102535780632b9fcfd01461027357600080fd5b366101ab5761015c610497565b346007600082825461016e919061157a565b90915550506040513481526000907f9dc46f23cfb5ddcad0ae7ea2be38d47fec07bb9382ec7e564efc69e036dd66ce9060200160405180910390a2005b600080fd5b3480156101bc57600080fd5b506101d06101cb3660046115a9565b6104bd565b005b3480156101de57600080fd5b506004546101f2906001600160a01b031681565b6040516001600160a01b0390911681526020015b60405180910390f35b34801561021b57600080fd5b5061022560065481565b604051908152602001610206565b34801561023f57600080fd5b506101d061024e3660046115cb565b610572565b34801561025f57600080fd5b506003546101f2906001600160a01b031681565b34801561027f57600080fd5b5061022560085481565b34801561029557600080fd5b50610225600581565b3480156102aa57600080fd5b506101f27f000000000000000000000000000000000000000000000000000000000000000081565b3480156102de57600080fd5b506101d0610889565b3480156102f357600080fd5b5060025460ff166040519015158152602001610206565b34801561031657600080fd5b506101d06103253660046115f5565b610899565b34801561033657600080fd5b5061022560075481565b34801561034c57600080fd5b506002546101f29061010090046001600160a01b031681565b34801561037157600080fd5b506101d0610b4b565b34801561038657600080fd5b50610225605081565b34801561039b57600080fd5b506101d0610b5d565b3480156103b057600080fd5b506005546101f2906001600160a01b031681565b3480156103d057600080fd5b506000546001600160a01b03166101f2565b3480156103ee57600080fd5b506101d06103fd3660046115cb565b610b6d565b34801561040e57600080fd5b50610225600f81565b34801561042357600080fd5b506101d06104323660046115f5565b610c71565b34801561044357600080fd5b506101d06104523660046115a9565b610cbe565b34801561046357600080fd5b506101d06104723660046115a9565b610d76565b34801561048357600080fd5b506101d06104923660046115a9565b610db1565b60025460ff16156104bb5760405163d93c066560e01b815260040160405180910390fd5b565b6104c5610e5a565b6001600160a01b0381166105205760405162461bcd60e51b815260206004820152601d60248201527f496e76616c696420726566657272616c20706f6f6c206164647265737300000060448201526064015b60405180910390fd5b600380546001600160a01b038381166001600160a01b0319831681179093556040519116919082907f66d1693c687b421f540b37c3682deeaee7fe381c4d000c01701498e6f6ed04c890600090a35050565b61057a610e5a565b610582610e87565b61058a610497565b6001600160a01b0382166105d05760405162461bcd60e51b815260206004820152600d60248201526c24b73b30b634b2103a37b5b2b760991b6044820152606401610517565b7f00000000000000000000000000000000000000000000000000000000000000006001600160a01b0316826001600160a01b0316036106485760405162461bcd60e51b815260206004820152601460248201527310d85b9b9bdd0818dbdb9d995c9d0814125313d560621b6044820152606401610517565b6040516370a0823160e01b81523060048201526000906001600160a01b038416906370a0823190602401602060405180830381865afa15801561068f573d6000803e3d6000fd5b505050506040513d601f19601f820116820180604052508101906106b3919061160e565b9050600081116106fc5760405162461bcd60e51b8152602060048201526014602482015273139bc81d1bdad95b9cc81d1bc818dbdb9d995c9d60621b6044820152606401610517565b600454610716906001600160a01b03858116911683610eb1565b604080516002808252606082018352600092602083019080368337019050509050838160008151811061074b5761074b611627565b6001600160a01b03928316602091820292909201015260055482519116908290600190811061077c5761077c611627565b6001600160a01b03928316602091820292909201015260045460009116838584306107a94261012c61157a565b6040516024016107bd959493929190611681565b60408051601f198184030181529181526020820180516001600160e01b031663791ac94760e01b179052516107f291906116bd565b6000604051808303816000865af19150503d806000811461082f576040519150601f19603f3d011682016040523d82523d6000602084013e610834565b606091505b50509050806108795760405162461bcd60e51b8152602060048201526011602482015270151bdad95b881cddd85c0819985a5b1959607a1b6044820152606401610517565b50505061088560018055565b5050565b610891610e5a565b6104bb610f41565b6108a1610e5a565b6108a9610e87565b6108b1610497565b60065447908110156109115760405162461bcd60e51b8152602060048201526024808201527f42656c6f77206d696e696d756d20646973747269627574696f6e2074687265736044820152631a1bdb1960e21b6064820152608401610517565b60006064610920600f846116ec565b61092a9190611703565b90506000606461093b6050856116ec565b6109459190611703565b90506000816109548486611725565b61095e9190611725565b905060008311801561097a57506004546001600160a01b031615155b801561099057506005546001600160a01b031615155b1561099f5761099f8386610f93565b8115610a4f5760025460405160009161010090046001600160a01b03169084908381818185875af1925050503d80600081146109f7576040519150601f19603f3d011682016040523d82523d6000602084013e6109fc565b606091505b5050905080610a4d5760405162461bcd60e51b815260206004820152601860248201527f5472656173757279207472616e73666572206661696c656400000000000000006044820152606401610517565b505b8015610afa576003546040516000916001600160a01b03169083908381818185875af1925050503d8060008114610aa2576040519150601f19603f3d011682016040523d82523d6000602084013e610aa7565b606091505b5050905080610af85760405162461bcd60e51b815260206004820152601860248201527f526566657272616c207472616e73666572206661696c656400000000000000006044820152606401610517565b505b60408051848152602081018490529081018290527f312c5308f42848705a866c73dec11fd0783c2d64aac6a97e94467062ad3f40589060600160405180910390a150505050610b4860018055565b50565b610b53610e5a565b6104bb6000611303565b610b65610e5a565b6104bb611353565b610b75610e5a565b6001600160a01b038216610c5d5747811115610bca5760405162461bcd60e51b8152602060048201526014602482015273496e73756666696369656e742062616c616e636560601b6044820152606401610517565b604051600090339083908381818185875af1925050503d8060008114610c0c576040519150601f19603f3d011682016040523d82523d6000602084013e610c11565b606091505b5050905080610c585760405162461bcd60e51b8152602060048201526013602482015272109390881d1c985b9cd9995c8819985a5b1959606a1b6044820152606401610517565b505050565b6108856001600160a01b0383163383611390565b610c79610e5a565b600680549082905560408051828152602081018490527f3ed3c95bab7efd0ace27d48873faeb1b6e21aec077992bbe3c432c805bc5fae9910160405180910390a15050565b610cc6610e5a565b6001600160a01b038116610d1c5760405162461bcd60e51b815260206004820152601860248201527f496e76616c6964207472656173757279206164647265737300000000000000006044820152606401610517565b600280546001600160a01b03838116610100818102610100600160a81b031985161790945560405193909204169182907f4ab5be82436d353e61ca18726e984e561f5c1cc7c6d38b29d2553c790434705a90600090a35050565b610d7e610e5a565b6001600160a01b038116610da857604051631e4fbdf760e01b815260006004820152602401610517565b610b4881611303565b610db9610e5a565b6001600160a01b038116610e085760405162461bcd60e51b8152602060048201526016602482015275496e76616c696420726f75746572206164647265737360501b6044820152606401610517565b600480546001600160a01b038381166001600160a01b0319831681179093556040519116919082907ff296fa3e8eb1c1d46e2d1eafbd38e92f916e42b9ce1573a1cc98b2d0e4e5e86290600090a35050565b6000546001600160a01b031633146104bb5760405163118cdaa760e01b8152336004820152602401610517565b600260015403610eaa57604051633ee5aeb560e01b815260040160405180910390fd5b6002600155565b604051636eb1769f60e11b81523060048201526001600160a01b0383811660248301526000919085169063dd62ed3e90604401602060405180830381865afa158015610f01573d6000803e3d6000fd5b505050506040513d601f19601f82011682018060405250810190610f25919061160e565b9050610f3b8484610f36858561157a565b6113ef565b50505050565b610f4961147f565b6002805460ff191690557f5db9ee0a495bf2e6ff9c91a7834c1ba4fdd244a5e8aa4e537bd38aeae4b073aa335b6040516001600160a01b03909116815260200160405180910390a1565b604080516002808252606082018352600092602083019080368337505060055482519293506001600160a01b031691839150600090610fd457610fd4611627565b60200260200101906001600160a01b031690816001600160a01b0316815250507f00000000000000000000000000000000000000000000000000000000000000008160018151811061102857611028611627565b6001600160a01b03928316602091820292909201015260045460009116848484306110554261012c61157a565b6040516024016110689493929190611738565b60408051601f198184030181529181526020820180516001600160e01b031663b6f9de9560e01b1790525161109d91906116bd565b60006040518083038185875af1925050503d80600081146110da576040519150601f19603f3d011682016040523d82523d6000602084013e6110df565b606091505b50509050806111225760405162461bcd60e51b815260206004820152600f60248201526e111156081cddd85c0819985a5b1959608a1b6044820152606401610517565b6040516370a0823160e01b81523060048201526000907f00000000000000000000000000000000000000000000000000000000000000006001600160a01b0316906370a0823190602401602060405180830381865afa158015611189573d6000803e3d6000fd5b505050506040513d601f19601f820116820180604052508101906111ad919061160e565b905080156112fc5760007f00000000000000000000000000000000000000000000000000000000000000006001600160a01b0316826040516024016111f491815260200190565b60408051601f198184030181529181526020820180516001600160e01b03166346d9fc9b60e11b1790525161122991906116bd565b6000604051808303816000865af19150503d8060008114611266576040519150601f19603f3d011682016040523d82523d6000602084013e61126b565b606091505b50509050806112aa5760405162461bcd60e51b815260206004820152600b60248201526a109d5c9b8819985a5b195960aa1b6044820152606401610517565b81600860008282546112bc919061157a565b909155505060408051878152602081018490527fa35443c918552547ba2ae4a6d6544784ddede6b26b3366d112527e973f60f90a910160405180910390a1505b5050505050565b600080546001600160a01b038381166001600160a01b0319831681178455604051919092169283917f8be0079c531659141344cd1fd0a4f28419497f9722a3daafe3b4186f6b6457e09190a35050565b61135b610497565b6002805460ff191660011790557f62e78cea01bee320cd4e420270b5ea74000d11b0c9f74754ebdbfc544b05a258610f763390565b6040516001600160a01b03838116602483015260448201839052610c5891859182169063a9059cbb906064015b604051602081830303815290604052915060e01b6020820180516001600160e01b0383818316178352505050506114a2565b604080516001600160a01b038416602482015260448082018490528251808303909101815260649091019091526020810180516001600160e01b031663095ea7b360e01b1790526114408482611513565b610f3b576040516001600160a01b0384811660248301526000604483015261147591869182169063095ea7b3906064016113bd565b610f3b84826114a2565b60025460ff166104bb57604051638dfc202b60e01b815260040160405180910390fd5b600080602060008451602086016000885af1806114c5576040513d6000823e3d81fd5b50506000513d915081156114dd5780600114156114ea565b6001600160a01b0384163b155b15610f3b57604051635274afe760e01b81526001600160a01b0385166004820152602401610517565b6000806000806020600086516020880160008a5af192503d91506000519050828015611558575081156115495780600114611558565b6000866001600160a01b03163b115b93505050505b92915050565b634e487b7160e01b600052601160045260246000fd5b8082018082111561155e5761155e611564565b80356001600160a01b03811681146115a457600080fd5b919050565b6000602082840312156115bb57600080fd5b6115c48261158d565b9392505050565b600080604083850312156115de57600080fd5b6115e78361158d565b946020939093013593505050565b60006020828403121561160757600080fd5b5035919050565b60006020828403121561162057600080fd5b5051919050565b634e487b7160e01b600052603260045260246000fd5b600081518084526020808501945080840160005b838110156116765781516001600160a01b031687529582019590820190600101611651565b509495945050505050565b85815284602082015260a0604082015260006116a060a083018661163d565b6001600160a01b0394909416606083015250608001529392505050565b6000825160005b818110156116de57602081860181015185830152016116c4565b506000920191825250919050565b808202811582820484141761155e5761155e611564565b60008261172057634e487b7160e01b600052601260045260246000fd5b500490565b8181038181111561155e5761155e611564565b848152608060208201526000611751608083018661163d565b6001600160a01b0394909416604083015250606001529291505056fea264697066735822122076cd931f87c9c000ca6bd479946e80144b97595b0967d25cddf820903736564964736f6c63430008140033","opcodes":"PUSH1 0xA0 PUSH1 0x40 MSTORE PUSH8 0x16345785D8A0000 PUSH1 0x6 SSTORE CALLVALUE DUP1 ISZERO PUSH3 0x1D JUMPI PUSH1 0x0 DUP1 REVERT JUMPDEST POP PUSH1 0x40 MLOAD PUSH3 0x1A9E CODESIZE SUB DUP1 PUSH3 0x1A9E DUP4 CODECOPY DUP2 ADD PUSH1 0x40 DUP2 SWAP1 MSTORE PUSH3 0x40 SWAP2 PUSH3 0x253 JUMP JUMPDEST CALLER DUP1 PUSH3 0x68 JUMPI PUSH1 0x40 MLOAD PUSH4 0x1E4FBDF7 PUSH1 0xE0 SHL DUP2 MSTORE PUSH1 0x0 PUSH1 0x4 DUP3 ADD MSTORE PUSH1 0x24 ADD JUMPDEST PUSH1 0x40 MLOAD DUP1 SWAP2 SUB SWAP1 REVERT JUMPDEST PUSH3 0x73 DUP2 PUSH3 0x1E6 JUMP JUMPDEST POP PUSH1 0x1 DUP1 SSTORE PUSH1 0x1 PUSH1 0x1 PUSH1 0xA0 SHL SUB DUP6 AND PUSH3 0xD0 JUMPI PUSH1 0x40 MLOAD PUSH3 0x461BCD PUSH1 0xE5 SHL DUP2 MSTORE PUSH1 0x20 PUSH1 0x4 DUP3 ADD MSTORE PUSH1 0x15 PUSH1 0x24 DUP3 ADD MSTORE PUSH32 0x496E76616C69642050494C4F5420616464726573730000000000000000000000 PUSH1 0x44 DUP3 ADD MSTORE PUSH1 0x64 ADD PUSH3 0x5F JUMP JUMPDEST PUSH1 0x1 PUSH1 0x1 PUSH1 0xA0 SHL SUB DUP5 AND PUSH3 0x128 JUMPI PUSH1 0x40 MLOAD PUSH3 0x461BCD PUSH1 0xE5 SHL DUP2 MSTORE PUSH1 0x20 PUSH1 0x4 DUP3 ADD MSTORE PUSH1 0x18 PUSH1 0x24 DUP3 ADD MSTORE PUSH32 0x496E76616C696420747265617375727920616464726573730000000000000000 PUSH1 0x44 DUP3 ADD MSTORE PUSH1 0x64 ADD PUSH3 0x5F JUMP JUMPDEST PUSH1 0x1 PUSH1 0x1 PUSH1 0xA0 SHL SUB DUP4 AND PUSH3 0x180 JUMPI PUSH1 0x40 MLOAD PUSH3 0x461BCD PUSH1 0xE5 SHL DUP2 MSTORE PUSH1 0x20 PUSH1 0x4 DUP3 ADD MSTORE PUSH1 0x1D PUSH1 0x24 DUP3 ADD MSTORE PUSH32 0x496E76616C696420726566657272616C20706F6F6C2061646472657373000000 PUSH1 0x44 DUP3 ADD MSTORE PUSH1 0x64 ADD PUSH3 0x5F JUMP JUMPDEST PUSH1 0x1 PUSH1 0x1 PUSH1 0xA0 SHL SUB SWAP5 DUP6 AND PUSH1 0x80 MSTORE PUSH1 0x2 DUP1 SLOAD SWAP5 DUP7 AND PUSH2 0x100 MUL PUSH2 0x100 PUSH1 0x1 PUSH1 0xA8 SHL SUB NOT SWAP1 SWAP6 AND SWAP5 SWAP1 SWAP5 OR SWAP1 SWAP4 SSTORE PUSH1 0x3 DUP1 SLOAD SWAP3 DUP6 AND PUSH1 0x1 PUSH1 0x1 PUSH1 0xA0 SHL SUB NOT SWAP4 DUP5 AND OR SWAP1 SSTORE PUSH1 0x4 DUP1 SLOAD SWAP2 DUP6 AND SWAP2 DUP4 AND SWAP2 SWAP1 SWAP2 OR SWAP1 SSTORE PUSH1 0x5 DUP1 SLOAD SWAP3 SWAP1 SWAP4 AND SWAP2 AND OR SWAP1 SSTORE PUSH3 0x2C3 JUMP JUMPDEST PUSH1 0x0 DUP1 SLOAD PUSH1 0x1 PUSH1 0x1 PUSH1 0xA0 SHL SUB DUP4 DUP2 AND PUSH1 0x1 PUSH1 0x1 PUSH1 0xA0 SHL SUB NOT DUP4 AND DUP2 OR DUP5 SSTORE PUSH1 0x40 MLOAD SWAP2 SWAP1 SWAP3 AND SWAP3 DUP4 SWAP2 PUSH32 0x8BE0079C531659141344CD1FD0A4F28419497F9722A3DAAFE3B4186F6B6457E0 SWAP2 SWAP1 LOG3 POP POP JUMP JUMPDEST DUP1 MLOAD PUSH1 0x1 PUSH1 0x1 PUSH1 0xA0 SHL SUB DUP2 AND DUP2 EQ PUSH3 0x24E JUMPI PUSH1 0x0 DUP1 REVERT JUMPDEST SWAP2 SWAP1 POP JUMP JUMPDEST PUSH1 0x0 DUP1 PUSH1 0x0 DUP1 PUSH1 0x0 PUSH1 0xA0 DUP7 DUP9 SUB SLT ISZERO PUSH3 0x26C JUMPI PUSH1 0x0 DUP1 REVERT JUMPDEST PUSH3 0x277 DUP7 PUSH3 0x236 JUMP JUMPDEST SWAP5 POP PUSH3 0x287 PUSH1 0x20 DUP8 ADD PUSH3 0x236 JUMP JUMPDEST SWAP4 POP PUSH3 0x297 PUSH1 0x40 DUP8 ADD PUSH3 0x236 JUMP JUMPDEST SWAP3 POP PUSH3 0x2A7 PUSH1 0x60 DUP8 ADD PUSH3 0x236 JUMP JUMPDEST SWAP2 POP PUSH3 0x2B7 PUSH1 0x80 DUP8 ADD PUSH3 0x236 JUMP JUMPDEST SWAP1 POP SWAP3 SWAP6 POP SWAP3 SWAP6 SWAP1 SWAP4 POP JUMP JUMPDEST PUSH1 0x80 MLOAD PUSH2 0x17A3 PUSH3 0x2FB PUSH1 0x0 CODECOPY PUSH1 0x0 DUP2 DUP2 PUSH2 0x2B0 ADD MSTORE DUP2 DUP2 PUSH2 0x5D2 ADD MSTORE DUP2 DUP2 PUSH2 0xFF6 ADD MSTORE DUP2 DUP2 PUSH2 0x113A ADD MSTORE PUSH2 0x11B9 ADD MSTORE PUSH2 0x17A3 PUSH1 0x0 RETURN INVALID PUSH1 0x80 PUSH1 0x40 MSTORE PUSH1 0x4 CALLDATASIZE LT PUSH2 0x14F JUMPI PUSH1 0x0 CALLDATALOAD PUSH1 0xE0 SHR DUP1 PUSH4 0x61D027B3 GT PUSH2 0xB6 JUMPI DUP1 PUSH4 0x95CCEA67 GT PUSH2 0x6F JUMPI DUP1 PUSH4 0x95CCEA67 EQ PUSH2 0x3E2 JUMPI DUP1 PUSH4 0x9C986764 EQ PUSH2 0x402 JUMPI DUP1 PUSH4 0xA42F765B EQ PUSH2 0x417 JUMPI DUP1 PUSH4 0xF0F44260 EQ PUSH2 0x437 JUMPI DUP1 PUSH4 0xF2FDE38B EQ PUSH2 0x457 JUMPI DUP1 PUSH4 0xF72F863B EQ PUSH2 0x477 JUMPI PUSH1 0x0 DUP1 REVERT JUMPDEST DUP1 PUSH4 0x61D027B3 EQ PUSH2 0x340 JUMPI DUP1 PUSH4 0x715018A6 EQ PUSH2 0x365 JUMPI DUP1 PUSH4 0x83D5E726 EQ PUSH2 0x37A JUMPI DUP1 PUSH4 0x8456CB59 EQ PUSH2 0x38F JUMPI DUP1 PUSH4 0x8D72647E EQ PUSH2 0x3A4 JUMPI DUP1 PUSH4 0x8DA5CB5B EQ PUSH2 0x3C4 JUMPI PUSH1 0x0 DUP1 REVERT JUMPDEST DUP1 PUSH4 0x33A8915A GT PUSH2 0x108 JUMPI DUP1 PUSH4 0x33A8915A EQ PUSH2 0x289 JUMPI DUP1 PUSH4 0x39C3B99C EQ PUSH2 0x29E JUMPI DUP1 PUSH4 0x3F4BA83A EQ PUSH2 0x2D2 JUMPI DUP1 PUSH4 0x5C975ABB EQ PUSH2 0x2E7 JUMPI DUP1 PUSH4 0x6029BF9F EQ PUSH2 0x30A JUMPI DUP1 PUSH4 0x60C6D8AE EQ PUSH2 0x32A JUMPI PUSH1 0x0 DUP1 REVERT JUMPDEST DUP1 PUSH4 0x50AE660 EQ PUSH2 0x1B0 JUMPI DUP1 PUSH4 0x758D924 EQ PUSH2 0x1D2 JUMPI DUP1 PUSH4 0xA65FB21 EQ PUSH2 0x20F JUMPI DUP1 PUSH4 0xC4B1396 EQ PUSH2 0x233 JUMPI DUP1 PUSH4 0x1E4DF938 EQ PUSH2 0x253 JUMPI DUP1 PUSH4 0x2B9FCFD0 EQ PUSH2 0x273 JUMPI PUSH1 0x0 DUP1 REVERT JUMPDEST CALLDATASIZE PUSH2 0x1AB JUMPI PUSH2 0x15C PUSH2 0x497 JUMP JUMPDEST CALLVALUE PUSH1 0x7 PUSH1 0x0 DUP3 DUP3 SLOAD PUSH2 0x16E SWAP2 SWAP1 PUSH2 0x157A JUMP JUMPDEST SWAP1 SWAP2 SSTORE POP POP PUSH1 0x40 MLOAD CALLVALUE DUP2 MSTORE PUSH1 0x0 SWAP1 PUSH32 0x9DC46F23CFB5DDCAD0AE7EA2BE38D47FEC07BB9382EC7E564EFC69E036DD66CE SWAP1 PUSH1 0x20 ADD PUSH1 0x40 MLOAD DUP1 SWAP2 SUB SWAP1 LOG2 STOP JUMPDEST PUSH1 0x0 DUP1 REVERT JUMPDEST CALLVALUE DUP1 ISZERO PUSH2 0x1BC JUMPI PUSH1 0x0 DUP1 REVERT JUMPDEST POP PUSH2 0x1D0 PUSH2 0x1CB CALLDATASIZE PUSH1 0x4 PUSH2 0x15A9 JUMP JUMPDEST PUSH2 0x4BD JUMP JUMPDEST STOP JUMPDEST CALLVALUE DUP1 ISZERO PUSH2 0x1DE JUMPI PUSH1 0x0 DUP1 REVERT JUMPDEST POP PUSH1 0x4 SLOAD PUSH2 0x1F2 SWAP1 PUSH1 0x1 PUSH1 0x1 PUSH1 0xA0 SHL SUB AND DUP2 JUMP JUMPDEST PUSH1 0x40 MLOAD PUSH1 0x1 PUSH1 0x1 PUSH1 0xA0 SHL SUB SWAP1 SWAP2 AND DUP2 MSTORE PUSH1 0x20 ADD JUMPDEST PUSH1 0x40 MLOAD DUP1 SWAP2 SUB SWAP1 RETURN JUMPDEST CALLVALUE DUP1 ISZERO PUSH2 0x21B JUMPI PUSH1 0x0 DUP1 REVERT JUMPDEST POP PUSH2 0x225 PUSH1 0x6 SLOAD DUP2 JUMP JUMPDEST PUSH1 0x40 MLOAD SWAP1 DUP2 MSTORE PUSH1 0x20 ADD PUSH2 0x206 JUMP JUMPDEST CALLVALUE DUP1 ISZERO PUSH2 0x23F JUMPI PUSH1 0x0 DUP1 REVERT JUMPDEST POP PUSH2 0x1D0 PUSH2 0x24E CALLDATASIZE PUSH1 0x4 PUSH2 0x15CB JUMP JUMPDEST PUSH2 0x572 JUMP JUMPDEST CALLVALUE DUP1 ISZERO PUSH2 0x25F JUMPI PUSH1 0x0 DUP1 REVERT JUMPDEST POP PUSH1 0x3 SLOAD PUSH2 0x1F2 SWAP1 PUSH1 0x1 PUSH1 0x1 PUSH1 0xA0 SHL SUB AND DUP2 JUMP JUMPDEST CALLVALUE DUP1 ISZERO PUSH2 0x27F JUMPI PUSH1 0x0 DUP1 REVERT JUMPDEST POP PUSH2 0x225 PUSH1 0x8 SLOAD DUP2 JUMP JUMPDEST CALLVALUE DUP1 ISZERO PUSH2 0x295 JUMPI PUSH1 0x0 DUP1 REVERT JUMPDEST POP PUSH2 0x225 PUSH1 0x5 DUP2 JUMP JUMPDEST CALLVALUE DUP1 ISZERO PUSH2 0x2AA JUMPI PUSH1 0x0 DUP1 REVERT JUMPDEST POP PUSH2 0x1F2 PUSH32 0x0 DUP2 JUMP JUMPDEST CALLVALUE DUP1 ISZERO PUSH2 0x2DE JUMPI PUSH1 0x0 DUP1 REVERT JUMPDEST POP PUSH2 0x1D0 PUSH2 0x889 JUMP JUMPDEST CALLVALUE DUP1 ISZERO PUSH2 0x2F3 JUMPI PUSH1 0x0 DUP1 REVERT JUMPDEST POP PUSH1 0x2 SLOAD PUSH1 0xFF AND PUSH1 0x40 MLOAD SWAP1 ISZERO ISZERO DUP2 MSTORE PUSH1 0x20 ADD PUSH2 0x206 JUMP JUMPDEST CALLVALUE DUP1 ISZERO PUSH2 0x316 JUMPI PUSH1 0x0 DUP1 REVERT JUMPDEST POP PUSH2 0x1D0 PUSH2 0x325 CALLDATASIZE PUSH1 0x4 PUSH2 0x15F5 JUMP JUMPDEST PUSH2 0x899 JUMP JUMPDEST CALLVALUE DUP1 ISZERO PUSH2 0x336 JUMPI PUSH1 0x0 DUP1 REVERT JUMPDEST POP PUSH2 0x225 PUSH1 0x7 SLOAD DUP2 JUMP JUMPDEST CALLVALUE DUP1 ISZERO PUSH2 0x34C JUMPI PUSH1 0x0 DUP1 REVERT JUMPDEST POP PUSH1 0x2 SLOAD PUSH2 0x1F2 SWAP1 PUSH2 0x100 SWAP1 DIV PUSH1 0x1 PUSH1 0x1 PUSH1 0xA0 SHL SUB AND DUP2 JUMP JUMPDEST CALLVALUE DUP1 ISZERO PUSH2 0x371 JUMPI PUSH1 0x0 DUP1 REVERT JUMPDEST POP PUSH2 0x1D0 PUSH2 0xB4B JUMP JUMPDEST CALLVALUE DUP1 ISZERO PUSH2 0x386 JUMPI PUSH1 0x0 DUP1 REVERT JUMPDEST POP PUSH2 0x225 PUSH1 0x50 DUP2 JUMP JUMPDEST CALLVALUE DUP1 ISZERO PUSH2 0x39B JUMPI PUSH1 0x0 DUP1 REVERT JUMPDEST POP PUSH2 0x1D0 PUSH2 0xB5D JUMP JUMPDEST CALLVALUE DUP1 ISZERO PUSH2 0x3B0 JUMPI PUSH1 0x0 DUP1 REVERT JUMPDEST POP PUSH1 0x5 SLOAD PUSH2 0x1F2 SWAP1 PUSH1 0x1 PUSH1 0x1 PUSH1 0xA0 SHL SUB AND DUP2 JUMP JUMPDEST CALLVALUE DUP1 ISZERO PUSH2 0x3D0 JUMPI PUSH1 0x0 DUP1 REVERT JUMPDEST POP PUSH1 0x0 SLOAD PUSH1 0x1 PUSH1 0x1 PUSH1 0xA0 SHL SUB AND PUSH2 0x1F2 JUMP JUMPDEST CALLVALUE DUP1 ISZERO PUSH2 0x3EE JUMPI PUSH1 0x0 DUP1 REVERT JUMPDEST POP PUSH2 0x1D0 PUSH2 0x3FD CALLDATASIZE PUSH1 0x4 PUSH2 0x15CB JUMP JUMPDEST PUSH2 0xB6D JUMP JUMPDEST CALLVALUE DUP1 ISZERO PUSH2 0x40E JUMPI PUSH1 0x0 DUP1 REVERT JUMPDEST POP PUSH2 0x225 PUSH1 0xF DUP2 JUMP JUMPDEST CALLVALUE DUP1 ISZERO PUSH2 0x423 JUMPI PUSH1 0x0 DUP1 REVERT JUMPDEST POP PUSH2 0x1D0 PUSH2 0x432 CALLDATASIZE PUSH1 0x4 PUSH2 0x15F5 JUMP JUMPDEST PUSH2 0xC71 JUMP JUMPDEST CALLVALUE DUP1 ISZERO PUSH2 0x443 JUMPI PUSH1 0x0 DUP1 REVERT JUMPDEST POP PUSH2 0x1D0 PUSH2 0x452 CALLDATASIZE PUSH1 0x4 PUSH2 0x15A9 JUMP JUMPDEST PUSH2 0xCBE JUMP JUMPDEST CALLVALUE DUP1 ISZERO PUSH2 0x463 JUMPI PUSH1 0x0 DUP1 REVERT JUMPDEST POP PUSH2 0x1D0 PUSH2 0x472 CALLDATASIZE PUSH1 0x4 PUSH2 0x15A9 JUMP JUMPDEST PUSH2 0xD76 JUMP JUMPDEST CALLVALUE DUP1 ISZERO PUSH2 0x483 JUMPI PUSH1 0x0 DUP1 REVERT JUMPDEST POP PUSH2 0x1D0 PUSH2 0x492 CALLDATASIZE PUSH1 0x4 PUSH2 0x15A9 JUMP JUMPDEST PUSH2 0xDB1 JUMP JUMPDEST PUSH1 0x2 SLOAD PUSH1 0xFF AND ISZERO PUSH2 0x4BB JUMPI PUSH1 0x40 MLOAD PUSH4 0xD93C0665 PUSH1 0xE0 SHL DUP2 MSTORE PUSH1 0x4 ADD PUSH1 0x40 MLOAD DUP1 SWAP2 SUB SWAP1 REVERT JUMPDEST JUMP JUMPDEST PUSH2 0x4C5 PUSH2 0xE5A JUMP JUMPDEST PUSH1 0x1 PUSH1 0x1 PUSH1 0xA0 SHL SUB DUP2 AND PUSH2 0x520 JUMPI PUSH1 0x40 MLOAD PUSH3 0x461BCD PUSH1 0xE5 SHL DUP2 MSTORE PUSH1 0x20 PUSH1 0x4 DUP3 ADD MSTORE PUSH1 0x1D PUSH1 0x24 DUP3 ADD MSTORE PUSH32 0x496E76616C696420726566657272616C20706F6F6C2061646472657373000000 PUSH1 0x44 DUP3 ADD MSTORE PUSH1 0x64 ADD JUMPDEST PUSH1 0x40 MLOAD DUP1 SWAP2 SUB SWAP1 REVERT JUMPDEST PUSH1 0x3 DUP1 SLOAD PUSH1 0x1 PUSH1 0x1 PUSH1 0xA0 SHL SUB DUP4 DUP2 AND PUSH1 0x1 PUSH1 0x1 PUSH1 0xA0 SHL SUB NOT DUP4 AND DUP2 OR SWAP1 SWAP4 SSTORE PUSH1 0x40 MLOAD SWAP2 AND SWAP2 SWAP1 DUP3 SWAP1 PUSH32 0x66D1693C687B421F540B37C3682DEEAEE7FE381C4D000C01701498E6F6ED04C8 SWAP1 PUSH1 0x0 SWAP1 LOG3 POP POP JUMP JUMPDEST PUSH2 0x57A PUSH2 0xE5A JUMP JUMPDEST PUSH2 0x582 PUSH2 0xE87 JUMP JUMPDEST PUSH2 0x58A PUSH2 0x497 JUMP JUMPDEST PUSH1 0x1 PUSH1 0x1 PUSH1 0xA0 SHL SUB DUP3 AND PUSH2 0x5D0 JUMPI PUSH1 0x40 MLOAD PUSH3 0x461BCD PUSH1 0xE5 SHL DUP2 MSTORE PUSH1 0x20 PUSH1 0x4 DUP3 ADD MSTORE PUSH1 0xD PUSH1 0x24 DUP3 ADD MSTORE PUSH13 0x24B73B30B634B2103A37B5B2B7 PUSH1 0x99 SHL PUSH1 0x44 DUP3 ADD MSTORE PUSH1 0x64 ADD PUSH2 0x517 JUMP JUMPDEST PUSH32 0x0 PUSH1 0x1 PUSH1 0x1 PUSH1 0xA0 SHL SUB AND DUP3 PUSH1 0x1 PUSH1 0x1 PUSH1 0xA0 SHL SUB AND SUB PUSH2 0x648 JUMPI PUSH1 0x40 MLOAD PUSH3 0x461BCD PUSH1 0xE5 SHL DUP2 MSTORE PUSH1 0x20 PUSH1 0x4 DUP3 ADD MSTORE PUSH1 0x14 PUSH1 0x24 DUP3 ADD MSTORE PUSH20 0x10D85B9B9BDD0818DBDB9D995C9D0814125313D5 PUSH1 0x62 SHL PUSH1 0x44 DUP3 ADD MSTORE PUSH1 0x64 ADD PUSH2 0x517 JUMP JUMPDEST PUSH1 0x40 MLOAD PUSH4 0x70A08231 PUSH1 0xE0 SHL DUP2 MSTORE ADDRESS PUSH1 0x4 DUP3 ADD MSTORE PUSH1 0x0 SWAP1 PUSH1 0x1 PUSH1 0x1 PUSH1 0xA0 SHL SUB DUP5 AND SWAP1 PUSH4 0x70A08231 SWAP1 PUSH1 0x24 ADD PUSH1 0x20 PUSH1 0x40 MLOAD DUP1 DUP4 SUB DUP2 DUP7 GAS STATICCALL ISZERO DUP1 ISZERO PUSH2 0x68F JUMPI RETURNDATASIZE PUSH1 0x0 DUP1 RETURNDATACOPY RETURNDATASIZE PUSH1 0x0 REVERT JUMPDEST POP POP POP POP PUSH1 0x40 MLOAD RETURNDATASIZE PUSH1 0x1F NOT PUSH1 0x1F DUP3 ADD AND DUP3 ADD DUP1 PUSH1 0x40 MSTORE POP DUP2 ADD SWAP1 PUSH2 0x6B3 SWAP2 SWAP1 PUSH2 0x160E JUMP JUMPDEST SWAP1 POP PUSH1 0x0 DUP2 GT PUSH2 0x6FC JUMPI PUSH1 0x40 MLOAD PUSH3 0x461BCD PUSH1 0xE5 SHL DUP2 MSTORE PUSH1 0x20 PUSH1 0x4 DUP3 ADD MSTORE PUSH1 0x14 PUSH1 0x24 DUP3 ADD MSTORE PUSH20 0x139BC81D1BDAD95B9CC81D1BC818DBDB9D995C9D PUSH1 0x62 SHL PUSH1 0x44 DUP3 ADD MSTORE PUSH1 0x64 ADD PUSH2 0x517 JUMP JUMPDEST PUSH1 0x4 SLOAD PUSH2 0x716 SWAP1 PUSH1 0x1 PUSH1 0x1 PUSH1 0xA0 SHL SUB DUP6 DUP2 AND SWAP2 AND DUP4 PUSH2 0xEB1 JUMP JUMPDEST PUSH1 0x40 DUP1 MLOAD PUSH1 0x2 DUP1 DUP3 MSTORE PUSH1 0x60 DUP3 ADD DUP4 MSTORE PUSH1 0x0 SWAP3 PUSH1 0x20 DUP4 ADD SWAP1 DUP1 CALLDATASIZE DUP4 CALLDATACOPY ADD SWAP1 POP POP SWAP1 POP DUP4 DUP2 PUSH1 0x0 DUP2 MLOAD DUP2 LT PUSH2 0x74B JUMPI PUSH2 0x74B PUSH2 0x1627 JUMP JUMPDEST PUSH1 0x1 PUSH1 0x1 PUSH1 0xA0 SHL SUB SWAP3 DUP4 AND PUSH1 0x20 SWAP2 DUP3 MUL SWAP3 SWAP1 SWAP3 ADD ADD MSTORE PUSH1 0x5 SLOAD DUP3 MLOAD SWAP2 AND SWAP1 DUP3 SWAP1 PUSH1 0x1 SWAP1 DUP2 LT PUSH2 0x77C JUMPI PUSH2 0x77C PUSH2 0x1627 JUMP JUMPDEST PUSH1 0x1 PUSH1 0x1 PUSH1 0xA0 SHL SUB SWAP3 DUP4 AND PUSH1 0x20 SWAP2 DUP3 MUL SWAP3 SWAP1 SWAP3 ADD ADD MSTORE PUSH1 0x4 SLOAD PUSH1 0x0 SWAP2 AND DUP4 DUP6 DUP5 ADDRESS PUSH2 0x7A9 TIMESTAMP PUSH2 0x12C PUSH2 0x157A JUMP JUMPDEST PUSH1 0x40 MLOAD PUSH1 0x24 ADD PUSH2 0x7BD SWAP6 SWAP5 SWAP4 SWAP3 SWAP2 SWAP1 PUSH2 0x1681 JUMP JUMPDEST PUSH1 0x40 DUP1 MLOAD PUSH1 0x1F NOT DUP2 DUP5 SUB ADD DUP2 MSTORE SWAP2 DUP2 MSTORE PUSH1 0x20 DUP3 ADD DUP1 MLOAD PUSH1 0x1 PUSH1 0x1 PUSH1 0xE0 SHL SUB AND PUSH4 0x791AC947 PUSH1 0xE0 SHL OR SWAP1 MSTORE MLOAD PUSH2 0x7F2 SWAP2 SWAP1 PUSH2 0x16BD JUMP JUMPDEST PUSH1 0x0 PUSH1 0x40 MLOAD DUP1 DUP4 SUB DUP2 PUSH1 0x0 DUP7 GAS CALL SWAP2 POP POP RETURNDATASIZE DUP1 PUSH1 0x0 DUP2 EQ PUSH2 0x82F JUMPI PUSH1 0x40 MLOAD SWAP2 POP PUSH1 0x1F NOT PUSH1 0x3F RETURNDATASIZE ADD AND DUP3 ADD PUSH1 0x40 MSTORE RETURNDATASIZE DUP3 MSTORE RETURNDATASIZE PUSH1 0x0 PUSH1 0x20 DUP5 ADD RETURNDATACOPY PUSH2 0x834 JUMP JUMPDEST PUSH1 0x60 SWAP2 POP JUMPDEST POP POP SWAP1 POP DUP1 PUSH2 0x879 JUMPI PUSH1 0x40 MLOAD PUSH3 0x461BCD PUSH1 0xE5 SHL DUP2 MSTORE PUSH1 0x20 PUSH1 0x4 DUP3 ADD MSTORE PUSH1 0x11 PUSH1 0x24 DUP3 ADD MSTORE PUSH17 0x151BDAD95B881CDDD85C0819985A5B1959 PUSH1 0x7A SHL PUSH1 0x44 DUP3 ADD MSTORE PUSH1 0x64 ADD PUSH2 0x517 JUMP JUMPDEST POP POP POP PUSH2 0x885 PUSH1 0x1 DUP1 SSTORE JUMP JUMPDEST POP POP JUMP JUMPDEST PUSH2 0x891 PUSH2 0xE5A JUMP JUMPDEST PUSH2 0x4BB PUSH2 0xF41 JUMP JUMPDEST PUSH2 0x8A1 PUSH2 0xE5A JUMP JUMPDEST PUSH2 0x8A9 PUSH2 0xE87 JUMP JUMPDEST PUSH2 0x8B1 PUSH2 0x497 JUMP JUMPDEST PUSH1 0x6 SLOAD SELFBALANCE SWAP1 DUP2 LT ISZERO PUSH2 0x911 JUMPI PUSH1 0x40 MLOAD PUSH3 0x461BCD PUSH1 0xE5 SHL DUP2 MSTORE PUSH1 0x20 PUSH1 0x4 DUP3 ADD MSTORE PUSH1 0x24 DUP1 DUP3 ADD MSTORE PUSH32 0x42656C6F77206D696E696D756D20646973747269627574696F6E207468726573 PUSH1 0x44 DUP3 ADD MSTORE PUSH4 0x1A1BDB19 PUSH1 0xE2 SHL PUSH1 0x64 DUP3 ADD MSTORE PUSH1 0x84 ADD PUSH2 0x517 JUMP JUMPDEST PUSH1 0x0 PUSH1 0x64 PUSH2 0x920 PUSH1 0xF DUP5 PUSH2 0x16EC JUMP JUMPDEST PUSH2 0x92A SWAP2 SWAP1 PUSH2 0x1703 JUMP JUMPDEST SWAP1 POP PUSH1 0x0 PUSH1 0x64 PUSH2 0x93B PUSH1 0x50 DUP6 PUSH2 0x16EC JUMP JUMPDEST PUSH2 0x945 SWAP2 SWAP1 PUSH2 0x1703 JUMP JUMPDEST SWAP1 POP PUSH1 0x0 DUP2 PUSH2 0x954 DUP5 DUP7 PUSH2 0x1725 JUMP JUMPDEST PUSH2 0x95E SWAP2 SWAP1 PUSH2 0x1725 JUMP JUMPDEST SWAP1 POP PUSH1 0x0 DUP4 GT DUP1 ISZERO PUSH2 0x97A JUMPI POP PUSH1 0x4 SLOAD PUSH1 0x1 PUSH1 0x1 PUSH1 0xA0 SHL SUB AND ISZERO ISZERO JUMPDEST DUP1 ISZERO PUSH2 0x990 JUMPI POP PUSH1 0x5 SLOAD PUSH1 0x1 PUSH1 0x1 PUSH1 0xA0 SHL SUB AND ISZERO ISZERO JUMPDEST ISZERO PUSH2 0x99F JUMPI PUSH2 0x99F DUP4 DUP7 PUSH2 0xF93 JUMP JUMPDEST DUP2 ISZERO PUSH2 0xA4F JUMPI PUSH1 0x2 SLOAD PUSH1 0x40 MLOAD PUSH1 0x0 SWAP2 PUSH2 0x100 SWAP1 DIV PUSH1 0x1 PUSH1 0x1 PUSH1 0xA0 SHL SUB AND SWAP1 DUP5 SWAP1 DUP4 DUP2 DUP2 DUP2 DUP6 DUP8 GAS CALL SWAP3 POP POP POP RETURNDATASIZE DUP1 PUSH1 0x0 DUP2 EQ PUSH2 0x9F7 JUMPI PUSH1 0x40 MLOAD SWAP2 POP PUSH1 0x1F NOT PUSH1 0x3F RETURNDATASIZE ADD AND DUP3 ADD PUSH1 0x40 MSTORE RETURNDATASIZE DUP3 MSTORE RETURNDATASIZE PUSH1 0x0 PUSH1 0x20 DUP5 ADD RETURNDATACOPY PUSH2 0x9FC JUMP JUMPDEST PUSH1 0x60 SWAP2 POP JUMPDEST POP POP SWAP1 POP DUP1 PUSH2 0xA4D JUMPI PUSH1 0x40 MLOAD PUSH3 0x461BCD PUSH1 0xE5 SHL DUP2 MSTORE PUSH1 0x20 PUSH1 0x4 DUP3 ADD MSTORE PUSH1 0x18 PUSH1 0x24 DUP3 ADD MSTORE PUSH32 0x5472656173757279207472616E73666572206661696C65640000000000000000 PUSH1 0x44 DUP3 ADD MSTORE PUSH1 0x64 ADD PUSH2 0x517 JUMP JUMPDEST POP JUMPDEST DUP1 ISZERO PUSH2 0xAFA JUMPI PUSH1 0x3 SLOAD PUSH1 0x40 MLOAD PUSH1 0x0 SWAP2 PUSH1 0x1 PUSH1 0x1 PUSH1 0xA0 SHL SUB AND SWAP1 DUP4 SWAP1 DUP4 DUP2 DUP2 DUP2 DUP6 DUP8 GAS CALL SWAP3 POP POP POP RETURNDATASIZE DUP1 PUSH1 0x0 DUP2 EQ PUSH2 0xAA2 JUMPI PUSH1 0x40 MLOAD SWAP2 POP PUSH1 0x1F NOT PUSH1 0x3F RETURNDATASIZE ADD AND DUP3 ADD PUSH1 0x40 MSTORE RETURNDATASIZE DUP3 MSTORE RETURNDATASIZE PUSH1 0x0 PUSH1 0x20 DUP5 ADD RETURNDATACOPY PUSH2 0xAA7 JUMP JUMPDEST PUSH1 0x60 SWAP2 POP JUMPDEST POP POP SWAP1 POP DUP1 PUSH2 0xAF8 JUMPI PUSH1 0x40 MLOAD PUSH3 0x461BCD PUSH1 0xE5 SHL DUP2 MSTORE PUSH1 0x20 PUSH1 0x4 DUP3 ADD MSTORE PUSH1 0x18 PUSH1 0x24 DUP3 ADD MSTORE PUSH32 0x526566657272616C207472616E73666572206661696C65640000000000000000 PUSH1 0x44 DUP3 ADD MSTORE PUSH1 0x64 ADD PUSH2 0x517 JUMP JUMPDEST POP JUMPDEST PUSH1 0x40 DUP1 MLOAD DUP5 DUP2 MSTORE PUSH1 0x20 DUP2 ADD DUP5 SWAP1 MSTORE SWAP1 DUP2 ADD DUP3 SWAP1 MSTORE PUSH32 0x312C5308F42848705A866C73DEC11FD0783C2D64AAC6A97E94467062AD3F4058 SWAP1 PUSH1 0x60 ADD PUSH1 0x40 MLOAD DUP1 SWAP2 SUB SWAP1 LOG1 POP POP POP POP PUSH2 0xB48 PUSH1 0x1 DUP1 SSTORE JUMP JUMPDEST POP JUMP JUMPDEST PUSH2 0xB53 PUSH2 0xE5A JUMP JUMPDEST PUSH2 0x4BB PUSH1 0x0 PUSH2 0x1303 JUMP JUMPDEST PUSH2 0xB65 PUSH2 0xE5A JUMP JUMPDEST PUSH2 0x4BB PUSH2 0x1353 JUMP JUMPDEST PUSH2 0xB75 PUSH2 0xE5A JUMP JUMPDEST PUSH1 0x1 PUSH1 0x1 PUSH1 0xA0 SHL SUB DUP3 AND PUSH2 0xC5D JUMPI SELFBALANCE DUP2 GT ISZERO PUSH2 0xBCA JUMPI PUSH1 0x40 MLOAD PUSH3 0x461BCD PUSH1 0xE5 SHL DUP2 MSTORE PUSH1 0x20 PUSH1 0x4 DUP3 ADD MSTORE PUSH1 0x14 PUSH1 0x24 DUP3 ADD MSTORE PUSH20 0x496E73756666696369656E742062616C616E6365 PUSH1 0x60 SHL PUSH1 0x44 DUP3 ADD MSTORE PUSH1 0x64 ADD PUSH2 0x517 JUMP JUMPDEST PUSH1 0x40 MLOAD PUSH1 0x0 SWAP1 CALLER SWAP1 DUP4 SWAP1 DUP4 DUP2 DUP2 DUP2 DUP6 DUP8 GAS CALL SWAP3 POP POP POP RETURNDATASIZE DUP1 PUSH1 0x0 DUP2 EQ PUSH2 0xC0C JUMPI PUSH1 0x40 MLOAD SWAP2 POP PUSH1 0x1F NOT PUSH1 0x3F RETURNDATASIZE ADD AND DUP3 ADD PUSH1 0x40 MSTORE RETURNDATASIZE DUP3 MSTORE RETURNDATASIZE PUSH1 0x0 PUSH1 0x20 DUP5 ADD RETURNDATACOPY PUSH2 0xC11 JUMP JUMPDEST PUSH1 0x60 SWAP2 POP JUMPDEST POP POP SWAP1 POP DUP1 PUSH2 0xC58 JUMPI PUSH1 0x40 MLOAD PUSH3 0x461BCD PUSH1 0xE5 SHL DUP2 MSTORE PUSH1 0x20 PUSH1 0x4 DUP3 ADD MSTORE PUSH1 0x13 PUSH1 0x24 DUP3 ADD MSTORE PUSH19 0x109390881D1C985B9CD9995C8819985A5B1959 PUSH1 0x6A SHL PUSH1 0x44 DUP3 ADD MSTORE PUSH1 0x64 ADD PUSH2 0x517 JUMP JUMPDEST POP POP POP JUMP JUMPDEST PUSH2 0x885 PUSH1 0x1 PUSH1 0x1 PUSH1 0xA0 SHL SUB DUP4 AND CALLER DUP4 PUSH2 0x1390 JUMP JUMPDEST PUSH2 0xC79 PUSH2 0xE5A JUMP JUMPDEST PUSH1 0x6 DUP1 SLOAD SWAP1 DUP3 SWAP1 SSTORE PUSH1 0x40 DUP1 MLOAD DUP3 DUP2 MSTORE PUSH1 0x20 DUP2 ADD DUP5 SWAP1 MSTORE PUSH32 0x3ED3C95BAB7EFD0ACE27D48873FAEB1B6E21AEC077992BBE3C432C805BC5FAE9 SWAP2 ADD PUSH1 0x40 MLOAD DUP1 SWAP2 SUB SWAP1 LOG1 POP POP JUMP JUMPDEST PUSH2 0xCC6 PUSH2 0xE5A JUMP JUMPDEST PUSH1 0x1 PUSH1 0x1 PUSH1 0xA0 SHL SUB DUP2 AND PUSH2 0xD1C JUMPI PUSH1 0x40 MLOAD PUSH3 0x461BCD PUSH1 0xE5 SHL DUP2 MSTORE PUSH1 0x20 PUSH1 0x4 DUP3 ADD MSTORE PUSH1 0x18 PUSH1 0x24 DUP3 ADD MSTORE PUSH32 0x496E76616C696420747265617375727920616464726573730000000000000000 PUSH1 0x44 DUP3 ADD MSTORE PUSH1 0x64 ADD PUSH2 0x517 JUMP JUMPDEST PUSH1 0x2 DUP1 SLOAD PUSH1 0x1 PUSH1 0x1 PUSH1 0xA0 SHL SUB DUP4 DUP2 AND PUSH2 0x100 DUP2 DUP2 MUL PUSH2 0x100 PUSH1 0x1 PUSH1 0xA8 SHL SUB NOT DUP6 AND OR SWAP1 SWAP5 SSTORE PUSH1 0x40 MLOAD SWAP4 SWAP1 SWAP3 DIV AND SWAP2 DUP3 SWAP1 PUSH32 0x4AB5BE82436D353E61CA18726E984E561F5C1CC7C6D38B29D2553C790434705A SWAP1 PUSH1 0x0 SWAP1 LOG3 POP POP JUMP JUMPDEST PUSH2 0xD7E PUSH2 0xE5A JUMP JUMPDEST PUSH1 0x1 PUSH1 0x1 PUSH1 0xA0 SHL SUB DUP2 AND PUSH2 0xDA8 JUMPI PUSH1 0x40 MLOAD PUSH4 0x1E4FBDF7 PUSH1 0xE0 SHL DUP2 MSTORE PUSH1 0x0 PUSH1 0x4 DUP3 ADD MSTORE PUSH1 0x24 ADD PUSH2 0x517 JUMP JUMPDEST PUSH2 0xB48 DUP2 PUSH2 0x1303 JUMP JUMPDEST PUSH2 0xDB9 PUSH2 0xE5A JUMP JUMPDEST PUSH1 0x1 PUSH1 0x1 PUSH1 0xA0 SHL SUB DUP2 AND PUSH2 0xE08 JUMPI PUSH1 0x40 MLOAD PUSH3 0x461BCD PUSH1 0xE5 SHL DUP2 MSTORE PUSH1 0x20 PUSH1 0x4 DUP3 ADD MSTORE PUSH1 0x16 PUSH1 0x24 DUP3 ADD MSTORE PUSH22 0x496E76616C696420726F757465722061646472657373 PUSH1 0x50 SHL PUSH1 0x44 DUP3 ADD MSTORE PUSH1 0x64 ADD PUSH2 0x517 JUMP JUMPDEST PUSH1 0x4 DUP1 SLOAD PUSH1 0x1 PUSH1 0x1 PUSH1 0xA0 SHL SUB DUP4 DUP2 AND PUSH1 0x1 PUSH1 0x1 PUSH1 0xA0 SHL SUB NOT DUP4 AND DUP2 OR SWAP1 SWAP4 SSTORE PUSH1 0x40 MLOAD SWAP2 AND SWAP2 SWAP1 DUP3 SWAP1 PUSH32 0xF296FA3E8EB1C1D46E2D1EAFBD38E92F916E42B9CE1573A1CC98B2D0E4E5E862 SWAP1 PUSH1 0x0 SWAP1 LOG3 POP POP JUMP JUMPDEST PUSH1 0x0 SLOAD PUSH1 0x1 PUSH1 0x1 PUSH1 0xA0 SHL SUB AND CALLER EQ PUSH2 0x4BB JUMPI PUSH1 0x40 MLOAD PUSH4 0x118CDAA7 PUSH1 0xE0 SHL DUP2 MSTORE CALLER PUSH1 0x4 DUP3 ADD MSTORE PUSH1 0x24 ADD PUSH2 0x517 JUMP JUMPDEST PUSH1 0x2 PUSH1 0x1 SLOAD SUB PUSH2 0xEAA JUMPI PUSH1 0x40 MLOAD PUSH4 0x3EE5AEB5 PUSH1 0xE0 SHL DUP2 MSTORE PUSH1 0x4 ADD PUSH1 0x40 MLOAD DUP1 SWAP2 SUB SWAP1 REVERT JUMPDEST PUSH1 0x2 PUSH1 0x1 SSTORE JUMP JUMPDEST PUSH1 0x40 MLOAD PUSH4 0x6EB1769F PUSH1 0xE1 SHL DUP2 MSTORE ADDRESS PUSH1 0x4 DUP3 ADD MSTORE PUSH1 0x1 PUSH1 0x1 PUSH1 0xA0 SHL SUB DUP4 DUP2 AND PUSH1 0x24 DUP4 ADD MSTORE PUSH1 0x0 SWAP2 SWAP1 DUP6 AND SWAP1 PUSH4 0xDD62ED3E SWAP1 PUSH1 0x44 ADD PUSH1 0x20 PUSH1 0x40 MLOAD DUP1 DUP4 SUB DUP2 DUP7 GAS STATICCALL ISZERO DUP1 ISZERO PUSH2 0xF01 JUMPI RETURNDATASIZE PUSH1 0x0 DUP1 RETURNDATACOPY RETURNDATASIZE PUSH1 0x0 REVERT JUMPDEST POP POP POP POP PUSH1 0x40 MLOAD RETURNDATASIZE PUSH1 0x1F NOT PUSH1 0x1F DUP3 ADD AND DUP3 ADD DUP1 PUSH1 0x40 MSTORE POP DUP2 ADD SWAP1 PUSH2 0xF25 SWAP2 SWAP1 PUSH2 0x160E JUMP JUMPDEST SWAP1 POP PUSH2 0xF3B DUP5 DUP5 PUSH2 0xF36 DUP6 DUP6 PUSH2 0x157A JUMP JUMPDEST PUSH2 0x13EF JUMP JUMPDEST POP POP POP POP JUMP JUMPDEST PUSH2 0xF49 PUSH2 0x147F JUMP JUMPDEST PUSH1 0x2 DUP1 SLOAD PUSH1 0xFF NOT AND SWAP1 SSTORE PUSH32 0x5DB9EE0A495BF2E6FF9C91A7834C1BA4FDD244A5E8AA4E537BD38AEAE4B073AA CALLER JUMPDEST PUSH1 0x40 MLOAD PUSH1 0x1 PUSH1 0x1 PUSH1 0xA0 SHL SUB SWAP1 SWAP2 AND DUP2 MSTORE PUSH1 0x20 ADD PUSH1 0x40 MLOAD DUP1 SWAP2 SUB SWAP1 LOG1 JUMP JUMPDEST PUSH1 0x40 DUP1 MLOAD PUSH1 0x2 DUP1 DUP3 MSTORE PUSH1 0x60 DUP3 ADD DUP4 MSTORE PUSH1 0x0 SWAP3 PUSH1 0x20 DUP4 ADD SWAP1 DUP1 CALLDATASIZE DUP4 CALLDATACOPY POP POP PUSH1 0x5 SLOAD DUP3 MLOAD SWAP3 SWAP4 POP PUSH1 0x1 PUSH1 0x1 PUSH1 0xA0 SHL SUB AND SWAP2 DUP4 SWAP2 POP PUSH1 0x0 SWAP1 PUSH2 0xFD4 JUMPI PUSH2 0xFD4 PUSH2 0x1627 JUMP JUMPDEST PUSH1 0x20 MUL PUSH1 0x20 ADD ADD SWAP1 PUSH1 0x1 PUSH1 0x1 PUSH1 0xA0 SHL SUB AND SWAP1 DUP2 PUSH1 0x1 PUSH1 0x1 PUSH1 0xA0 SHL SUB AND DUP2 MSTORE POP POP PUSH32 0x0 DUP2 PUSH1 0x1 DUP2 MLOAD DUP2 LT PUSH2 0x1028 JUMPI PUSH2 0x1028 PUSH2 0x1627 JUMP JUMPDEST PUSH1 0x1 PUSH1 0x1 PUSH1 0xA0 SHL SUB SWAP3 DUP4 AND PUSH1 0x20 SWAP2 DUP3 MUL SWAP3 SWAP1 SWAP3 ADD ADD MSTORE PUSH1 0x4 SLOAD PUSH1 0x0 SWAP2 AND DUP5 DUP5 DUP5 ADDRESS PUSH2 0x1055 TIMESTAMP PUSH2 0x12C PUSH2 0x157A JUMP JUMPDEST PUSH1 0x40 MLOAD PUSH1 0x24 ADD PUSH2 0x1068 SWAP5 SWAP4 SWAP3 SWAP2 SWAP1 PUSH2 0x1738 JUMP JUMPDEST PUSH1 0x40 DUP1 MLOAD PUSH1 0x1F NOT DUP2 DUP5 SUB ADD DUP2 MSTORE SWAP2 DUP2 MSTORE PUSH1 0x20 DUP3 ADD DUP1 MLOAD PUSH1 0x1 PUSH1 0x1 PUSH1 0xE0 SHL SUB AND PUSH4 0xB6F9DE95 PUSH1 0xE0 SHL OR SWAP1 MSTORE MLOAD PUSH2 0x109D SWAP2 SWAP1 PUSH2 0x16BD JUMP JUMPDEST PUSH1 0x0 PUSH1 0x40 MLOAD DUP1 DUP4 SUB DUP2 DUP6 DUP8 GAS CALL SWAP3 POP POP POP RETURNDATASIZE DUP1 PUSH1 0x0 DUP2 EQ PUSH2 0x10DA JUMPI PUSH1 0x40 MLOAD SWAP2 POP PUSH1 0x1F NOT PUSH1 0x3F RETURNDATASIZE ADD AND DUP3 ADD PUSH1 0x40 MSTORE RETURNDATASIZE DUP3 MSTORE RETURNDATASIZE PUSH1 0x0 PUSH1 0x20 DUP5 ADD RETURNDATACOPY PUSH2 0x10DF JUMP JUMPDEST PUSH1 0x60 SWAP2 POP JUMPDEST POP POP SWAP1 POP DUP1 PUSH2 0x1122 JUMPI PUSH1 0x40 MLOAD PUSH3 0x461BCD PUSH1 0xE5 SHL DUP2 MSTORE PUSH1 0x20 PUSH1 0x4 DUP3 ADD MSTORE PUSH1 0xF PUSH1 0x24 DUP3 ADD MSTORE PUSH15 0x111156081CDDD85C0819985A5B1959 PUSH1 0x8A SHL PUSH1 0x44 DUP3 ADD MSTORE PUSH1 0x64 ADD PUSH2 0x517 JUMP JUMPDEST PUSH1 0x40 MLOAD PUSH4 0x70A08231 PUSH1 0xE0 SHL DUP2 MSTORE ADDRESS PUSH1 0x4 DUP3 ADD MSTORE PUSH1 0x0 SWAP1 PUSH32 0x0 PUSH1 0x1 PUSH1 0x1 PUSH1 0xA0 SHL SUB AND SWAP1 PUSH4 0x70A08231 SWAP1 PUSH1 0x24 ADD PUSH1 0x20 PUSH1 0x40 MLOAD DUP1 DUP4 SUB DUP2 DUP7 GAS STATICCALL ISZERO DUP1 ISZERO PUSH2 0x1189 JUMPI RETURNDATASIZE PUSH1 0x0 DUP1 RETURNDATACOPY RETURNDATASIZE PUSH1 0x0 REVERT JUMPDEST POP POP POP POP PUSH1 0x40 MLOAD RETURNDATASIZE PUSH1 0x1F NOT PUSH1 0x1F DUP3 ADD AND DUP3 ADD DUP1 PUSH1 0x40 MSTORE POP DUP2 ADD SWAP1 PUSH2 0x11AD SWAP2 SWAP1 PUSH2 0x160E JUMP JUMPDEST SWAP1 POP DUP1 ISZERO PUSH2 0x12FC JUMPI PUSH1 0x0 PUSH32 0x0 PUSH1 0x1 PUSH1 0x1 PUSH1 0xA0 SHL SUB AND DUP3 PUSH1 0x40 MLOAD PUSH1 0x24 ADD PUSH2 0x11F4 SWAP2 DUP2 MSTORE PUSH1 0x20 ADD SWAP1 JUMP JUMPDEST PUSH1 0x40 DUP1 MLOAD PUSH1 0x1F NOT DUP2 DUP5 SUB ADD DUP2 MSTORE SWAP2 DUP2 MSTORE PUSH1 0x20 DUP3 ADD DUP1 MLOAD PUSH1 0x1 PUSH1 0x1 PUSH1 0xE0 SHL SUB AND PUSH4 0x46D9FC9B PUSH1 0xE1 SHL OR SWAP1 MSTORE MLOAD PUSH2 0x1229 SWAP2 SWAP1 PUSH2 0x16BD JUMP JUMPDEST PUSH1 0x0 PUSH1 0x40 MLOAD DUP1 DUP4 SUB DUP2 PUSH1 0x0 DUP7 GAS CALL SWAP2 POP POP RETURNDATASIZE DUP1 PUSH1 0x0 DUP2 EQ PUSH2 0x1266 JUMPI PUSH1 0x40 MLOAD SWAP2 POP PUSH1 0x1F NOT PUSH1 0x3F RETURNDATASIZE ADD AND DUP3 ADD PUSH1 0x40 MSTORE RETURNDATASIZE DUP3 MSTORE RETURNDATASIZE PUSH1 0x0 PUSH1 0x20 DUP5 ADD RETURNDATACOPY PUSH2 0x126B JUMP JUMPDEST PUSH1 0x60 SWAP2 POP JUMPDEST POP POP SWAP1 POP DUP1 PUSH2 0x12AA JUMPI PUSH1 0x40 MLOAD PUSH3 0x461BCD PUSH1 0xE5 SHL DUP2 MSTORE PUSH1 0x20 PUSH1 0x4 DUP3 ADD MSTORE PUSH1 0xB PUSH1 0x24 DUP3 ADD MSTORE PUSH11 0x109D5C9B8819985A5B1959 PUSH1 0xAA SHL PUSH1 0x44 DUP3 ADD MSTORE PUSH1 0x64 ADD PUSH2 0x517 JUMP JUMPDEST DUP2 PUSH1 0x8 PUSH1 0x0 DUP3 DUP3 SLOAD PUSH2 0x12BC SWAP2 SWAP1 PUSH2 0x157A JUMP JUMPDEST SWAP1 SWAP2 SSTORE POP POP PUSH1 0x40 DUP1 MLOAD DUP8 DUP2 MSTORE PUSH1 0x20 DUP2 ADD DUP5 SWAP1 MSTORE PUSH32 0xA35443C918552547BA2AE4A6D6544784DDEDE6B26B3366D112527E973F60F90A SWAP2 ADD PUSH1 0x40 MLOAD DUP1 SWAP2 SUB SWAP1 LOG1 POP JUMPDEST POP POP POP POP POP JUMP JUMPDEST PUSH1 0x0 DUP1 SLOAD PUSH1 0x1 PUSH1 0x1 PUSH1 0xA0 SHL SUB DUP4 DUP2 AND PUSH1 0x1 PUSH1 0x1 PUSH1 0xA0 SHL SUB NOT DUP4 AND DUP2 OR DUP5 SSTORE PUSH1 0x40 MLOAD SWAP2 SWAP1 SWAP3 AND SWAP3 DUP4 SWAP2 PUSH32 0x8BE0079C531659141344CD1FD0A4F28419497F9722A3DAAFE3B4186F6B6457E0 SWAP2 SWAP1 LOG3 POP POP JUMP JUMPDEST PUSH2 0x135B PUSH2 0x497 JUMP JUMPDEST PUSH1 0x2 DUP1 SLOAD PUSH1 0xFF NOT AND PUSH1 0x1 OR SWAP1 SSTORE PUSH32 0x62E78CEA01BEE320CD4E420270B5EA74000D11B0C9F74754EBDBFC544B05A258 PUSH2 0xF76 CALLER SWAP1 JUMP JUMPDEST PUSH1 0x40 MLOAD PUSH1 0x1 PUSH1 0x1 PUSH1 0xA0 SHL SUB DUP4 DUP2 AND PUSH1 0x24 DUP4 ADD MSTORE PUSH1 0x44 DUP3 ADD DUP4 SWAP1 MSTORE PUSH2 0xC58 SWAP2 DUP6 SWAP2 DUP3 AND SWAP1 PUSH4 0xA9059CBB SWAP1 PUSH1 0x64 ADD JUMPDEST PUSH1 0x40 MLOAD PUSH1 0x20 DUP2 DUP4 SUB SUB DUP2 MSTORE SWAP1 PUSH1 0x40 MSTORE SWAP2 POP PUSH1 0xE0 SHL PUSH1 0x20 DUP3 ADD DUP1 MLOAD PUSH1 0x1 PUSH1 0x1 PUSH1 0xE0 SHL SUB DUP4 DUP2 DUP4 AND OR DUP4 MSTORE POP POP POP POP PUSH2 0x14A2 JUMP JUMPDEST PUSH1 0x40 DUP1 MLOAD PUSH1 0x1 PUSH1 0x1 PUSH1 0xA0 SHL SUB DUP5 AND PUSH1 0x24 DUP3 ADD MSTORE PUSH1 0x44 DUP1 DUP3 ADD DUP5 SWAP1 MSTORE DUP3 MLOAD DUP1 DUP4 SUB SWAP1 SWAP2 ADD DUP2 MSTORE PUSH1 0x64 SWAP1 SWAP2 ADD SWAP1 SWAP2 MSTORE PUSH1 0x20 DUP2 ADD DUP1 MLOAD PUSH1 0x1 PUSH1 0x1 PUSH1 0xE0 SHL SUB AND PUSH4 0x95EA7B3 PUSH1 0xE0 SHL OR SWAP1 MSTORE PUSH2 0x1440 DUP5 DUP3 PUSH2 0x1513 JUMP JUMPDEST PUSH2 0xF3B JUMPI PUSH1 0x40 MLOAD PUSH1 0x1 PUSH1 0x1 PUSH1 0xA0 SHL SUB DUP5 DUP2 AND PUSH1 0x24 DUP4 ADD MSTORE PUSH1 0x0 PUSH1 0x44 DUP4 ADD MSTORE PUSH2 0x1475 SWAP2 DUP7 SWAP2 DUP3 AND SWAP1 PUSH4 0x95EA7B3 SWAP1 PUSH1 0x64 ADD PUSH2 0x13BD JUMP JUMPDEST PUSH2 0xF3B DUP5 DUP3 PUSH2 0x14A2 JUMP JUMPDEST PUSH1 0x2 SLOAD PUSH1 0xFF AND PUSH2 0x4BB JUMPI PUSH1 0x40 MLOAD PUSH4 0x8DFC202B PUSH1 0xE0 SHL DUP2 MSTORE PUSH1 0x4 ADD PUSH1 0x40 MLOAD DUP1 SWAP2 SUB SWAP1 REVERT JUMPDEST PUSH1 0x0 DUP1 PUSH1 0x20 PUSH1 0x0 DUP5 MLOAD PUSH1 0x20 DUP7 ADD PUSH1 0x0 DUP9 GAS CALL DUP1 PUSH2 0x14C5 JUMPI PUSH1 0x40 MLOAD RETURNDATASIZE PUSH1 0x0 DUP3 RETURNDATACOPY RETURNDATASIZE DUP2 REVERT JUMPDEST POP POP PUSH1 0x0 MLOAD RETURNDATASIZE SWAP2 POP DUP2 ISZERO PUSH2 0x14DD JUMPI DUP1 PUSH1 0x1 EQ ISZERO PUSH2 0x14EA JUMP JUMPDEST PUSH1 0x1 PUSH1 0x1 PUSH1 0xA0 SHL SUB DUP5 AND EXTCODESIZE ISZERO JUMPDEST ISZERO PUSH2 0xF3B JUMPI PUSH1 0x40 MLOAD PUSH4 0x5274AFE7 PUSH1 0xE0 SHL DUP2 MSTORE PUSH1 0x1 PUSH1 0x1 PUSH1 0xA0 SHL SUB DUP6 AND PUSH1 0x4 DUP3 ADD MSTORE PUSH1 0x24 ADD PUSH2 0x517 JUMP JUMPDEST PUSH1 0x0 DUP1 PUSH1 0x0 DUP1 PUSH1 0x20 PUSH1 0x0 DUP7 MLOAD PUSH1 0x20 DUP9 ADD PUSH1 0x0 DUP11 GAS CALL SWAP3 POP RETURNDATASIZE SWAP2 POP PUSH1 0x0 MLOAD SWAP1 POP DUP3 DUP1 ISZERO PUSH2 0x1558 JUMPI POP DUP2 ISZERO PUSH2 0x1549 JUMPI DUP1 PUSH1 0x1 EQ PUSH2 0x1558 JUMP JUMPDEST PUSH1 0x0 DUP7 PUSH1 0x1 PUSH1 0x1 PUSH1 0xA0 SHL SUB AND EXTCODESIZE GT JUMPDEST SWAP4 POP POP POP POP JUMPDEST SWAP3 SWAP2 POP POP JUMP JUMPDEST PUSH4 0x4E487B71 PUSH1 0xE0 SHL PUSH1 0x0 MSTORE PUSH1 0x11 PUSH1 0x4 MSTORE PUSH1 0x24 PUSH1 0x0 REVERT JUMPDEST DUP1 DUP3 ADD DUP1 DUP3 GT ISZERO PUSH2 0x155E JUMPI PUSH2 0x155E PUSH2 0x1564 JUMP JUMPDEST DUP1 CALLDATALOAD PUSH1 0x1 PUSH1 0x1 PUSH1 0xA0 SHL SUB DUP2 AND DUP2 EQ PUSH2 0x15A4 JUMPI PUSH1 0x0 DUP1 REVERT JUMPDEST SWAP2 SWAP1 POP JUMP JUMPDEST PUSH1 0x0 PUSH1 0x20 DUP3 DUP5 SUB SLT ISZERO PUSH2 0x15BB JUMPI PUSH1 0x0 DUP1 REVERT JUMPDEST PUSH2 0x15C4 DUP3 PUSH2 0x158D JUMP JUMPDEST SWAP4 SWAP3 POP POP POP JUMP JUMPDEST PUSH1 0x0 DUP1 PUSH1 0x40 DUP4 DUP6 SUB SLT ISZERO PUSH2 0x15DE JUMPI PUSH1 0x0 DUP1 REVERT JUMPDEST PUSH2 0x15E7 DUP4 PUSH2 0x158D JUMP JUMPDEST SWAP5 PUSH1 0x20 SWAP4 SWAP1 SWAP4 ADD CALLDATALOAD SWAP4 POP POP POP JUMP JUMPDEST PUSH1 0x0 PUSH1 0x20 DUP3 DUP5 SUB SLT ISZERO PUSH2 0x1607 JUMPI PUSH1 0x0 DUP1 REVERT JUMPDEST POP CALLDATALOAD SWAP2 SWAP1 POP JUMP JUMPDEST PUSH1 0x0 PUSH1 0x20 DUP3 DUP5 SUB SLT ISZERO PUSH2 0x1620 JUMPI PUSH1 0x0 DUP1 REVERT JUMPDEST POP MLOAD SWAP2 SWAP1 POP JUMP JUMPDEST PUSH4 0x4E487B71 PUSH1 0xE0 SHL PUSH1 0x0 MSTORE PUSH1 0x32 PUSH1 0x4 MSTORE PUSH1 0x24 PUSH1 0x0 REVERT JUMPDEST PUSH1 0x0 DUP2 MLOAD DUP1 DUP5 MSTORE PUSH1 0x20 DUP1 DUP6 ADD SWAP5 POP DUP1 DUP5 ADD PUSH1 0x0 JUMPDEST DUP4 DUP2 LT ISZERO PUSH2 0x1676 JUMPI DUP2 MLOAD PUSH1 0x1 PUSH1 0x1 PUSH1 0xA0 SHL SUB AND DUP8 MSTORE SWAP6 DUP3 ADD SWAP6 SWAP1 DUP3 ADD SWAP1 PUSH1 0x1 ADD PUSH2 0x1651 JUMP JUMPDEST POP SWAP5 SWAP6 SWAP5 POP POP POP POP POP JUMP JUMPDEST DUP6 DUP2 MSTORE DUP5 PUSH1 0x20 DUP3 ADD MSTORE PUSH1 0xA0 PUSH1 0x40 DUP3 ADD MSTORE PUSH1 0x0 PUSH2 0x16A0 PUSH1 0xA0 DUP4 ADD DUP7 PUSH2 0x163D JUMP JUMPDEST PUSH1 0x1 PUSH1 0x1 PUSH1 0xA0 SHL SUB SWAP5 SWAP1 SWAP5 AND PUSH1 0x60 DUP4 ADD MSTORE POP PUSH1 0x80 ADD MSTORE SWAP4 SWAP3 POP POP POP JUMP JUMPDEST PUSH1 0x0 DUP3 MLOAD PUSH1 0x0 JUMPDEST DUP2 DUP2 LT ISZERO PUSH2 0x16DE JUMPI PUSH1 0x20 DUP2 DUP7 ADD DUP2 ADD MLOAD DUP6 DUP4 ADD MSTORE ADD PUSH2 0x16C4 JUMP JUMPDEST POP PUSH1 0x0 SWAP3 ADD SWAP2 DUP3 MSTORE POP SWAP2 SWAP1 POP JUMP JUMPDEST DUP1 DUP3 MUL DUP2 ISZERO DUP3 DUP3 DIV DUP5 EQ OR PUSH2 0x155E JUMPI PUSH2 0x155E PUSH2 0x1564 JUMP JUMPDEST PUSH1 0x0 DUP3 PUSH2 0x1720 JUMPI PUSH4 0x4E487B71 PUSH1 0xE0 SHL PUSH1 0x0 MSTORE PUSH1 0x12 PUSH1 0x4 MSTORE PUSH1 0x24 PUSH1 0x0 REVERT JUMPDEST POP DIV SWAP1 JUMP JUMPDEST DUP2 DUP2 SUB DUP2 DUP2 GT ISZERO PUSH2 0x155E JUMPI PUSH2 0x155E PUSH2 0x1564 JUMP JUMPDEST DUP5 DUP2 MSTORE PUSH1 0x80 PUSH1 0x20 DUP3 ADD MSTORE PUSH1 0x0 PUSH2 0x1751 PUSH1 0x80 DUP4 ADD DUP7 PUSH2 0x163D JUMP JUMPDEST PUSH1 0x1 PUSH1 0x1 PUSH1 0xA0 SHL SUB SWAP5 SWAP1 SWAP5 AND PUSH1 0x40 DUP4 ADD MSTORE POP PUSH1 0x60 ADD MSTORE SWAP3 SWAP2 POP POP JUMP INVALID LOG2 PUSH5 0x6970667358 0x22 SLT KECCAK256 PUSH23 0xCD931F87C9C000CA6BD479946E80144B97595B0967D25C 0xDD 0xF8 KECCAK256 SWAP1 CALLDATACOPY CALLDATASIZE JUMP 0x49 PUSH5 0x736F6C6343 STOP ADDMOD EQ STOP CALLER "},"methodIdentifiers":{"BURN_PERCENT()":"9c986764","REFERRAL_PERCENT()":"33a8915a","TREASURY_PERCENT()":"83d5e726","convertTokenToBnb(address,uint256)":"0c4b1396","dexRouter()":"0758d924","distributeFees(uint256)":"6029bf9f","emergencyWithdraw(address,uint256)":"95ccea67","minDistributionAmount()":"0a65fb21","owner()":"8da5cb5b","pause()":"8456cb59","paused()":"5c975abb","pilotToken()":"39c3b99c","referralPool()":"1e4df938","renounceOwnership()":"715018a6","setDexRouter(address)":"f72f863b","setMinDistributionAmount(uint256)":"a42f765b","setReferralPool(address)":"050ae660","setTreasury(address)":"f0f44260","totalFeesCollected()":"60c6d8ae","totalPilotBurned()":"2b9fcfd0","transferOwnership(address)":"f2fde38b","treasury()":"61d027b3","unpause()":"3f4ba83a","wbnb()":"8d72647e"}}}}}