{
  "_format": "hh-sol-artifact-1",
  "contractName": "PILOTToken",
  "sourceName": "src/PILOTToken.sol",
  "abi": [
    {
      "inputs": [],
      "stateMutability": "nonpayable",
      "type": "constructor"
    },
    {
      "inputs": [
        {
          "internalType": "address",
          "name": "spender",
          "type": "address"
        },
        {
          "internalType": "uint256",
          "name": "allowance",
          "type": "uint256"
        },
        {
          "internalType": "uint256",
          "name": "needed",
          "type": "uint256"
        }
      ],
      "name": "ERC20InsufficientAllowance",
      "type": "error"
    },
    {
      "inputs": [
        {
          "internalType": "address",
          "name": "sender",
          "type": "address"
        },
        {
          "internalType": "uint256",
          "name": "balance",
          "type": "uint256"
        },
        {
          "internalType": "uint256",
          "name": "needed",
          "type": "uint256"
        }
      ],
      "name": "ERC20InsufficientBalance",
      "type": "error"
    },
    {
      "inputs": [
        {
          "internalType": "address",
          "name": "approver",
          "type": "address"
        }
      ],
      "name": "ERC20InvalidApprover",
      "type": "error"
    },
    {
      "inputs": [
        {
          "internalType": "address",
          "name": "receiver",
          "type": "address"
        }
      ],
      "name": "ERC20InvalidReceiver",
      "type": "error"
    },
    {
      "inputs": [
        {
          "internalType": "address",
          "name": "sender",
          "type": "address"
        }
      ],
      "name": "ERC20InvalidSender",
      "type": "error"
    },
    {
      "inputs": [
        {
          "internalType": "address",
          "name": "spender",
          "type": "address"
        }
      ],
      "name": "ERC20InvalidSpender",
      "type": "error"
    },
    {
      "inputs": [
        {
          "internalType": "address",
          "name": "owner",
          "type": "address"
        }
      ],
      "name": "OwnableInvalidOwner",
      "type": "error"
    },
    {
      "inputs": [
        {
          "internalType": "address",
          "name": "account",
          "type": "address"
        }
      ],
      "name": "OwnableUnauthorizedAccount",
      "type": "error"
    },
    {
      "anonymous": false,
      "inputs": [
        {
          "indexed": true,
          "internalType": "address",
          "name": "owner",
          "type": "address"
        },
        {
          "indexed": true,
          "internalType": "address",
          "name": "spender",
          "type": "address"
        },
        {
          "indexed": false,
          "internalType": "uint256",
          "name": "value",
          "type": "uint256"
        }
      ],
      "name": "Approval",
      "type": "event"
    },
    {
      "anonymous": false,
      "inputs": [
        {
          "indexed": true,
          "internalType": "address",
          "name": "burner",
          "type": "address"
        },
        {
          "indexed": false,
          "internalType": "uint256",
          "name": "amount",
          "type": "uint256"
        }
      ],
      "name": "FeeBurn",
      "type": "event"
    },
    {
      "anonymous": false,
      "inputs": [
        {
          "indexed": true,
          "internalType": "address",
          "name": "previousOwner",
          "type": "address"
        },
        {
          "indexed": true,
          "internalType": "address",
          "name": "newOwner",
          "type": "address"
        }
      ],
      "name": "OwnershipTransferred",
      "type": "event"
    },
    {
      "anonymous": false,
      "inputs": [
        {
          "indexed": true,
          "internalType": "address",
          "name": "from",
          "type": "address"
        },
        {
          "indexed": true,
          "internalType": "address",
          "name": "to",
          "type": "address"
        },
        {
          "indexed": false,
          "internalType": "uint256",
          "name": "value",
          "type": "uint256"
        }
      ],
      "name": "Transfer",
      "type": "event"
    },
    {
      "inputs": [],
      "name": "MAX_SUPPLY",
      "outputs": [
        {
          "internalType": "uint256",
          "name": "",
          "type": "uint256"
        }
      ],
      "stateMutability": "view",
      "type": "function"
    },
    {
      "inputs": [
        {
          "internalType": "address",
          "name": "owner",
          "type": "address"
        },
        {
          "internalType": "address",
          "name": "spender",
          "type": "address"
        }
      ],
      "name": "allowance",
      "outputs": [
        {
          "internalType": "uint256",
          "name": "",
          "type": "uint256"
        }
      ],
      "stateMutability": "view",
      "type": "function"
    },
    {
      "inputs": [
        {
          "internalType": "address",
          "name": "spender",
          "type": "address"
        },
        {
          "internalType": "uint256",
          "name": "value",
          "type": "uint256"
        }
      ],
      "name": "approve",
      "outputs": [
        {
          "internalType": "bool",
          "name": "",
          "type": "bool"
        }
      ],
      "stateMutability": "nonpayable",
      "type": "function"
    },
    {
      "inputs": [
        {
          "internalType": "address",
          "name": "account",
          "type": "address"
        }
      ],
      "name": "balanceOf",
      "outputs": [
        {
          "internalType": "uint256",
          "name": "",
          "type": "uint256"
        }
      ],
      "stateMutability": "view",
      "type": "function"
    },
    {
      "inputs": [
        {
          "internalType": "uint256",
          "name": "value",
          "type": "uint256"
        }
      ],
      "name": "burn",
      "outputs": [],
      "stateMutability": "nonpayable",
      "type": "function"
    },
    {
      "inputs": [
        {
          "internalType": "address",
          "name": "account",
          "type": "address"
        },
        {
          "internalType": "uint256",
          "name": "value",
          "type": "uint256"
        }
      ],
      "name": "burnFrom",
      "outputs": [],
      "stateMutability": "nonpayable",
      "type": "function"
    },
    {
      "inputs": [],
      "name": "completeDistribution",
      "outputs": [],
      "stateMutability": "nonpayable",
      "type": "function"
    },
    {
      "inputs": [],
      "name": "decimals",
      "outputs": [
        {
          "internalType": "uint8",
          "name": "",
          "type": "uint8"
        }
      ],
      "stateMutability": "view",
      "type": "function"
    },
    {
      "inputs": [],
      "name": "distributionCompleted",
      "outputs": [
        {
          "internalType": "bool",
          "name": "",
          "type": "bool"
        }
      ],
      "stateMutability": "view",
      "type": "function"
    },
    {
      "inputs": [
        {
          "internalType": "uint256",
          "name": "amount",
          "type": "uint256"
        }
      ],
      "name": "feeBurn",
      "outputs": [],
      "stateMutability": "nonpayable",
      "type": "function"
    },
    {
      "inputs": [
        {
          "internalType": "address",
          "name": "account",
          "type": "address"
        }
      ],
      "name": "getDiscountTier",
      "outputs": [
        {
          "internalType": "uint8",
          "name": "tier",
          "type": "uint8"
        },
        {
          "internalType": "uint16",
          "name": "discountBps",
          "type": "uint16"
        }
      ],
      "stateMutability": "view",
      "type": "function"
    },
    {
      "inputs": [
        {
          "internalType": "address[]",
          "name": "recipients",
          "type": "address[]"
        },
        {
          "internalType": "uint256[]",
          "name": "amounts",
          "type": "uint256[]"
        }
      ],
      "name": "initialDistribution",
      "outputs": [],
      "stateMutability": "nonpayable",
      "type": "function"
    },
    {
      "inputs": [],
      "name": "name",
      "outputs": [
        {
          "internalType": "string",
          "name": "",
          "type": "string"
        }
      ],
      "stateMutability": "view",
      "type": "function"
    },
    {
      "inputs": [],
      "name": "owner",
      "outputs": [
        {
          "internalType": "address",
          "name": "",
          "type": "address"
        }
      ],
      "stateMutability": "view",
      "type": "function"
    },
    {
      "inputs": [],
      "name": "renounceOwnership",
      "outputs": [],
      "stateMutability": "nonpayable",
      "type": "function"
    },
    {
      "inputs": [],
      "name": "symbol",
      "outputs": [
        {
          "internalType": "string",
          "name": "",
          "type": "string"
        }
      ],
      "stateMutability": "view",
      "type": "function"
    },
    {
      "inputs": [],
      "name": "totalSupply",
      "outputs": [
        {
          "internalType": "uint256",
          "name": "",
          "type": "uint256"
        }
      ],
      "stateMutability": "view",
      "type": "function"
    },
    {
      "inputs": [
        {
          "internalType": "address",
          "name": "to",
          "type": "address"
        },
        {
          "internalType": "uint256",
          "name": "value",
          "type": "uint256"
        }
      ],
      "name": "transfer",
      "outputs": [
        {
          "internalType": "bool",
          "name": "",
          "type": "bool"
        }
      ],
      "stateMutability": "nonpayable",
      "type": "function"
    },
    {
      "inputs": [
        {
          "internalType": "address",
          "name": "from",
          "type": "address"
        },
        {
          "internalType": "address",
          "name": "to",
          "type": "address"
        },
        {
          "internalType": "uint256",
          "name": "value",
          "type": "uint256"
        }
      ],
      "name": "transferFrom",
      "outputs": [
        {
          "internalType": "bool",
          "name": "",
          "type": "bool"
        }
      ],
      "stateMutability": "nonpayable",
      "type": "function"
    },
    {
      "inputs": [
        {
          "internalType": "address",
          "name": "newOwner",
          "type": "address"
        }
      ],
      "name": "transferOwnership",
      "outputs": [],
      "stateMutability": "nonpayable",
      "type": "function"
    }
  ],
  "bytecode": "0x60806040523480156200001157600080fd5b50336040518060400160405280600981526020016814ddd85c141a5b1bdd60ba1b8152506040518060400160405280600581526020016414125313d560da1b8152508160039081620000649190620001ae565b506004620000738282620001ae565b5050506001600160a01b038116620000a557604051631e4fbdf760e01b81526000600482015260240160405180910390fd5b620000b081620000b7565b506200027a565b600580546001600160a01b038381166001600160a01b0319831681179093556040519116919082907f8be0079c531659141344cd1fd0a4f28419497f9722a3daafe3b4186f6b6457e090600090a35050565b634e487b7160e01b600052604160045260246000fd5b600181811c908216806200013457607f821691505b6020821081036200015557634e487b7160e01b600052602260045260246000fd5b50919050565b601f821115620001a957600081815260208120601f850160051c81016020861015620001845750805b601f850160051c820191505b81811015620001a55782815560010162000190565b5050505b505050565b81516001600160401b03811115620001ca57620001ca62000109565b620001e281620001db84546200011f565b846200015b565b602080601f8311600181146200021a5760008415620002015750858301515b600019600386901b1c1916600185901b178555620001a5565b600085815260208120601f198616915b828110156200024b578886015182559484019460019091019084016200022a565b50858210156200026a5787850151600019600388901b60f8161c191681555b5050505050600190811b01905550565b610db0806200028a6000396000f3fe608060405234801561001057600080fd5b506004361061012c5760003560e01c8063715018a6116100ad57806395d89b411161007157806395d89b411461026f578063a87ea75214610277578063a9059cbb146102a6578063dd62ed3e146102b9578063f2fde38b146102f257600080fd5b8063715018a614610213578063736a0ea81461021b57806379cc67901461022e5780638da5cb5b146102415780638db3f9361461025c57600080fd5b8063318778ee116100f4578063318778ee146101a657806332cb6b0c146101b057806342966c68146101c35780635ce19e92146101d657806370a08231146101ea57600080fd5b806306fdde0314610131578063095ea7b31461014f57806318160ddd1461017257806323b872dd14610184578063313ce56714610197575b600080fd5b610139610305565b6040516101469190610af2565b60405180910390f35b61016261015d366004610b5c565b610397565b6040519015158152602001610146565b6002545b604051908152602001610146565b610162610192366004610b86565b6103b1565b60405160128152602001610146565b6101ae6103d5565b005b6101766b033b2e3c9fd0803ce800000081565b6101ae6101d1366004610bc2565b6103f2565b60055461016290600160a01b900460ff1681565b6101766101f8366004610bdb565b6001600160a01b031660009081526020819052604090205490565b6101ae6103ff565b6101ae610229366004610c49565b610413565b6101ae61023c366004610b5c565b6105d8565b6005546040516001600160a01b039091168152602001610146565b6101ae61026a366004610bc2565b6105f1565b610139610633565b61028a610285366004610bdb565b610642565b6040805160ff909316835261ffff909116602083015201610146565b6101626102b4366004610b5c565b6106cf565b6101766102c7366004610cb5565b6001600160a01b03918216600090815260016020908152604080832093909416825291909152205490565b6101ae610300366004610bdb565b6106dd565b60606003805461031490610ce8565b80601f016020809104026020016040519081016040528092919081815260200182805461034090610ce8565b801561038d5780601f106103625761010080835404028352916020019161038d565b820191906000526020600020905b81548152906001019060200180831161037057829003601f168201915b5050505050905090565b6000336103a5818585610718565b60019150505b92915050565b6000336103bf85828561072a565b6103ca8585856107a9565b506001949350505050565b6103dd610808565b6005805460ff60a01b1916600160a01b179055565b6103fc3382610835565b50565b610407610808565b610411600061086b565b565b61041b610808565b600554600160a01b900460ff161561047a5760405162461bcd60e51b815260206004820152601e60248201527f446973747269627574696f6e20616c726561647920636f6d706c65746564000060448201526064015b60405180910390fd5b8281146104c25760405162461bcd60e51b8152602060048201526016602482015275082e4e4c2f2e640d8cadccee8d040dad2e6dac2e8c6d60531b6044820152606401610471565b6000805b82811015610506578383828181106104e0576104e0610d22565b90506020020135826104f29190610d4e565b9150806104fe81610d61565b9150506104c6565b506b033b2e3c9fd0803ce80000008161051e60025490565b6105289190610d4e565b111561056b5760405162461bcd60e51b815260206004820152601260248201527145786365656473206d617820737570706c7960701b6044820152606401610471565b60005b848110156105d0576105be86868381811061058b5761058b610d22565b90506020020160208101906105a09190610bdb565b8585848181106105b2576105b2610d22565b905060200201356108bd565b806105c881610d61565b91505061056e565b505050505050565b6105e382338361072a565b6105ed8282610835565b5050565b6105fb3382610835565b60405181815233907f2b79f66bc98e43662c246d1f78732b1ae82e2102463d0d088e354588244b78f39060200160405180910390a250565b60606004805461031490610ce8565b6000806000610666846001600160a01b031660009081526020819052604090205490565b905069021e19e0c9bab2400000811061068757506003936107d09350915050565b683635c9adc5dea0000081106106a557506002936105dc9350915050565b68056bc75e2d6310000081106106c357506001936103e89350915050565b50600093849350915050565b6000336103a58185856107a9565b6106e5610808565b6001600160a01b03811661070f57604051631e4fbdf760e01b815260006004820152602401610471565b6103fc8161086b565b61072583838360016108f3565b505050565b6001600160a01b038381166000908152600160209081526040808320938616835292905220546000198110156107a3578181101561079457604051637dc7a0d960e11b81526001600160a01b03841660048201526024810182905260448101839052606401610471565b6107a3848484840360006108f3565b50505050565b6001600160a01b0383166107d357604051634b637e8f60e11b815260006004820152602401610471565b6001600160a01b0382166107fd5760405163ec442f0560e01b815260006004820152602401610471565b6107258383836109c8565b6005546001600160a01b031633146104115760405163118cdaa760e01b8152336004820152602401610471565b6001600160a01b03821661085f57604051634b637e8f60e11b815260006004820152602401610471565b6105ed826000836109c8565b600580546001600160a01b038381166001600160a01b0319831681179093556040519116919082907f8be0079c531659141344cd1fd0a4f28419497f9722a3daafe3b4186f6b6457e090600090a35050565b6001600160a01b0382166108e75760405163ec442f0560e01b815260006004820152602401610471565b6105ed600083836109c8565b6001600160a01b03841661091d5760405163e602df0560e01b815260006004820152602401610471565b6001600160a01b03831661094757604051634a1406b160e11b815260006004820152602401610471565b6001600160a01b03808516600090815260016020908152604080832093871683529290522082905580156107a357826001600160a01b0316846001600160a01b03167f8c5be1e5ebec7d5bd14f71427d1e84f3dd0314c0f7b2291e5b200ac8c7c3b925846040516109ba91815260200190565b60405180910390a350505050565b6001600160a01b0383166109f35780600260008282546109e89190610d4e565b90915550610a659050565b6001600160a01b03831660009081526020819052604090205481811015610a465760405163391434e360e21b81526001600160a01b03851660048201526024810182905260448101839052606401610471565b6001600160a01b03841660009081526020819052604090209082900390555b6001600160a01b038216610a8157600280548290039055610aa0565b6001600160a01b03821660009081526020819052604090208054820190555b816001600160a01b0316836001600160a01b03167fddf252ad1be2c89b69c2b068fc378daa952ba7f163c4a11628f55a4df523b3ef83604051610ae591815260200190565b60405180910390a3505050565b600060208083528351808285015260005b81811015610b1f57858101830151858201604001528201610b03565b506000604082860101526040601f19601f8301168501019250505092915050565b80356001600160a01b0381168114610b5757600080fd5b919050565b60008060408385031215610b6f57600080fd5b610b7883610b40565b946020939093013593505050565b600080600060608486031215610b9b57600080fd5b610ba484610b40565b9250610bb260208501610b40565b9150604084013590509250925092565b600060208284031215610bd457600080fd5b5035919050565b600060208284031215610bed57600080fd5b610bf682610b40565b9392505050565b60008083601f840112610c0f57600080fd5b50813567ffffffffffffffff811115610c2757600080fd5b6020830191508360208260051b8501011115610c4257600080fd5b9250929050565b60008060008060408587031215610c5f57600080fd5b843567ffffffffffffffff80821115610c7757600080fd5b610c8388838901610bfd565b90965094506020870135915080821115610c9c57600080fd5b50610ca987828801610bfd565b95989497509550505050565b60008060408385031215610cc857600080fd5b610cd183610b40565b9150610cdf60208401610b40565b90509250929050565b600181811c90821680610cfc57607f821691505b602082108103610d1c57634e487b7160e01b600052602260045260246000fd5b50919050565b634e487b7160e01b600052603260045260246000fd5b634e487b7160e01b600052601160045260246000fd5b808201808211156103ab576103ab610d38565b600060018201610d7357610d73610d38565b506001019056fea2646970667358221220e853d5f4e096ca0cf7f34455e290ea682eb131d566b4e646957e0810e9676e5164736f6c63430008140033",
  "linkReferences": {},
  "deployedLinkReferences": {}
}