{
  "_format": "hh-sol-artifact-1",
  "contractName": "ReferralRewards",
  "sourceName": "src/ReferralRewards.sol",
  "abi": [
    {
      "inputs": [
        {
          "internalType": "address",
          "name": "_pilotToken",
          "type": "address"
        }
      ],
      "stateMutability": "nonpayable",
      "type": "constructor"
    },
    {
      "inputs": [
        {
          "internalType": "address",
          "name": "owner",
          "type": "address"
        }
      ],
      "name": "OwnableInvalidOwner",
      "type": "error"
    },
    {
      "inputs": [
        {
          "internalType": "address",
          "name": "account",
          "type": "address"
        }
      ],
      "name": "OwnableUnauthorizedAccount",
      "type": "error"
    },
    {
      "inputs": [],
      "name": "ReentrancyGuardReentrantCall",
      "type": "error"
    },
    {
      "inputs": [
        {
          "internalType": "address",
          "name": "token",
          "type": "address"
        }
      ],
      "name": "SafeERC20FailedOperation",
      "type": "error"
    },
    {
      "anonymous": false,
      "inputs": [
        {
          "indexed": true,
          "internalType": "address",
          "name": "distributor",
          "type": "address"
        },
        {
          "indexed": false,
          "internalType": "bool",
          "name": "authorized",
          "type": "bool"
        }
      ],
      "name": "DistributorUpdated",
      "type": "event"
    },
    {
      "anonymous": false,
      "inputs": [
        {
          "indexed": true,
          "internalType": "address",
          "name": "token",
          "type": "address"
        },
        {
          "indexed": false,
          "internalType": "uint256",
          "name": "amount",
          "type": "uint256"
        },
        {
          "indexed": true,
          "internalType": "address",
          "name": "to",
          "type": "address"
        }
      ],
      "name": "EmergencyWithdraw",
      "type": "event"
    },
    {
      "anonymous": false,
      "inputs": [
        {
          "indexed": true,
          "internalType": "address",
          "name": "previousOwner",
          "type": "address"
        },
        {
          "indexed": true,
          "internalType": "address",
          "name": "newOwner",
          "type": "address"
        }
      ],
      "name": "OwnershipTransferred",
      "type": "event"
    },
    {
      "anonymous": false,
      "inputs": [
        {
          "indexed": true,
          "internalType": "address",
          "name": "referrer",
          "type": "address"
        },
        {
          "indexed": false,
          "internalType": "bytes32",
          "name": "codeHash",
          "type": "bytes32"
        }
      ],
      "name": "ReferralCodeCreated",
      "type": "event"
    },
    {
      "anonymous": false,
      "inputs": [
        {
          "indexed": true,
          "internalType": "address",
          "name": "referrer",
          "type": "address"
        },
        {
          "indexed": true,
          "internalType": "address",
          "name": "user",
          "type": "address"
        },
        {
          "indexed": false,
          "internalType": "uint256",
          "name": "swapVolumeUsd",
          "type": "uint256"
        },
        {
          "indexed": false,
          "internalType": "uint256",
          "name": "rewardAmount",
          "type": "uint256"
        }
      ],
      "name": "RewardAccrued",
      "type": "event"
    },
    {
      "anonymous": false,
      "inputs": [
        {
          "indexed": false,
          "internalType": "uint256",
          "name": "oldRate",
          "type": "uint256"
        },
        {
          "indexed": false,
          "internalType": "uint256",
          "name": "newRate",
          "type": "uint256"
        }
      ],
      "name": "RewardRateUpdated",
      "type": "event"
    },
    {
      "anonymous": false,
      "inputs": [
        {
          "indexed": true,
          "internalType": "address",
          "name": "referrer",
          "type": "address"
        },
        {
          "indexed": false,
          "internalType": "uint256",
          "name": "amount",
          "type": "uint256"
        }
      ],
      "name": "RewardsClaimed",
      "type": "event"
    },
    {
      "anonymous": false,
      "inputs": [
        {
          "indexed": true,
          "internalType": "address",
          "name": "user",
          "type": "address"
        },
        {
          "indexed": true,
          "internalType": "address",
          "name": "referrer",
          "type": "address"
        }
      ],
      "name": "UserReferred",
      "type": "event"
    },
    {
      "inputs": [],
      "name": "REFERRAL_ALLOCATION",
      "outputs": [
        {
          "internalType": "uint256",
          "name": "",
          "type": "uint256"
        }
      ],
      "stateMutability": "view",
      "type": "function"
    },
    {
      "inputs": [
        {
          "internalType": "address",
          "name": "user",
          "type": "address"
        },
        {
          "internalType": "uint256",
          "name": "swapVolumeUsd",
          "type": "uint256"
        }
      ],
      "name": "accrueReward",
      "outputs": [],
      "stateMutability": "nonpayable",
      "type": "function"
    },
    {
      "inputs": [],
      "name": "claimRewards",
      "outputs": [],
      "stateMutability": "nonpayable",
      "type": "function"
    },
    {
      "inputs": [
        {
          "internalType": "bytes32",
          "name": "",
          "type": "bytes32"
        }
      ],
      "name": "codeToReferrer",
      "outputs": [
        {
          "internalType": "address",
          "name": "",
          "type": "address"
        }
      ],
      "stateMutability": "view",
      "type": "function"
    },
    {
      "inputs": [
        {
          "internalType": "address",
          "name": "",
          "type": "address"
        }
      ],
      "name": "distributors",
      "outputs": [
        {
          "internalType": "bool",
          "name": "",
          "type": "bool"
        }
      ],
      "stateMutability": "view",
      "type": "function"
    },
    {
      "inputs": [
        {
          "internalType": "address",
          "name": "token",
          "type": "address"
        },
        {
          "internalType": "uint256",
          "name": "amount",
          "type": "uint256"
        }
      ],
      "name": "emergencyWithdraw",
      "outputs": [],
      "stateMutability": "nonpayable",
      "type": "function"
    },
    {
      "inputs": [
        {
          "internalType": "string",
          "name": "code",
          "type": "string"
        }
      ],
      "name": "getReferrerFromCode",
      "outputs": [
        {
          "internalType": "address",
          "name": "",
          "type": "address"
        }
      ],
      "stateMutability": "view",
      "type": "function"
    },
    {
      "inputs": [
        {
          "internalType": "address",
          "name": "referrer",
          "type": "address"
        }
      ],
      "name": "getReferrerStats",
      "outputs": [
        {
          "internalType": "uint256",
          "name": "pending",
          "type": "uint256"
        },
        {
          "internalType": "uint256",
          "name": "totalEarnedAmount",
          "type": "uint256"
        },
        {
          "internalType": "uint256",
          "name": "volumeReferred",
          "type": "uint256"
        },
        {
          "internalType": "uint256",
          "name": "usersReferred",
          "type": "uint256"
        },
        {
          "internalType": "bytes32",
          "name": "codeHash",
          "type": "bytes32"
        }
      ],
      "stateMutability": "view",
      "type": "function"
    },
    {
      "inputs": [],
      "name": "getRemainingAllocation",
      "outputs": [
        {
          "internalType": "uint256",
          "name": "",
          "type": "uint256"
        }
      ],
      "stateMutability": "view",
      "type": "function"
    },
    {
      "inputs": [
        {
          "internalType": "string",
          "name": "code",
          "type": "string"
        }
      ],
      "name": "isCodeAvailable",
      "outputs": [
        {
          "internalType": "bool",
          "name": "",
          "type": "bool"
        }
      ],
      "stateMutability": "view",
      "type": "function"
    },
    {
      "inputs": [
        {
          "internalType": "address",
          "name": "user",
          "type": "address"
        },
        {
          "internalType": "string",
          "name": "code",
          "type": "string"
        }
      ],
      "name": "linkUserToReferrer",
      "outputs": [],
      "stateMutability": "nonpayable",
      "type": "function"
    },
    {
      "inputs": [],
      "name": "maxRewardPerSwap",
      "outputs": [
        {
          "internalType": "uint256",
          "name": "",
          "type": "uint256"
        }
      ],
      "stateMutability": "view",
      "type": "function"
    },
    {
      "inputs": [],
      "name": "minSwapVolumeUsd",
      "outputs": [
        {
          "internalType": "uint256",
          "name": "",
          "type": "uint256"
        }
      ],
      "stateMutability": "view",
      "type": "function"
    },
    {
      "inputs": [],
      "name": "owner",
      "outputs": [
        {
          "internalType": "address",
          "name": "",
          "type": "address"
        }
      ],
      "stateMutability": "view",
      "type": "function"
    },
    {
      "inputs": [
        {
          "internalType": "address",
          "name": "",
          "type": "address"
        }
      ],
      "name": "pendingRewards",
      "outputs": [
        {
          "internalType": "uint256",
          "name": "",
          "type": "uint256"
        }
      ],
      "stateMutability": "view",
      "type": "function"
    },
    {
      "inputs": [],
      "name": "pilotToken",
      "outputs": [
        {
          "internalType": "contract IERC20",
          "name": "",
          "type": "address"
        }
      ],
      "stateMutability": "view",
      "type": "function"
    },
    {
      "inputs": [
        {
          "internalType": "address",
          "name": "",
          "type": "address"
        }
      ],
      "name": "referralCount",
      "outputs": [
        {
          "internalType": "uint256",
          "name": "",
          "type": "uint256"
        }
      ],
      "stateMutability": "view",
      "type": "function"
    },
    {
      "inputs": [
        {
          "internalType": "address",
          "name": "",
          "type": "address"
        }
      ],
      "name": "referredVolume",
      "outputs": [
        {
          "internalType": "uint256",
          "name": "",
          "type": "uint256"
        }
      ],
      "stateMutability": "view",
      "type": "function"
    },
    {
      "inputs": [
        {
          "internalType": "address",
          "name": "",
          "type": "address"
        }
      ],
      "name": "referrerCodes",
      "outputs": [
        {
          "internalType": "bytes32",
          "name": "",
          "type": "bytes32"
        }
      ],
      "stateMutability": "view",
      "type": "function"
    },
    {
      "inputs": [
        {
          "internalType": "string",
          "name": "code",
          "type": "string"
        }
      ],
      "name": "registerReferralCode",
      "outputs": [],
      "stateMutability": "nonpayable",
      "type": "function"
    },
    {
      "inputs": [],
      "name": "renounceOwnership",
      "outputs": [],
      "stateMutability": "nonpayable",
      "type": "function"
    },
    {
      "inputs": [],
      "name": "rewardRatePerDollar",
      "outputs": [
        {
          "internalType": "uint256",
          "name": "",
          "type": "uint256"
        }
      ],
      "stateMutability": "view",
      "type": "function"
    },
    {
      "inputs": [
        {
          "internalType": "address",
          "name": "distributor",
          "type": "address"
        },
        {
          "internalType": "bool",
          "name": "authorized",
          "type": "bool"
        }
      ],
      "name": "setDistributor",
      "outputs": [],
      "stateMutability": "nonpayable",
      "type": "function"
    },
    {
      "inputs": [
        {
          "internalType": "uint256",
          "name": "maxReward",
          "type": "uint256"
        }
      ],
      "name": "setMaxRewardPerSwap",
      "outputs": [],
      "stateMutability": "nonpayable",
      "type": "function"
    },
    {
      "inputs": [
        {
          "internalType": "uint256",
          "name": "minVolumeUsd",
          "type": "uint256"
        }
      ],
      "name": "setMinSwapVolume",
      "outputs": [],
      "stateMutability": "nonpayable",
      "type": "function"
    },
    {
      "inputs": [
        {
          "internalType": "uint256",
          "name": "newRatePerDollar",
          "type": "uint256"
        }
      ],
      "name": "setRewardRate",
      "outputs": [],
      "stateMutability": "nonpayable",
      "type": "function"
    },
    {
      "inputs": [
        {
          "internalType": "address",
          "name": "",
          "type": "address"
        }
      ],
      "name": "totalEarned",
      "outputs": [
        {
          "internalType": "uint256",
          "name": "",
          "type": "uint256"
        }
      ],
      "stateMutability": "view",
      "type": "function"
    },
    {
      "inputs": [],
      "name": "totalRewardsDistributed",
      "outputs": [
        {
          "internalType": "uint256",
          "name": "",
          "type": "uint256"
        }
      ],
      "stateMutability": "view",
      "type": "function"
    },
    {
      "inputs": [
        {
          "internalType": "address",
          "name": "newOwner",
          "type": "address"
        }
      ],
      "name": "transferOwnership",
      "outputs": [],
      "stateMutability": "nonpayable",
      "type": "function"
    },
    {
      "inputs": [
        {
          "internalType": "address",
          "name": "",
          "type": "address"
        }
      ],
      "name": "userReferrer",
      "outputs": [
        {
          "internalType": "address",
          "name": "",
          "type": "address"
        }
      ],
      "stateMutability": "view",
      "type": "function"
    }
  ],
  "bytecode": "0x60a060405267016345785d8a0000600255678ac7230489e80000600355683635c9adc5dea0000060045534801561003557600080fd5b5060405161149938038061149983398101604081905261005491610140565b338061007b57604051631e4fbdf760e01b8152600060048201526024015b60405180910390fd5b610084816100f0565b50600180556001600160a01b0381166100df5760405162461bcd60e51b815260206004820152601560248201527f496e76616c69642050494c4f54206164647265737300000000000000000000006044820152606401610072565b6001600160a01b0316608052610170565b600080546001600160a01b038381166001600160a01b0319831681178455604051919092169283917f8be0079c531659141344cd1fd0a4f28419497f9722a3daafe3b4186f6b6457e09190a35050565b60006020828403121561015257600080fd5b81516001600160a01b038116811461016957600080fd5b9392505050565b6080516113006101996000396000818161029001528181610524015261068b01526113006000f3fe608060405234801561001057600080fd5b50600436106101da5760003560e01c80638da5cb5b11610104578063d59ba0df116100a2578063dcf0975811610071578063dcf09758146104ca578063ee172546146104d3578063eec33872146104dc578063f2fde38b146104ef57600080fd5b8063d59ba0df14610465578063d5ab6f5014610478578063d882be1b14610498578063db74559b146104aa57600080fd5b8063b24f4b8d116100de578063b24f4b8d14610403578063bd3453ab14610426578063bdbc24f71461042f578063cc6427841461044257600080fd5b80638da5cb5b146103cc57806395ccea67146103dd5780639e447fc6146103f057600080fd5b806339c3b99c1161017c578063715018a61161014b578063715018a61461030e57806378c97de4146103165780637c3fcc38146103295780637e3961101461035257600080fd5b806339c3b99c1461028b57806347c30cbd146102b257806359fb7752146102db578063649aca4a146102ee57600080fd5b806331d7a262116101b857806331d7a2621461022e57806334421a0a1461024e578063372500ab1461026e578063388bdb391461027857600080fd5b80630949fd3f146101df57806328b43f2d146101fa5780632e8de1d414610225575b600080fd5b6101e7610502565b6040519081526020015b60405180910390f35b61020d6102083660046110c6565b6105c7565b6040516001600160a01b0390911681526020016101f1565b6101e760025481565b6101e761023c36600461111f565b600a6020526000908152604090205481565b6101e761025c36600461111f565b600c6020526000908152604090205481565b610276610615565b005b610276610286366004611141565b6106fb565b61020d7f000000000000000000000000000000000000000000000000000000000000000081565b61020d6102c0366004611194565b6008602052600090815260409020546001600160a01b031681565b6102766102e93660046110c6565b61093e565b6101e76102fc36600461111f565b600b6020526000908152604090205481565b610276610abd565b610276610324366004611194565b610acf565b61020d61033736600461111f565b6009602052600090815260409020546001600160a01b031681565b6103a461036036600461111f565b6001600160a01b03166000908152600a6020908152604080832054600b835281842054600c845282852054600d855283862054600790955292909420549094919291565b604080519586526020860194909452928401919091526060830152608082015260a0016101f1565b6000546001600160a01b031661020d565b6102766103eb3660046111ad565b610adc565b6102766103fe366004611194565b610bda565b6104166104113660046110c6565b610c27565b60405190151581526020016101f1565b6101e760045481565b61027661043d3660046111ad565b610c74565b61041661045036600461111f565b60066020526000908152604090205460ff1681565b6102766104733660046111d7565b610e56565b6101e761048636600461111f565b60076020526000908152604090205481565b6101e76a295be96e6406697200000081565b6101e76104b836600461111f565b600d6020526000908152604090205481565b6101e760035481565b6101e760055481565b6102766104ea366004611194565b610ebd565b6102766104fd36600461111f565b610eca565b6040516370a0823160e01b815230600482015260009081906001600160a01b037f000000000000000000000000000000000000000000000000000000000000000016906370a0823190602401602060405180830381865afa15801561056b573d6000803e3d6000fd5b505050506040513d601f19601f8201168201806040525081019061058f9190611213565b90506a295be96e640669720000008111156105c2576005546105bc906a295be96e64066972000000611242565b91505090565b919050565b60008083836040516020016105dd929190611255565b60408051601f198184030181529181528151602092830120600090815260089092529020546001600160a01b03169150505b92915050565b61061d610f08565b336000908152600a6020526040902054806106755760405162461bcd60e51b81526020600482015260136024820152724e6f207265776172647320746f20636c61696d60681b60448201526064015b60405180910390fd5b336000818152600a60205260408120556106ba907f00000000000000000000000000000000000000000000000000000000000000006001600160a01b03169083610f32565b60405181815233907ffc30cddea38e2bf4d6ea7d3f9ed3b6ad7f176419f4963bd81318067a4aee73fe9060200160405180910390a2506106f960018055565b565b3360009081526006602052604090205460ff168061072357506000546001600160a01b031633145b6107605760405162461bcd60e51b815260206004820152600e60248201526d139bdd08185d5d1a1bdc9a5e995960921b604482015260640161066c565b6001600160a01b0383811660009081526009602052604090205416156107c85760405162461bcd60e51b815260206004820152601960248201527f5573657220616c72656164792068617320726566657272657200000000000000604482015260640161066c565b600082826040516020016107dd929190611255565b60408051601f198184030181529181528151602092830120600081815260089093529120549091506001600160a01b0316806108535760405162461bcd60e51b8152602060048201526015602482015274496e76616c696420726566657272616c20636f646560581b604482015260640161066c565b846001600160a01b0316816001600160a01b0316036108ac5760405162461bcd60e51b815260206004820152601560248201527421b0b73737ba103932b332b9103cb7bab939b2b63360591b604482015260640161066c565b6001600160a01b03858116600090815260096020908152604080832080546001600160a01b0319169486169485179055928252600d90529081208054916108f283611265565b9190505550806001600160a01b0316856001600160a01b03167f9256f4918f0f4134175473b5d02d74b98988367c1c2659d052fd71e9c8fe66dd60405160405180910390a35050505050565b60038110801590610950575060148111155b61099c5760405162461bcd60e51b815260206004820152601760248201527f436f6465206d75737420626520332d3230206368617273000000000000000000604482015260640161066c565b600082826040516020016109b1929190611255565b60408051601f198184030181529181528151602092830120600081815260089093529120549091506001600160a01b031615610a245760405162461bcd60e51b815260206004820152601260248201527121b7b2329030b63932b0b23c903a30b5b2b760711b604482015260640161066c565b336000908152600760205260409020548015610a5757600081815260086020526040902080546001600160a01b03191690555b336000818152600760209081526040808320869055858352600882529182902080546001600160a01b0319168417905590518481527f84d410093008674eba76b70ab072a4f33a5858f8aebca4c89a70447eccf6ffda910160405180910390a250505050565b610ac5610f89565b6106f96000610fb6565b610ad7610f89565b600455565b610ae4610f89565b6001600160a01b038216610b8257604051600090339083908381818185875af1925050503d8060008114610b34576040519150601f19603f3d011682016040523d82523d6000602084013e610b39565b606091505b5050905080610b7c5760405162461bcd60e51b815260206004820152600f60248201526e151c985b9cd9995c8819985a5b1959608a1b604482015260640161066c565b50610b96565b610b966001600160a01b0383163383610f32565b60405181815233906001600160a01b038416907faaeda929aa102e867049528ec7cd2499e3a2f8846e736ae7935f234dfbf500d99060200160405180910390a35050565b610be2610f89565b600280549082905560408051828152602081018490527fc390a98ace15a7bb6bab611eedfdbb2685043b241a869420043cdfb23ccfee50910160405180910390a15050565b6000808383604051602001610c3d929190611255565b60408051808303601f190181529181528151602092830120600090815260089092529020546001600160a01b031615949350505050565b3360009081526006602052604090205460ff1680610c9c57506000546001600160a01b031633145b610cd95760405162461bcd60e51b815260206004820152600e60248201526d139bdd08185d5d1a1bdc9a5e995960921b604482015260640161066c565b6001600160a01b038083166000908152600960205260409020541680610cfe57505050565b600354821015610d0d57505050565b6000610d17610502565b905080600003610d275750505050565b6000670de0b6b3a764000060025485610d40919061127e565b610d4a9190611295565b9050600454811115610d5b57506004545b81811115610d665750805b6001600160a01b0383166000908152600a602052604081208054839290610d8e9084906112b7565b90915550506001600160a01b0383166000908152600b602052604081208054839290610dbb9084906112b7565b90915550506001600160a01b0383166000908152600c602052604081208054869290610de89084906112b7565b925050819055508060056000828254610e0191906112b7565b909155505060408051858152602081018390526001600160a01b0380881692908616917ffd07974d3aaf62e9d6f1492b77eba5e72f99d8367e456eaf203de8491d42c999910160405180910390a35050505050565b610e5e610f89565b6001600160a01b038216600081815260066020908152604091829020805460ff191685151590811790915591519182527f19e1fee2e38695e60ad3ef8c81759c22d6d7ee56f9b8805363820a50da468a18910160405180910390a25050565b610ec5610f89565b600355565b610ed2610f89565b6001600160a01b038116610efc57604051631e4fbdf760e01b81526000600482015260240161066c565b610f0581610fb6565b50565b600260015403610f2b57604051633ee5aeb560e01b815260040160405180910390fd5b6002600155565b604080516001600160a01b038416602482015260448082018490528251808303909101815260649091019091526020810180516001600160e01b031663a9059cbb60e01b179052610f84908490611006565b505050565b6000546001600160a01b031633146106f95760405163118cdaa760e01b815233600482015260240161066c565b600080546001600160a01b038381166001600160a01b0319831681178455604051919092169283917f8be0079c531659141344cd1fd0a4f28419497f9722a3daafe3b4186f6b6457e09190a35050565b600080602060008451602086016000885af180611029576040513d6000823e3d81fd5b50506000513d9150811561104157806001141561104e565b6001600160a01b0384163b155b1561107757604051635274afe760e01b81526001600160a01b038516600482015260240161066c565b50505050565b60008083601f84011261108f57600080fd5b50813567ffffffffffffffff8111156110a757600080fd5b6020830191508360208285010111156110bf57600080fd5b9250929050565b600080602083850312156110d957600080fd5b823567ffffffffffffffff8111156110f057600080fd5b6110fc8582860161107d565b90969095509350505050565b80356001600160a01b03811681146105c257600080fd5b60006020828403121561113157600080fd5b61113a82611108565b9392505050565b60008060006040848603121561115657600080fd5b61115f84611108565b9250602084013567ffffffffffffffff81111561117b57600080fd5b6111878682870161107d565b9497909650939450505050565b6000602082840312156111a657600080fd5b5035919050565b600080604083850312156111c057600080fd5b6111c983611108565b946020939093013593505050565b600080604083850312156111ea57600080fd5b6111f383611108565b91506020830135801515811461120857600080fd5b809150509250929050565b60006020828403121561122557600080fd5b5051919050565b634e487b7160e01b600052601160045260246000fd5b8181038181111561060f5761060f61122c565b8183823760009101908152919050565b6000600182016112775761127761122c565b5060010190565b808202811582820484141761060f5761060f61122c565b6000826112b257634e487b7160e01b600052601260045260246000fd5b500490565b8082018082111561060f5761060f61122c56fea264697066735822122086b5de6d31144afe6e35382d0aac6e110c20441ad934bfb9fec33dbd2ca84fb664736f6c63430008140033",
  "linkReferences": {},
  "deployedLinkReferences": {}
}