{
  "_format": "hh-sol-artifact-1",
  "contractName": "FeeCollectorV2",
  "sourceName": "src/FeeCollectorV2.sol",
  "abi": [
    {
      "inputs": [
        {
          "internalType": "address",
          "name": "_pilotToken",
          "type": "address"
        },
        {
          "internalType": "address",
          "name": "_treasury",
          "type": "address"
        },
        {
          "internalType": "address",
          "name": "_referralPool",
          "type": "address"
        },
        {
          "internalType": "address",
          "name": "_dexRouter",
          "type": "address"
        },
        {
          "internalType": "address",
          "name": "_wbnb",
          "type": "address"
        }
      ],
      "stateMutability": "nonpayable",
      "type": "constructor"
    },
    {
      "inputs": [],
      "name": "EnforcedPause",
      "type": "error"
    },
    {
      "inputs": [],
      "name": "ExpectedPause",
      "type": "error"
    },
    {
      "inputs": [
        {
          "internalType": "address",
          "name": "owner",
          "type": "address"
        }
      ],
      "name": "OwnableInvalidOwner",
      "type": "error"
    },
    {
      "inputs": [
        {
          "internalType": "address",
          "name": "account",
          "type": "address"
        }
      ],
      "name": "OwnableUnauthorizedAccount",
      "type": "error"
    },
    {
      "inputs": [],
      "name": "ReentrancyGuardReentrantCall",
      "type": "error"
    },
    {
      "inputs": [
        {
          "internalType": "address",
          "name": "token",
          "type": "address"
        }
      ],
      "name": "SafeERC20FailedOperation",
      "type": "error"
    },
    {
      "anonymous": false,
      "inputs": [
        {
          "indexed": true,
          "internalType": "address",
          "name": "oldRouter",
          "type": "address"
        },
        {
          "indexed": true,
          "internalType": "address",
          "name": "newRouter",
          "type": "address"
        }
      ],
      "name": "DexRouterUpdated",
      "type": "event"
    },
    {
      "anonymous": false,
      "inputs": [
        {
          "indexed": true,
          "internalType": "address",
          "name": "token",
          "type": "address"
        },
        {
          "indexed": false,
          "internalType": "uint256",
          "name": "amount",
          "type": "uint256"
        }
      ],
      "name": "FeesCollected",
      "type": "event"
    },
    {
      "anonymous": false,
      "inputs": [
        {
          "indexed": false,
          "internalType": "uint256",
          "name": "burnAmount",
          "type": "uint256"
        },
        {
          "indexed": false,
          "internalType": "uint256",
          "name": "treasuryAmount",
          "type": "uint256"
        },
        {
          "indexed": false,
          "internalType": "uint256",
          "name": "referralAmount",
          "type": "uint256"
        }
      ],
      "name": "FeesDistributed",
      "type": "event"
    },
    {
      "anonymous": false,
      "inputs": [
        {
          "indexed": false,
          "internalType": "uint256",
          "name": "oldAmount",
          "type": "uint256"
        },
        {
          "indexed": false,
          "internalType": "uint256",
          "name": "newAmount",
          "type": "uint256"
        }
      ],
      "name": "MinDistributionAmountUpdated",
      "type": "event"
    },
    {
      "anonymous": false,
      "inputs": [
        {
          "indexed": true,
          "internalType": "address",
          "name": "previousOwner",
          "type": "address"
        },
        {
          "indexed": true,
          "internalType": "address",
          "name": "newOwner",
          "type": "address"
        }
      ],
      "name": "OwnershipTransferred",
      "type": "event"
    },
    {
      "anonymous": false,
      "inputs": [
        {
          "indexed": false,
          "internalType": "address",
          "name": "account",
          "type": "address"
        }
      ],
      "name": "Paused",
      "type": "event"
    },
    {
      "anonymous": false,
      "inputs": [
        {
          "indexed": false,
          "internalType": "uint256",
          "name": "bnbSpent",
          "type": "uint256"
        },
        {
          "indexed": false,
          "internalType": "uint256",
          "name": "pilotBurned",
          "type": "uint256"
        }
      ],
      "name": "PilotBurned",
      "type": "event"
    },
    {
      "anonymous": false,
      "inputs": [
        {
          "indexed": true,
          "internalType": "address",
          "name": "oldPool",
          "type": "address"
        },
        {
          "indexed": true,
          "internalType": "address",
          "name": "newPool",
          "type": "address"
        }
      ],
      "name": "ReferralPoolUpdated",
      "type": "event"
    },
    {
      "anonymous": false,
      "inputs": [
        {
          "indexed": true,
          "internalType": "address",
          "name": "oldTreasury",
          "type": "address"
        },
        {
          "indexed": true,
          "internalType": "address",
          "name": "newTreasury",
          "type": "address"
        }
      ],
      "name": "TreasuryUpdated",
      "type": "event"
    },
    {
      "anonymous": false,
      "inputs": [
        {
          "indexed": false,
          "internalType": "address",
          "name": "account",
          "type": "address"
        }
      ],
      "name": "Unpaused",
      "type": "event"
    },
    {
      "inputs": [],
      "name": "BURN_PERCENT",
      "outputs": [
        {
          "internalType": "uint256",
          "name": "",
          "type": "uint256"
        }
      ],
      "stateMutability": "view",
      "type": "function"
    },
    {
      "inputs": [],
      "name": "REFERRAL_PERCENT",
      "outputs": [
        {
          "internalType": "uint256",
          "name": "",
          "type": "uint256"
        }
      ],
      "stateMutability": "view",
      "type": "function"
    },
    {
      "inputs": [],
      "name": "TREASURY_PERCENT",
      "outputs": [
        {
          "internalType": "uint256",
          "name": "",
          "type": "uint256"
        }
      ],
      "stateMutability": "view",
      "type": "function"
    },
    {
      "inputs": [
        {
          "internalType": "address",
          "name": "token",
          "type": "address"
        },
        {
          "internalType": "uint256",
          "name": "minBnbOut",
          "type": "uint256"
        }
      ],
      "name": "convertTokenToBnb",
      "outputs": [],
      "stateMutability": "nonpayable",
      "type": "function"
    },
    {
      "inputs": [],
      "name": "dexRouter",
      "outputs": [
        {
          "internalType": "address",
          "name": "",
          "type": "address"
        }
      ],
      "stateMutability": "view",
      "type": "function"
    },
    {
      "inputs": [
        {
          "internalType": "uint256",
          "name": "minPilotOut",
          "type": "uint256"
        }
      ],
      "name": "distributeFees",
      "outputs": [],
      "stateMutability": "nonpayable",
      "type": "function"
    },
    {
      "inputs": [
        {
          "internalType": "address",
          "name": "token",
          "type": "address"
        },
        {
          "internalType": "uint256",
          "name": "amount",
          "type": "uint256"
        }
      ],
      "name": "emergencyWithdraw",
      "outputs": [],
      "stateMutability": "nonpayable",
      "type": "function"
    },
    {
      "inputs": [],
      "name": "minDistributionAmount",
      "outputs": [
        {
          "internalType": "uint256",
          "name": "",
          "type": "uint256"
        }
      ],
      "stateMutability": "view",
      "type": "function"
    },
    {
      "inputs": [],
      "name": "owner",
      "outputs": [
        {
          "internalType": "address",
          "name": "",
          "type": "address"
        }
      ],
      "stateMutability": "view",
      "type": "function"
    },
    {
      "inputs": [],
      "name": "pause",
      "outputs": [],
      "stateMutability": "nonpayable",
      "type": "function"
    },
    {
      "inputs": [],
      "name": "paused",
      "outputs": [
        {
          "internalType": "bool",
          "name": "",
          "type": "bool"
        }
      ],
      "stateMutability": "view",
      "type": "function"
    },
    {
      "inputs": [],
      "name": "pilotToken",
      "outputs": [
        {
          "internalType": "contract IERC20",
          "name": "",
          "type": "address"
        }
      ],
      "stateMutability": "view",
      "type": "function"
    },
    {
      "inputs": [],
      "name": "referralPool",
      "outputs": [
        {
          "internalType": "address",
          "name": "",
          "type": "address"
        }
      ],
      "stateMutability": "view",
      "type": "function"
    },
    {
      "inputs": [],
      "name": "renounceOwnership",
      "outputs": [],
      "stateMutability": "nonpayable",
      "type": "function"
    },
    {
      "inputs": [
        {
          "internalType": "address",
          "name": "_dexRouter",
          "type": "address"
        }
      ],
      "name": "setDexRouter",
      "outputs": [],
      "stateMutability": "nonpayable",
      "type": "function"
    },
    {
      "inputs": [
        {
          "internalType": "uint256",
          "name": "_minAmount",
          "type": "uint256"
        }
      ],
      "name": "setMinDistributionAmount",
      "outputs": [],
      "stateMutability": "nonpayable",
      "type": "function"
    },
    {
      "inputs": [
        {
          "internalType": "address",
          "name": "_referralPool",
          "type": "address"
        }
      ],
      "name": "setReferralPool",
      "outputs": [],
      "stateMutability": "nonpayable",
      "type": "function"
    },
    {
      "inputs": [
        {
          "internalType": "address",
          "name": "_treasury",
          "type": "address"
        }
      ],
      "name": "setTreasury",
      "outputs": [],
      "stateMutability": "nonpayable",
      "type": "function"
    },
    {
      "inputs": [],
      "name": "totalFeesCollected",
      "outputs": [
        {
          "internalType": "uint256",
          "name": "",
          "type": "uint256"
        }
      ],
      "stateMutability": "view",
      "type": "function"
    },
    {
      "inputs": [],
      "name": "totalPilotBurned",
      "outputs": [
        {
          "internalType": "uint256",
          "name": "",
          "type": "uint256"
        }
      ],
      "stateMutability": "view",
      "type": "function"
    },
    {
      "inputs": [
        {
          "internalType": "address",
          "name": "newOwner",
          "type": "address"
        }
      ],
      "name": "transferOwnership",
      "outputs": [],
      "stateMutability": "nonpayable",
      "type": "function"
    },
    {
      "inputs": [],
      "name": "treasury",
      "outputs": [
        {
          "internalType": "address",
          "name": "",
          "type": "address"
        }
      ],
      "stateMutability": "view",
      "type": "function"
    },
    {
      "inputs": [],
      "name": "unpause",
      "outputs": [],
      "stateMutability": "nonpayable",
      "type": "function"
    },
    {
      "inputs": [],
      "name": "wbnb",
      "outputs": [
        {
          "internalType": "address",
          "name": "",
          "type": "address"
        }
      ],
      "stateMutability": "view",
      "type": "function"
    },
    {
      "stateMutability": "payable",
      "type": "receive"
    }
  ],
  "bytecode": "0x60a060405267016345785d8a00006006553480156200001d57600080fd5b5060405162001a9e38038062001a9e833981016040819052620000409162000253565b33806200006857604051631e4fbdf760e01b8152600060048201526024015b60405180910390fd5b6200007381620001e6565b50600180556001600160a01b038516620000d05760405162461bcd60e51b815260206004820152601560248201527f496e76616c69642050494c4f542061646472657373000000000000000000000060448201526064016200005f565b6001600160a01b038416620001285760405162461bcd60e51b815260206004820152601860248201527f496e76616c69642074726561737572792061646472657373000000000000000060448201526064016200005f565b6001600160a01b038316620001805760405162461bcd60e51b815260206004820152601d60248201527f496e76616c696420726566657272616c20706f6f6c206164647265737300000060448201526064016200005f565b6001600160a01b039485166080526002805494861661010002610100600160a81b031990951694909417909355600380549285166001600160a01b03199384161790556004805491851691831691909117905560058054929093169116179055620002c3565b600080546001600160a01b038381166001600160a01b0319831681178455604051919092169283917f8be0079c531659141344cd1fd0a4f28419497f9722a3daafe3b4186f6b6457e09190a35050565b80516001600160a01b03811681146200024e57600080fd5b919050565b600080600080600060a086880312156200026c57600080fd5b620002778662000236565b9450620002876020870162000236565b9350620002976040870162000236565b9250620002a76060870162000236565b9150620002b76080870162000236565b90509295509295909350565b6080516117a3620002fb600039600081816102b0015281816105d201528181610ff60152818161113a01526111b901526117a36000f3fe60806040526004361061014f5760003560e01c806361d027b3116100b657806395ccea671161006f57806395ccea67146103e25780639c98676414610402578063a42f765b14610417578063f0f4426014610437578063f2fde38b14610457578063f72f863b1461047757600080fd5b806361d027b314610340578063715018a61461036557806383d5e7261461037a5780638456cb591461038f5780638d72647e146103a45780638da5cb5b146103c457600080fd5b806333a8915a1161010857806333a8915a1461028957806339c3b99c1461029e5780633f4ba83a146102d25780635c975abb146102e75780636029bf9f1461030a57806360c6d8ae1461032a57600080fd5b8063050ae660146101b05780630758d924146101d25780630a65fb211461020f5780630c4b1396146102335780631e4df938146102535780632b9fcfd01461027357600080fd5b366101ab5761015c610497565b346007600082825461016e919061157a565b90915550506040513481526000907f9dc46f23cfb5ddcad0ae7ea2be38d47fec07bb9382ec7e564efc69e036dd66ce9060200160405180910390a2005b600080fd5b3480156101bc57600080fd5b506101d06101cb3660046115a9565b6104bd565b005b3480156101de57600080fd5b506004546101f2906001600160a01b031681565b6040516001600160a01b0390911681526020015b60405180910390f35b34801561021b57600080fd5b5061022560065481565b604051908152602001610206565b34801561023f57600080fd5b506101d061024e3660046115cb565b610572565b34801561025f57600080fd5b506003546101f2906001600160a01b031681565b34801561027f57600080fd5b5061022560085481565b34801561029557600080fd5b50610225600581565b3480156102aa57600080fd5b506101f27f000000000000000000000000000000000000000000000000000000000000000081565b3480156102de57600080fd5b506101d0610889565b3480156102f357600080fd5b5060025460ff166040519015158152602001610206565b34801561031657600080fd5b506101d06103253660046115f5565b610899565b34801561033657600080fd5b5061022560075481565b34801561034c57600080fd5b506002546101f29061010090046001600160a01b031681565b34801561037157600080fd5b506101d0610b4b565b34801561038657600080fd5b50610225605081565b34801561039b57600080fd5b506101d0610b5d565b3480156103b057600080fd5b506005546101f2906001600160a01b031681565b3480156103d057600080fd5b506000546001600160a01b03166101f2565b3480156103ee57600080fd5b506101d06103fd3660046115cb565b610b6d565b34801561040e57600080fd5b50610225600f81565b34801561042357600080fd5b506101d06104323660046115f5565b610c71565b34801561044357600080fd5b506101d06104523660046115a9565b610cbe565b34801561046357600080fd5b506101d06104723660046115a9565b610d76565b34801561048357600080fd5b506101d06104923660046115a9565b610db1565b60025460ff16156104bb5760405163d93c066560e01b815260040160405180910390fd5b565b6104c5610e5a565b6001600160a01b0381166105205760405162461bcd60e51b815260206004820152601d60248201527f496e76616c696420726566657272616c20706f6f6c206164647265737300000060448201526064015b60405180910390fd5b600380546001600160a01b038381166001600160a01b0319831681179093556040519116919082907f66d1693c687b421f540b37c3682deeaee7fe381c4d000c01701498e6f6ed04c890600090a35050565b61057a610e5a565b610582610e87565b61058a610497565b6001600160a01b0382166105d05760405162461bcd60e51b815260206004820152600d60248201526c24b73b30b634b2103a37b5b2b760991b6044820152606401610517565b7f00000000000000000000000000000000000000000000000000000000000000006001600160a01b0316826001600160a01b0316036106485760405162461bcd60e51b815260206004820152601460248201527310d85b9b9bdd0818dbdb9d995c9d0814125313d560621b6044820152606401610517565b6040516370a0823160e01b81523060048201526000906001600160a01b038416906370a0823190602401602060405180830381865afa15801561068f573d6000803e3d6000fd5b505050506040513d601f19601f820116820180604052508101906106b3919061160e565b9050600081116106fc5760405162461bcd60e51b8152602060048201526014602482015273139bc81d1bdad95b9cc81d1bc818dbdb9d995c9d60621b6044820152606401610517565b600454610716906001600160a01b03858116911683610eb1565b604080516002808252606082018352600092602083019080368337019050509050838160008151811061074b5761074b611627565b6001600160a01b03928316602091820292909201015260055482519116908290600190811061077c5761077c611627565b6001600160a01b03928316602091820292909201015260045460009116838584306107a94261012c61157a565b6040516024016107bd959493929190611681565b60408051601f198184030181529181526020820180516001600160e01b031663791ac94760e01b179052516107f291906116bd565b6000604051808303816000865af19150503d806000811461082f576040519150601f19603f3d011682016040523d82523d6000602084013e610834565b606091505b50509050806108795760405162461bcd60e51b8152602060048201526011602482015270151bdad95b881cddd85c0819985a5b1959607a1b6044820152606401610517565b50505061088560018055565b5050565b610891610e5a565b6104bb610f41565b6108a1610e5a565b6108a9610e87565b6108b1610497565b60065447908110156109115760405162461bcd60e51b8152602060048201526024808201527f42656c6f77206d696e696d756d20646973747269627574696f6e2074687265736044820152631a1bdb1960e21b6064820152608401610517565b60006064610920600f846116ec565b61092a9190611703565b90506000606461093b6050856116ec565b6109459190611703565b90506000816109548486611725565b61095e9190611725565b905060008311801561097a57506004546001600160a01b031615155b801561099057506005546001600160a01b031615155b1561099f5761099f8386610f93565b8115610a4f5760025460405160009161010090046001600160a01b03169084908381818185875af1925050503d80600081146109f7576040519150601f19603f3d011682016040523d82523d6000602084013e6109fc565b606091505b5050905080610a4d5760405162461bcd60e51b815260206004820152601860248201527f5472656173757279207472616e73666572206661696c656400000000000000006044820152606401610517565b505b8015610afa576003546040516000916001600160a01b03169083908381818185875af1925050503d8060008114610aa2576040519150601f19603f3d011682016040523d82523d6000602084013e610aa7565b606091505b5050905080610af85760405162461bcd60e51b815260206004820152601860248201527f526566657272616c207472616e73666572206661696c656400000000000000006044820152606401610517565b505b60408051848152602081018490529081018290527f312c5308f42848705a866c73dec11fd0783c2d64aac6a97e94467062ad3f40589060600160405180910390a150505050610b4860018055565b50565b610b53610e5a565b6104bb6000611303565b610b65610e5a565b6104bb611353565b610b75610e5a565b6001600160a01b038216610c5d5747811115610bca5760405162461bcd60e51b8152602060048201526014602482015273496e73756666696369656e742062616c616e636560601b6044820152606401610517565b604051600090339083908381818185875af1925050503d8060008114610c0c576040519150601f19603f3d011682016040523d82523d6000602084013e610c11565b606091505b5050905080610c585760405162461bcd60e51b8152602060048201526013602482015272109390881d1c985b9cd9995c8819985a5b1959606a1b6044820152606401610517565b505050565b6108856001600160a01b0383163383611390565b610c79610e5a565b600680549082905560408051828152602081018490527f3ed3c95bab7efd0ace27d48873faeb1b6e21aec077992bbe3c432c805bc5fae9910160405180910390a15050565b610cc6610e5a565b6001600160a01b038116610d1c5760405162461bcd60e51b815260206004820152601860248201527f496e76616c6964207472656173757279206164647265737300000000000000006044820152606401610517565b600280546001600160a01b03838116610100818102610100600160a81b031985161790945560405193909204169182907f4ab5be82436d353e61ca18726e984e561f5c1cc7c6d38b29d2553c790434705a90600090a35050565b610d7e610e5a565b6001600160a01b038116610da857604051631e4fbdf760e01b815260006004820152602401610517565b610b4881611303565b610db9610e5a565b6001600160a01b038116610e085760405162461bcd60e51b8152602060048201526016602482015275496e76616c696420726f75746572206164647265737360501b6044820152606401610517565b600480546001600160a01b038381166001600160a01b0319831681179093556040519116919082907ff296fa3e8eb1c1d46e2d1eafbd38e92f916e42b9ce1573a1cc98b2d0e4e5e86290600090a35050565b6000546001600160a01b031633146104bb5760405163118cdaa760e01b8152336004820152602401610517565b600260015403610eaa57604051633ee5aeb560e01b815260040160405180910390fd5b6002600155565b604051636eb1769f60e11b81523060048201526001600160a01b0383811660248301526000919085169063dd62ed3e90604401602060405180830381865afa158015610f01573d6000803e3d6000fd5b505050506040513d601f19601f82011682018060405250810190610f25919061160e565b9050610f3b8484610f36858561157a565b6113ef565b50505050565b610f4961147f565b6002805460ff191690557f5db9ee0a495bf2e6ff9c91a7834c1ba4fdd244a5e8aa4e537bd38aeae4b073aa335b6040516001600160a01b03909116815260200160405180910390a1565b604080516002808252606082018352600092602083019080368337505060055482519293506001600160a01b031691839150600090610fd457610fd4611627565b60200260200101906001600160a01b031690816001600160a01b0316815250507f00000000000000000000000000000000000000000000000000000000000000008160018151811061102857611028611627565b6001600160a01b03928316602091820292909201015260045460009116848484306110554261012c61157a565b6040516024016110689493929190611738565b60408051601f198184030181529181526020820180516001600160e01b031663b6f9de9560e01b1790525161109d91906116bd565b60006040518083038185875af1925050503d80600081146110da576040519150601f19603f3d011682016040523d82523d6000602084013e6110df565b606091505b50509050806111225760405162461bcd60e51b815260206004820152600f60248201526e111156081cddd85c0819985a5b1959608a1b6044820152606401610517565b6040516370a0823160e01b81523060048201526000907f00000000000000000000000000000000000000000000000000000000000000006001600160a01b0316906370a0823190602401602060405180830381865afa158015611189573d6000803e3d6000fd5b505050506040513d601f19601f820116820180604052508101906111ad919061160e565b905080156112fc5760007f00000000000000000000000000000000000000000000000000000000000000006001600160a01b0316826040516024016111f491815260200190565b60408051601f198184030181529181526020820180516001600160e01b03166346d9fc9b60e11b1790525161122991906116bd565b6000604051808303816000865af19150503d8060008114611266576040519150601f19603f3d011682016040523d82523d6000602084013e61126b565b606091505b50509050806112aa5760405162461bcd60e51b815260206004820152600b60248201526a109d5c9b8819985a5b195960aa1b6044820152606401610517565b81600860008282546112bc919061157a565b909155505060408051878152602081018490527fa35443c918552547ba2ae4a6d6544784ddede6b26b3366d112527e973f60f90a910160405180910390a1505b5050505050565b600080546001600160a01b038381166001600160a01b0319831681178455604051919092169283917f8be0079c531659141344cd1fd0a4f28419497f9722a3daafe3b4186f6b6457e09190a35050565b61135b610497565b6002805460ff191660011790557f62e78cea01bee320cd4e420270b5ea74000d11b0c9f74754ebdbfc544b05a258610f763390565b6040516001600160a01b03838116602483015260448201839052610c5891859182169063a9059cbb906064015b604051602081830303815290604052915060e01b6020820180516001600160e01b0383818316178352505050506114a2565b604080516001600160a01b038416602482015260448082018490528251808303909101815260649091019091526020810180516001600160e01b031663095ea7b360e01b1790526114408482611513565b610f3b576040516001600160a01b0384811660248301526000604483015261147591869182169063095ea7b3906064016113bd565b610f3b84826114a2565b60025460ff166104bb57604051638dfc202b60e01b815260040160405180910390fd5b600080602060008451602086016000885af1806114c5576040513d6000823e3d81fd5b50506000513d915081156114dd5780600114156114ea565b6001600160a01b0384163b155b15610f3b57604051635274afe760e01b81526001600160a01b0385166004820152602401610517565b6000806000806020600086516020880160008a5af192503d91506000519050828015611558575081156115495780600114611558565b6000866001600160a01b03163b115b93505050505b92915050565b634e487b7160e01b600052601160045260246000fd5b8082018082111561155e5761155e611564565b80356001600160a01b03811681146115a457600080fd5b919050565b6000602082840312156115bb57600080fd5b6115c48261158d565b9392505050565b600080604083850312156115de57600080fd5b6115e78361158d565b946020939093013593505050565b60006020828403121561160757600080fd5b5035919050565b60006020828403121561162057600080fd5b5051919050565b634e487b7160e01b600052603260045260246000fd5b600081518084526020808501945080840160005b838110156116765781516001600160a01b031687529582019590820190600101611651565b509495945050505050565b85815284602082015260a0604082015260006116a060a083018661163d565b6001600160a01b0394909416606083015250608001529392505050565b6000825160005b818110156116de57602081860181015185830152016116c4565b506000920191825250919050565b808202811582820484141761155e5761155e611564565b60008261172057634e487b7160e01b600052601260045260246000fd5b500490565b8181038181111561155e5761155e611564565b848152608060208201526000611751608083018661163d565b6001600160a01b0394909416604083015250606001529291505056fea264697066735822122076cd931f87c9c000ca6bd479946e80144b97595b0967d25cddf820903736564964736f6c63430008140033",
  "linkReferences": {},
  "deployedLinkReferences": {}
}